:020000040800F2
:1000000018980220DDC40008DDB90008DFB9000837
:10001000E1B90008E3B90008E5B9000800000000F4
:10002000000000000000000000000000E7B9000828
:10003000E9B9000800000000EBB90008EDB90008BC
:1000400021C6000825C6000829C600082DC60008DC
:1000500031C6000835C6000839C600083DC600088C
:1000600083BA000841C6000845C6000849C6000812
:100070004DC6000851C6000855C6000859C60008FC
:100080005DC6000861C6000865C6000869C60008AC
:100090006DC6000871C6000875C6000879C600085C
:1000A0007DC6000881C6000885C6000889C600080C
:1000B0008DC6000891C6000895C6000899C60008BC
:1000C0009DC60008A1C60008A5C60008A9C600086C
:1000D000ADC60008B1C60008B5C60008FDB90008E5
:1000E000B9BA0008B9C60008BDC60008C1C60008F4
:1000F000C5C60008C9C60008CDC60008D1C600089C
:10010000D5C60008D9C60008DDC60008E1C600084B
:10011000E5C60008E9C60008EDC6000817B20008E9
:10012000F1C60008F5C60008F9C60008FDC60008BB
:1001300001C7000805C7000809C700080DC7000867
:1001400011C7000815C7000819C700081DC7000817
:1001500021C7000825C70008B7A1000829C7000863
:100160002DC7000831C7000835C7000839C7000887
:100170003DC7000841C7000845C70008000000004F
:1001800049C700084DC7000855BA000851C7000804
:1001900055C7000859C700085DC7000800000000E7
:1001A00061C7000865C7000869C700082DE9F84362
:1001B0005FF000090020DFF810150870DFF80C650B
:1001C00000203070002001F0EBFFDFF80425002153
:1001D000002002F0A5F802F023FC0400307801288A
:1001E00040F0BE802000C0B2002810D0022826D0E7
:1001F00012D3042841D035D306285AD048D3082832
:100200006DD061D30A2800F0908075D3A6E0DFF8A6
:10021000C40400F090F9A1E0DFF8B874380000F0F1
:1002200015FE0500DFF8B0842A00D2B292B2414632
:10023000380000F05DFA404600F07DF98EE0DFF80E
:100240009474380000F02EFF0500DFF88C842A003B
:10025000D2B292B24146380000F04AFA404600F06D
:100260006AF97BE0DFF870743900DFF8680400F0A9
:1002700049FC380000F05FF970E0DFF85C74390089
:10028000DFF8500400F036FF380000F054F965E064
:10029000DFF844743900DFF83C0400F02BFFDFF88E
:1002A0003C844146380000F02DFC404600F043F904
:1002B00054E0DFF824743900DFF8180401F053F932
:1002C000380000F038F949E0DFF80C743900DFF845
:1002D000040401F01DFA380000F02DF93EE0DFF8CB
:1002E000F873502314223900DFF8E80301F0C0FA54
:1002F000380000F020F931E0DFF8D873380000F062
:10030000A5FD0500DFF8D0832A00D2B292B24146A3
:10031000380000F0EDF9DFF8C4733900404601F011
:100320005CF8380000F007F918E0DFF8A87338002F
:1003300000F08CFD0500DFF8A0832A00D2B292B253
:100340004146380000F0D4F9DFF890733900404698
:1003500001F0A6F8380000F0EEF8FFE7002030705A
:10036000DFF87C738021380002F02DFC00287FF438
:1003700032AF8021380002F026FC0028F9D0BDE819
:10038000F1832DE9F84F5FF000080020DFF8381303
:100390000870DFF83893002089F80000002001F091
:1003A000FFFEDFF840230021002001F0B9FF00200C
:1003B00001F0F6FEDFF8300302F09AFD8246524665
:1003C00092B20021002002F0FCF8504680B20028D2
:1003D00004D03C21012002F0E0FE07E0504680B24C
:1003E000002803D10021012002F0D7FE02F018FB03
:1003F0004000804699F80000012840F08B80DFF82B
:10040000E0B24FF48071584602F0DDFB002805D0C1
:100410004021584602F0D7FB00284FD14FF480719D
:10042000584602F0D0FB002804D1DFF8A80200F003
:100430000DFD06004021584602F0C5FB002804D1FE
:10044000DFF8900200F02EFE06003000C0B2D0F1BE
:10045000FF004146C9B2884202DAFF20070002E0ED
:1004600018EB06000700002005002800C0B2702825
:1004700049D2002004002000C0B2A0281CD2A02035
:100480003900DFF850222B00DBB243431A4423002B
:10049000DBB2D25CC9B2914201D2FF2100E000215F
:1004A000DFF834222B00DBB200FB03F01044220003
:1004B000D2B28154641CDEE76D1CD6E70020050033
:1004C0002800C0B270281ED2002004002000C0B254
:1004D000A02816D2A020DFF800122A00D2B2424390
:1004E00011442200D2B2DFF8EC31AC465FFA8CFC4A
:1004F00000FB0CF018442300DBB2C05C8854641C81
:10050000E4E76D1CDCE7DFF8D00100F014F8002010
:1005100089F80000DFF8C8B18021584602F053FB8B
:1005200000287FF444AF8021584602F04CFB00289D
:10053000F9D0BDE8F18F2DE9F84304005FF0000920
:100540005FF000087F239F221021002001F009FEA8
:1005500000270026300080B2702830D2002005002D
:10056000280080B2A02828D2310089B2A0204143BF
:1005700004EB0100290089B2405C8046DFF8080BDB
:100580004146C9B24246D2B2C2F3C402D20292B2CA
:10059000120A52EA5112390089B242547F1C414674
:1005A000C9B25FEAC80212F0E00252EAD102390091
:1005B00089B242547F1C6D1CD2E7761CCAE7082121
:1005C0004A4802F0F8FA4FF40C40DFF8C01A08600D
:1005D000DFF8B40ADFF8B81A0860DFF8B80A016873
:1005E00051F001010160DFF8B00A00680006FAD49A
:1005F00020220421DFF8A40A03F0EFF8BDE8F1831C
:100600002DE9F84304005FF000097F239F22582161
:10061000002001F0A6FD00270026300080B2282827
:1006200030D20E200500280080B2AE2828DA310032
:1006300089B2BC20414304EB0100290089B2405C2F
:100640008046DFF85C0A4146C9B24246D2B2C2F3E4
:10065000C402D20292B2120A52EA5112390089B28D
:1006600042547F1C4146C9B25FEAC80212F0E00260
:1006700052EAD102390089B242547F1C6D1CD2E784
:10068000761CCAE70821194802F095FA4FF4485041
:10069000DFF8F8190860DFF8080ADFF8F4190860D5
:1006A000DFF8F009016851F001010160DFF8E809A5
:1006B00000680006FAD420220421DFF8E00903F0E4
:1006C0008CF8BDE8F1830000127802201178022036
:1006D00010C40008408E002040D40020401A0120A1
:1006E0000018024028C4000800140140000C024019
:1006F0002DE9F04704000D00160000215FF000080E
:100700005FF004090020010089B2702922D2002183
:100710008846414689B2A0291AD2A021320003009E
:100720009BB24B4323444746BFB2DB5D92B29BB2C0
:100730009A4201D2FF2200E0002203009BB201FB9B
:1007400003F1294443469BB2CA5418F10108E0E77B
:10075000401CD8E70127380080B26F2880F08080E5
:1007600001208046404680B29F2877D25FF0A00AE1
:10077000380080B20AFB00F02844414689B2405C50
:10078000002868D1380080B20AFB00F020444146BE
:1007900089B2415C380080B20AFB00F02044424636
:1007A00092B2104410F8A00C091A484680B2814257
:1007B00051DA380080B20AFB00F02044414689B289
:1007C000405C390089B20AFB01F12144424692B2F1
:1007D000114491F8A010401A03F02EF8494689B24E
:1007E000884238DA380080B20AFB00F020444146E3
:1007F00089B2415C380080B20AFB00F020444246D6
:1008000092B2104410F8010C091A484680B2814295
:1008100021DA380080B20AFB00F02044414689B258
:10082000405C390089B20AFB01F12144424692B290
:1008300011444978401A02F0FFFF494689B28842C4
:1008400009DA380080B20AFB00FA05EB0A004146DB
:1008500089B2FF22425418F1010883E77F1C7AE72E
:10086000BDE8F0872DE9F84384B004000D000126AF
:10087000272E80F0448101200700BB2F80F03D81AE
:10088000BC2101FB06F02044384410F8BB2C01FBCE
:1008900006F02044384410F8BD0C121A01FB06F093
:1008A0002044384410F8010C121A01FB06F02044D1
:1008B0003844407852FA80F201FB06F02044384474
:1008C00090F8BB00121A01FB06F02044384490F85F
:1008D000BD0052FA80F00090E94601FB06F020448A
:1008E000384490F8BB2001FB06F02044384410F84F
:1008F000BD0C121A01FB06F02044384410F8BC0C61
:10090000121A01FB06F02044384490F8BC0052FA59
:1009100080F201FB06F02044384410F8BB0C121A98
:1009200001FB06F02044384490F8BD0052FA80F0F4
:10093000C9F8040001FB06F02044384410F8012CEB
:1009400001FB06F02044384410F8BC0C121A01FBDD
:1009500006F0204438444078121A01FB06F0204487
:10096000384490F8BC0052FA80F201FB06F02044B3
:10097000384410F8BB0C121A01FB06F0204438442E
:1009800090F8BB0052FA80F0C9F8080001FB06F0AD
:1009900020443844427801FB06F02044384410F8E3
:1009A000BC0C121A01FB06F02044384410F8010C6C
:1009B000121A01FB06F02044384490F8BC0052FAA9
:1009C00080F201FB06F02044384410F8BD0C121AE6
:1009D00001FB06F104EB0100384490F8BD0052FA27
:1009E00080F0C9F80C00009802F026FF0090D9F8BA
:1009F000040002F021FFC9F80400D9F8080002F051
:100A00001BFFC9F80800D9F80C0002F015FFC9F85F
:100A10000C0001208046B8F1040F0ADA009859F85A
:100A20002810884202DA59F82800009018F10108CD
:100A3000F1E7BC2000FB06F12144394411F8BD1C4C
:100A400000FB06F222443A4412F8BC2C52FA81F11F
:100A500000FB06F222443A4412F8BB2C51FA82F110
:100A600000FB06F222443A4412F8012C51FA82F1BA
:100A700000FB06F22244D25D51FA82F100FB06F23D
:100A800022443A44527851FA82F100FB06F22244A1
:100A90003A4492F8BB2051FA82F100FB06F222445C
:100AA0003A4492F8BC2051FA82F100FB06F222444B
:100AB0003A4492F8BD2051FA82F1C9F80C109DED2C
:100AC000000AB8EEC00AD9ED030AF8EEE00AB2EE69
:100AD000081AC0EE810AF4EE400AF1EE10FA05D5CC
:100AE00000FB06F028440021C15504E000FB06F09D
:100AF0002844FF21C1557F1CBFE6761CB8E605B02F
:100B0000BDE8F0832DE9F84384B004000D00012610
:100B10006F2E80F04481012007009F2F80F03D81DF
:100B2000A02101FB06F02044384410F89F2C01FB63
:100B300006F02044384410F8A10C121A01FB06F00C
:100B40002044384410F8010C121A01FB06F020442E
:100B50003844407852FA80F201FB06F020443844D1
:100B600090F89F00121A01FB06F02044384490F8D8
:100B7000A10052FA80F00090E94601FB06F0204403
:100B8000384490F89F2001FB06F02044384410F8C8
:100B9000A10C121A01FB06F02044384410F8A00CF6
:100BA000121A01FB06F02044384490F8A00052FAD3
:100BB00080F201FB06F02044384410F89F0C121A12
:100BC00001FB06F02044384490F8A10052FA80F06E
:100BD000C9F8040001FB06F02044384410F8012C49
:100BE00001FB06F02044384410F8A00C121A01FB57
:100BF00006F0204438444078121A01FB06F02044E5
:100C0000384490F8A00052FA80F201FB06F020442C
:100C1000384410F89F0C121A01FB06F020443844A7
:100C200090F89F0052FA80F0C9F8080001FB06F026
:100C300020443844427801FB06F02044384410F840
:100C4000A00C121A01FB06F02044384410F8010CE5
:100C5000121A01FB06F02044384490F8A00052FA22
:100C600080F201FB06F02044384410F8A10C121A5F
:100C700001FB06F104EB0100384490F8A10052FAA0
:100C800080F0C9F80C00009802F0D6FD0090D9F869
:100C9000040002F0D1FDC9F80400D9F8080002F000
:100CA000CBFDC9F80800D9F80C0002F0C5FDC9F861
:100CB0000C0001208046B8F1040F0ADA009859F8B8
:100CC0002810884202DA59F82800009018F101082B
:100CD000F1E7A02000FB06F12144394411F8A11CE2
:100CE00000FB06F222443A4412F8A02C52FA81F199
:100CF00000FB06F222443A4412F89F2C51FA82F18A
:100D000000FB06F222443A4412F8012C51FA82F117
:100D100000FB06F22244D25D51FA82F100FB06F29A
:100D200022443A44527851FA82F100FB06F22244FE
:100D30003A4492F89F2051FA82F100FB06F22244D5
:100D40003A4492F8A02051FA82F100FB06F22244C4
:100D50003A4492F8A12051FA82F1C9F80C109DEDA5
:100D6000000AB8EEC00AD9ED030AF8EEE00AB2EEC6
:100D7000081AC0EE810AF4EE400AF1EE10FA05D529
:100D800000FB06F028440021C15504E000FB06F0FA
:100D90002844FF21C1557F1CBFE6761CB8E605B08C
:100DA000BDE8F0832DE9F84F04000D000026310066
:100DB000C9B2282947D24FF0FF0BD94600218A46F5
:100DC00000273800C0B2BC2816D2BC203100C9B2FE
:100DD000414321443A00D2B2895C4A46D2B29142A0
:100DE00008D23100C9B200FB01F020443900C9B279
:100DF000405C81467F1CE4E701F012FE052110FBF8
:100E000001900A30804600200100C9B2BC2918D2E6
:100E1000BC2142463300DBB24B4323440700FFB200
:100E2000DB5DD2B29A4201D25A4600E00022330082
:100E3000DBB201FB03F129440300DBB2CA54401CBE
:100E4000E2E7761CB3E7BDE8F18F00002DE9F0433F
:100E5000ADF5007D010000225FF0000E5FF000099B
:100E600000259FED883A0026DFED863A0020040039
:100E7000A4B2B4F5807F08DA00246F4684461FFAD6
:100E80008CFC27F81C40401CF1E75FF0000C60462A
:100E900080B2702825D200200300180080B2A0285C
:100EA0001CD2A02468466746BFB267430F449846E9
:100EB0001FFA88F817F80870E0461FFA88F804FB54
:100EC00008F40C4498461FFA88F814F8084030F8E3
:100ED0001440641C20F817405B1CDEE71CF1010C79
:100EE000D5E70024200080B2B0F5807F08DA68469C
:100EF0002700BFB230F81700002801D1641CF1E7C9
:100F0000FF272000B84680B21FFA88F8404509D272
:100F10006846B8461FFA88F830F81800002801D152
:100F20007F1EEEE73800A04680B21FFA88F84045E1
:100F300002D13800C0B2A1E0200080B2401CB84607
:100F40001FFA88F8404502D12000C0B296E05FF059
:100F500000082000BC4686461FFA8CFC1FFA8EFE55
:100F6000F44509D3EC4686461FFA8EFE3CF81EC0B7
:100F700018FA8CF8401CEDE75FF0000CA64638002C
:100F8000F14680B21FFA89F948450CD36846F1460C
:100F90001FFA89F930F81990704680B200FB09CC2D
:100FA0001EF1010EEBE7BFEE002AA1464846BE4601
:100FB00080B21FFA8EFE70455ED26846CE461FFA9A
:100FC0008EFE30F81EE016EB0E06B8EB060E04EEB1
:100FD00010EAF0EE443A04EE106AB8EE444A04EE29
:100FE000908AF8EE644A84EE244AB0EE440AB8EEE1
:100FF000634A04EE908AF8EE644A84EE244AF0EEE6
:10100000440ACE461FFA8EFE30F81EE0484680B2F3
:1010100000FB0E55BCEB050004EE100AB0EE443A9E
:1010200004EE105AB8EE444A04EE906AF8EE644AB0
:1010300084EE244AB0EE441AB8EE434AF8EE634A0E
:1010400084EE244AF0EE441A20EE204A71EE614A02
:1010500024EE244A71EE614A24EE244AF0EE442A3A
:10106000B4EE622AF1EE10FA03D5B0EE622A4846D9
:10107000020019F1010999E71000C0B20DF5007DD9
:10108000BDE8F083000000004002002074640240CC
:101090007C640240706402400850014000640240D9
:1010A00040EC012030B40100002000230024002285
:1010B000100080B2702814D200200300180080B203
:1010C000A0280CD21500ADB2A020454301EB0500CD
:1010D0001D00ADB2405D54FA80F45B1CEEE7521C7B
:1010E000E6E77020B4FBF0F0A025B0FBF5F0C0B24D
:1010F00030BC70472DE9F04102000124200080B28D
:101100006F286CD201200300180080B29F2864D29F
:1011100041F23935A026200080B2704308441F00F8
:10112000BFB2A4461FFA8CFC06FB0CFC94449E46FE
:101130001FFA8EFEF4441CF8A1CC05FB0CFC5FEA00
:101140002C4C00F807C0200080B2704301EB000770
:101150009C461FFA8CFC200080B2704308449E46D7
:101160001FFA8EFE10F80EE0200080B2704310448B
:1011700098461FFA88F8404410F8A08C41F6B170E8
:1011800000FB08F85FEA284858FA8EF007F80C00D0
:10119000200080B2704308441F00BFB2A4461FFA6B
:1011A0008CFC06FB0CFC8C449E461FFA8EFE1CF841
:1011B0000EC0A6461FFA8EFE06FB0EF616449E468D
:1011C0001FFA8EFE764416F89F6C05FB06F52D146B
:1011D00055FA8CF5C5555B1C96E7641C8EE7012516
:1011E000280080B26F2877D201200300180080B257
:1011F0009F286FD241F6B176A024280080B26043C8
:1012000008441F00BFB2AC461FFA8CFC04FB0CFC68
:101210008C449E461FFA8EFE1CF80EC0AE461FFA86
:101220008EFE04FB0EFE964498461FFA88F8C644CC
:101230001EF801EC06FB0EFE5FEA2E4E5EFA8CFCF9
:1012400000F807C0280080B2604301EB00079C460D
:101250001FFA8CFC280080B2604308449E461FFAA7
:101260008EFE10F80EE0280080B2604310449846CD
:101270001FFA88F810F8088043F2464000FB08F88F
:101280005FEA284858FA8EF007F80C00280080B270
:10129000604308441F00BFB2AC461FFA8CFC04FB3D
:1012A0000CFC8C449E461FFA8EFE1CF80EC0AE4607
:1012B0001FFA8EFE04FB0EF414449E461FFA8EFEA7
:1012C0007444647806FB04F6361456FA8CF4C4555C
:1012D0005B1C8BE76D1C83E70124200080B26F2824
:1012E00079D201200300180080B29F2871D241F208
:1012F0003935A026200080B2704308441F00BFB2D9
:10130000A4461FFA8CFC06FB0CFC8C449E461FFA7C
:101310008EFE1CF80EC0A6461FFA8EFE06FB0EFEC1
:10132000964498461FFA88F8C6449EF89FE005FB4D
:101330000EFE5FEA2E4E5EFA8CFC00F807C020001D
:1013400080B2704301EB00079C461FFA8CFC200022
:1013500080B2704308449E461FFA8EFE10F80EE0DD
:10136000200080B27043104498461FFA88F8404429
:1013700090F8A08041F6B17000FB08F85FEA2848B9
:1013800058FA8EF007F80C00200080B27043084431
:101390001F00BFB2A4461FFA8CFC06FB0CFC8C4459
:1013A0009E461FFA8EFE1CF80EC0A6461FFA8EFE41
:1013B00006FB0EF616449E461FFA8EFE764496F8FD
:1013C000A16005FB06F52D1455FA8CF5C5555B1C7F
:1013D00089E7641C81E7BDE8F0812DE9F041002533
:1013E000002601221700BFB26F2F57D201273B0002
:1013F0001F00BFB29F2F4FD2A02794461FFA8CFC2C
:1014000007FB0CFC8C449E461FFA8EFE5FF0000822
:101410000CF80E805FF0000C66465FF0000C64462E
:10142000A4461FFA8CFCBCF1090F20DADFF894CB3C
:10143000A6461FFA8EFE5CF82EC01CFA82FC07FB43
:101440000CFC8444DFF880EBA0461FFA88F85EF8B5
:1014500028E01EFA83FE1CF80EC06546AC465FFA13
:101460008CFCBCF1FF0F00D1761C641CD8E7B4469D
:101470005FFA8CFCBCF1060F0CDB94461FFA8CFC67
:1014800007FB0CF70F449C461FFA8CFC4FF0FF0E35
:1014900007F80CE05B1CABE7521CA3E7BDE8F0814A
:1014A0002DE9F0410025002601221700BFB26F2F61
:1014B00057D201273B001F00BFB29F2F4FD2A0275A
:1014C00094461FFA8CFC07FB0CFC8C449E461FFACA
:1014D0008EFE4FF0FF080CF80E805FF0000C6646A1
:1014E0005FF0000C6446A4461FFA8CFCBCF1090FA7
:1014F00020DADFF8D0CAA6461FFA8EFE5CF82EC0AE
:101500001CFA82FC07FB0CFC8444DFF8BCEAA04612
:101510001FFA88F85EF828E01EFA83FE1CF80EC059
:101520006546AC465FFA8CFCBCF1000F00D1761C1E
:10153000641CD8E7B4465FFA8CFCBCF1060F0CDBE8
:1015400094461FFA8CFC07FB0CF70F449C461FFACD
:101550008CFC5FF0000E07F80CE05B1CABE7521C44
:10156000A3E7BDE8F0812DE9F04102000025002647
:1015700000270123180080B26F2880F0C780012067
:101580000400200080B29F2880F0BE805FF0A00C95
:10159000180080B20CFB00F01044A6461FFA8EFE25
:1015A000704410F89F0C9E461FFA8EFE0CFB0EFE38
:1015B0009644A0461FFA88F8C6449EF801E05FEA08
:1015C0004E0E5EFA80F09E461FFA8EFE0CFB0EFE5B
:1015D0009644A0461FFA88F8C6449EF8A1E050FA47
:1015E0008EFE180080B20CFB00F01044A0461FFADB
:1015F00088F8404410F8A10CBEEB000E180080B231
:101600000CFB00F01044A0461FFA88F8404410F884
:10161000010CBEEB400E180080B20CFB00F0104431
:10162000A0461FFA88F8404490F89F00BEEB000ED9
:101630007546002D00D56D42180080B20CFB00F0FD
:101640001044A6461FFA8EFE704490F89F009E46F6
:101650001FFA8EFE0CFB0EFE9644A0461FFA88F879
:10166000C6449EF8A0E05FEA4E0E5EFA80F09E4609
:101670001FFA8EFE0CFB0EFE9644A0461FFA88F859
:10168000C6449EF8A1E050FA8EFE180080B20CFB12
:1016900000F01044A0461FFA88F8404410F8A10C4E
:1016A000BEEB000E180080B20CFB00F01044A04608
:1016B0001FFA88F8404410F8A00CBEEB400E18004A
:1016C00080B20CFB00F01044A0461FFA88F840449A
:1016D00010F89F0CBEEB000E7646002E00D5764229
:1016E00070190700B7F5807F01DBFF2007001800A5
:1016F00080B20CFB00FC01EB0C00A4461FFA8CFC32
:1017000000F80C70641C3CE75B1C33E7BDE8F0811B
:101710002DE9F84F04000D005FF000085FF00009AC
:101720000126300080B26F2880F0A08001200700E1
:10173000380080B29F2880F09780A021300080B2CE
:10174000484320443A0092B2104410F89F2C3000D5
:1017500080B2484320443B009BB2184410F8A00CD0
:10176000121A300080B2484320443B009BB2184418
:10177000407812EB4002300080B2484320443B00E6
:101780009BB2C05CB2EB4002300080B248432044C0
:101790003B009BB2184490F8A10052FA80F230004E
:1017A00080B2484320443B009BB2184490F8A0000C
:1017B000121A52109046300080B2484320443A003A
:1017C00092B2104410F8010C320092B24A43224403
:1017D0003B009BB2D25C520052FA80F0320092B2CF
:1017E0004A4322443B009BB21A44527850FA82F298
:1017F000300080B2484320443B009BB2184490F82C
:101800009F00121A300080B2484320443B009BB234
:10181000184490F8A000B2EB4002300080B2484378
:1018200020443B009BB2184490F8A100121A5210B9
:101830009146300080B201FB00F105EB010ABB4686
:101840001FFA8BFB09FB09F008FB080000EE100AE9
:10185000B8EEC00A00F099FBBDEEC00A10EE100A07
:101860000AF80B007F1C63E7761C5AE7BDE8F18F8E
:101870002DE9FF4F83B00400002002905FF0000BC1
:101880005FF0020A0125280080B26F2880F0C9802D
:1018900001200600300080B29F2880F0C0805FF0F9
:1018A000A009280080B209FB00F02044310089B271
:1018B000084410F89F1C280080B209FB00F0204467
:1018C000320092B2104410F8A00C091A280080B21D
:1018D00009FB00F02044320092B21044407811EB32
:1018E0004001280080B209FB00F02044320092B28F
:1018F000805CB1EB4001280080B209FB00F020447D
:10190000320092B2104490F8A10051FA80F1280000
:1019100080B209FB00F02044320092B2104490F8EB
:10192000A000091A49100291280080B209FB00F0BA
:101930002044310089B2084410F8010C290089B212
:1019400009FB01F12144320092B2895C490051FA4D
:1019500080F0290089B209FB01F12144320092B2E2
:101960001144497850FA81F1280080B209FB00F057
:101970002044320092B2104490F89F00091A2800C7
:1019800080B209FB00F02044320092B2104490F87B
:10199000A000B1EB4001280080B209FB00F0204418
:1019A000320092B2104490F8A100091A49108B46F7
:1019B000DFF82C06290089B209FB01F10844310047
:1019C00089B2019100900298029A0BFB0BF102FB85
:1019D000001001F035FF41EC100B01F04FFF51EC0E
:1019E000100B01F0D1FF0099019A8854DFF8F4053B
:1019F000290089B209FB01F98144300080B20090CE
:101A00009DED020AF8EEC00A00EE10BAB8EEC00A68
:101A100000F086FA009909F80100761C3AE76D1C7F
:101A200031E70121080080B26F2880F01A8101207F
:101A30000700380080B29F2880F01181A022DFF8D3
:101A4000A4050B009BB2534318443B009BB2C05CFF
:101A5000002807D0022800F0838042D3032800F03A
:101A6000BE80FAE0DFF87835080080B250431844B1
:101A7000BC461FFA8CFC10F80CC0080080B2504322
:101A80001844BE461FFA8EFE704490F801E050469E
:101A9000C0B2BEEB000EF44518DB080080B2504324
:101AA0001844BC461FFA8CFC10F80CC0080080B229
:101AB00050431844BE461FFA8EFE704410F801ECE5
:101AC0005046C0B2BEEB000EF44509DA080080B201
:101AD00002FB00F203EB02003A0092B200238354AF
:101AE000BBE0DFF8FC34080080B250431844BC4629
:101AF0001FFA8CFC10F80CC0080080B25043184448
:101B0000BE461FFA8EFE704410F89FEC5046C0B2DD
:101B1000BEEB000EF44518DB080080B250431844B9
:101B2000BC461FFA8CFC10F80CC0080080B2504371
:101B30001844BE461FFA8EFE704490F89FE050464F
:101B4000C0B2BEEB000EF44509DA080080B202FB19
:101B500000F203EB02003A0092B2002383547CE0CF
:101B6000DFF87C34080080B250431844BC461FFAAA
:101B70008CFC10F80CC0080080B250431844BE46DC
:101B80001FFA8EFE704410F8A0EC5046C0B2BEEBB7
:101B9000000EF44518DB080080B250431844BC46E0
:101BA0001FFA8CFC10F80CC0080080B25043184497
:101BB000BE461FFA8EFE704490F8A0E05046C0B2B8
:101BC000BEEB000EF44509DA080080B202FB00F219
:101BD00003EB02003A0092B2002383543DE0DFF8A9
:101BE0000034080080B250431844BC461FFA8CFCF5
:101BF00010F80CC0080080B250431844BE461FFACB
:101C00008EFE704410F8A1EC5046C0B2BEEB000E40
:101C1000F44518DB080080B250431844BC461FFA54
:101C20008CFC10F80CC0080080B250431844BE462B
:101C30001FFA8EFE704490F8A1E05046C0B2BEEB91
:101C4000000EF44509DA080080B202FB00F203EB53
:101C500002003A0092B2002383547F1CE9E6491C3B
:101C6000E0E60120010089B26F2980F05581012151
:101C70000F00390089B29F2980F04C81D84AA021F9
:101C800003009BB24B431344BC461FFA8CFC13F871
:101C90000C309DF814C063450AD2049A03009BB22D
:101CA00001FB03F111443A0092B2FF238B542FE160
:101CB0009DF8183084461FFA8CFC01FB0CFC944400
:101CC000BE461FFA8EFE1CF80EC063450AD2049A67
:101CD00003009BB201FB03F111443A0092B20023CE
:101CE0008B5415E103009BB24B432344BC461FFABF
:101CF0008CFC634493F89F309846434684461FFA11
:101D00008CFC01FB0CFCA444BE461FFA8EFEF4447E
:101D10009CF8A0C0DBB263450AD203009BB24B43E0
:101D20002344BC461FFA8CFC634493F8A0309846C9
:101D3000434684461FFA8CFC01FB0CFCA444BE46BF
:101D40001FFA8EFEF4449CF8A1C0DBB263450AD2B0
:101D500003009BB24B432344BC461FFA8CFC6344F4
:101D600093F8A1309846434684461FFA8CFC01FB49
:101D70000CFCA444BE461FFA8EFEF4441CF801CCB1
:101D8000DBB263450AD203009BB24B432344BC46FB
:101D90001FFA8CFC634413F8013C98464346844682
:101DA0001FFA8CFC01FB0CFCA444BE461FFA8EFEFD
:101DB0001CF80EC0DBB2634509D203009BB24B4353
:101DC0002344BC461FFA8CFC13F80C30984643465B
:101DD00084461FFA8CFC01FB0CFCA444BE461FFA8F
:101DE0008EFEF4449CF801C0DBB2634509D20300C7
:101DF0009BB24B432344BC461FFA8CFC63445B7884
:101E00009846434684461FFA8CFC01FB0CFCA44414
:101E1000BE461FFA8EFEF4441CF8A1CCDBB263452B
:101E20000AD203009BB24B432344BC461FFA8CFCEE
:101E3000634413F8A13C9846434684461FFA8CFC41
:101E400001FB0CFCA444BE461FFA8EFEF4441CF8B1
:101E5000A0CCDBB263450AD203009BB24B432344C0
:101E6000BC461FFA8CFC634413F8A03C98464346DA
:101E700084461FFA8CFC01FB0CFCA444BE461FFAEE
:101E80008EFEF4441CF89FCCDBB263450AD20300FB
:101E90009BB24B432344BC461FFA8CFC634413F8AB
:101EA0009F3C98469DF81830C4465FFA8CFC634509
:101EB00017D2049B84461FFA8CFC01FB0CFC634484
:101EC000BC461FFA8CFC5FF0000E03F80CE0030028
:101ED0009BB201FB03F111443A0092B200238B54F0
:101EE00016E0FF23DDF810C086461FFA8EFE01FBC8
:101EF0000EFEF444BE461FFA8EFE0CF80E308446E9
:101F00001FFA8CFC01FB0CF111443A0092B28B5485
:101F10007F1CAEE6401CA5E607B0BDE8F08F0000D0
:101F200080EE201ADFED291AB4EE611AF1EE10FAF4
:101F300008DBDFED271AB4EE611AF1EE10FA01D5D5
:101F4000002020E0DFED221AB4EE611AF1EE10FA63
:101F500008DBDFED201AB4EE611AF1EE10FA01D5BC
:101F6000012010E0DFED1C1AB4EE611AF1EE10FA58
:101F700008D5DFED1A1AB4EE611AF1EE10FA01DBA2
:101F8000032000E00220C0B2704781B0F0EE400AAA
:101F9000B6EE000A20EE801A10EE901A1248B0EB4E
:101FA000610000909DED000A61EE001AB7EE082A6C
:101FB00001EEC02A22EE000AF7EE001A81EE800A36
:101FC00001B07047C4000020A0000020CF13D4BE91
:101FD000CD13D43E7A821A40CC13D4BE79821AC073
:101FE0004060012040A60120865A375F10B5DFF817
:101FF00078440121200000F0DEFD0221200000F0E5
:10200000DAFD1021200000F0D6FD052001F018FDBA
:102010001021200000F0D3FD052001F011FD10215A
:10202000200000F0C8FD0221200000F0C4FD0520C2
:1020300001F006FD0221200000F0C1FD112000F09A
:1020400066F8142001F0FCFCB12000F060F80520D7
:1020500000F069F83C2000F066F83C2000F063F8DE
:10206000B22000F054F8052000F05DF83C2000F0AC
:102070005AF83C2000F057F8B32000F048F805204B
:1020800000F051F83C2000F04EF83C2000F04BF8F6
:10209000052000F048F83C2000F045F83C2000F016
:1020A00042F8B42000F033F8032000F03CF83A2066
:1020B00000F02DF8052000F036F8202000F027F879
:1020C000132000F024F8262000F021F8012000F071
:1020D0002AF8292000F01BF8362000F018F87020AC
:1020E00000F021F8002000F05BF810BD0100DFF8DF
:1020F000680702689207FAD5DFF860270B00DBB2A9
:1021000013600368DB07FCD51068C0B2704710B5D8
:1021100004000821DFF8500300F051FD2000C0B298
:10212000FFF7E4FF10BD10B504000821DFF8380305
:1021300000F041FD2000C0B2FFF7D8FF10BD10B580
:1021400004000821DFF8200300F035FD200080B2F4
:10215000000AC0B2FFF7CAFF2000C0B2FFF7C6FFF7
:1021600010BDF8B504000D0016001F002A20FFF76F
:10217000CEFF200080B2FFF7E2FF300080B2FFF711
:10218000DEFF2B20FFF7C3FF280080B2FFF7D7FF49
:10219000380080B2FFF7D3FF2C20FFF7B8FFF1BD66
:1021A00070B504007F239F2200210020FFF7D9FF94
:1021B0000025280080B2A0280DDA0020060030009B
:1021C00080B2802805DA200080B2FFF7B8FF761CC5
:1021D000F5E76D1CEDE770BD38B504000D002B0070
:1021E0009BB2220092B2290089B2200080B2FFF790
:1021F000B8FF31BD70B504000D0016002B009BB276
:10220000220092B2290089B2200080B2FFF7A9FF14
:10221000300080B2FFF793FF70BD2DE9F843040052
:102220000D00160000273800C0B2102832DA55FA27
:1022300087F39BB2E21D92B255FA87F189B2200072
:1022400080B2FFF78EFFDFF818063100C9B209012E
:1022500008443900C9B20844B0F5007000788146DE
:10226000002080464046C0B2082811DA5FEAC970F3
:1022700004D54FF6FF70FFF762FF02E00020FFF782
:102280005EFF5FFA89F95FEA590918F10108E9E789
:102290007F1CC8E7BDE8F1832DE9F84F05000E006B
:1022A000170098460A9C5FF000094846C0B2102803
:1022B00034DA56FA89F39BB2EA1D92B256FA89F1E2
:1022C00089B2280080B2FFF74CFFDFF8940539008F
:1022D000C9B2090108444946C9B20844B0F50070C2
:1022E00000788346002082465046C0B2082812DAA1
:1022F0005FEACB7004D5404680B2FFF720FF03E0D1
:10230000200080B2FFF71BFF5FFA8BFB5FEA5B0BDD
:102310001AF1010AE8E719F10109C6E7BDE8F18FF2
:10232000F8B504000D00160000273800C0B2305C7C
:1023300000280FD03800C0B2325CADB2290189B29A
:102340003800C0B2C00010FA84F080B2FFF765FF19
:102350007F1CEAE7F1BD2DE9FC4104000D001600E9
:102360001F005FF000084046C0B2305C002815D066
:10237000BDF8200000903B009BB24046C0B2325CEA
:10238000ADB2290189B24046C0B2C00010FA84F053
:1023900080B2FFF781FF18F10108E4E7BDE8F3819F
:1023A0002DE9F84F04000D00160000273800C0B2D8
:1023B000112857DA55FA87F39B1C9BB214F10F02D0
:1023C00092B255FA87F1891C89B2200080B2FFF7DA
:1023D000C8FE2220DFF88C143200D2B242430A44F5
:1023E0003B00DBB212F8132092463200D2B200FB5F
:1023F00002F008443900C9B200EB4100407883463E
:102400005FF000094846C0B2082811DA5FEACA70D6
:1024100004D54FF6FF70FFF792FE02E00020FFF7B1
:102420008EFE5FFA8AFA5FEA5A0A19F10109E9E7B2
:102430005FF000084046C0B2082811DA5FEACB70AE
:1024400004D54FF6FF70FFF77AFE02E00020FFF799
:1024500076FE5FFA8BFB5FEA5B0B18F10108E9E798
:102460007F1CA3E7BDE8F18F000C02402DE9FC4181
:1024700004000D0016003000C0B2642190FBF1F0A2
:102480008DF800003000C0B20A2190FBF1F00A2163
:102490006F4690FBF1F201FB120078703000C0B281
:1024A0000A2190FBF1F201FB12008DF802005FF0AF
:1024B00000084046C0B2032813DA4046C0B23A5C76
:1024C0003032D2B2ADB2290189B24046C0B2401C0E
:1024D000C00010FA84F080B2FFF79FFE18F10108E7
:1024E000E7E7BDE8F3812DE9FC4104000D0016008B
:1024F000300000B200280AD52D22ADB2290189B2E0
:10250000200080B2FFF789FE36B2764207E0202233
:10251000ADB2290189B2200080B2FFF77EFE300003
:1025200000B242F2107190FBF1F08DF80000300023
:1025300000B24FF47A7190FBF1F00A216F4690FBE4
:10254000F1F201FB12007870300000B2642190FBC0
:10255000F1F00A2190FBF1F201FB12008DF802006C
:10256000300000B20A2190FBF1F00A2190FBF1F259
:1025700001FB12008DF80300300000B20A2190FB2D
:10258000F1F201FB12008DF804005FF000084046F4
:10259000C0B2052813DA4046C0B23A5C3032D2B23B
:1025A000ADB2290189B24046C0B2401CC00010FA49
:1025B00084F080B2FFF731FE18F10108E7E7BDE8CB
:1025C000F3812DE9FC4104000D001600300080B2BB
:1025D00042F2107190FBF1F08DF80000300080B2F3
:1025E0004FF47A7190FBF1F00A216F4690FBF1F203
:1025F00001FB12007870300080B2642190FBF1F092
:102600000A2190FBF1F201FB12008DF8020030006C
:1026100080B20A2190FBF1F00A2190FBF1F201FB5C
:1026200012008DF80300300080B20A2190FBF1F215
:1026300001FB12008DF804005FF000084046C0B2B4
:10264000052813DA4046C0B23A5C3032D2B2ADB29D
:10265000290189B24046C0B2401CC00010FA84F083
:1026600080B2FFF7DAFD18F10108E7E7BDE8F38172
:102670002DE9F04104000D0016001F00002031007C
:1026800089B211FA84F1A12907DA210089B2A029BF
:1026900003DA290089B2802900DB14E05FF000082A
:1026A0004046C0B2310080B289B288420BD23A00B3
:1026B00092B2290089B254FA88F080B2FFF79AFDED
:1026C00018F10108ECE7BDE8F0812DE9F0410400C4
:1026D0000D0016001F000020310089B211FA85F1AB
:1026E000812907DA210089B2A02903DA290089B2F9
:1026F000802900DB14E05FF000084046C0B23100E2
:1027000080B289B288420BD23A0092B255FA88F16F
:1027100089B2200080B2FFF76DFD18F10108ECE7E7
:10272000BDE8F0812DE9F04105000E001700984644
:10273000069C3800C0B250FA85F0A1280DDA404658
:10274000C0B250FA86F0812807DA2800C0B2A0286B
:1027500003DA3000C0B2802800DB37E023009BB2F0
:102760003A00D2B292B23100C9B289B22800C0B2E6
:1027700080B2FFF77DFF23009BB23A00D2B292B243
:102780004046C0B250FA86F189B22800C0B280B289
:10279000FFF76EFF23009BB24246D2B292B23100E5
:1027A000C9B289B22800C0B280B2FFF78EFF230001
:1027B0009BB24246D2B292B23100C9B289B238005D
:1027C000C0B250FA85F080B2FFF77FFFBDE8F0811C
:1027D0002DE9F04705000E0017009846089C3800C8
:1027E000C0B250FA85F0A1280DDA4046C0B250FAC6
:1027F00086F0812807DA2800C0B2A02803DA30006A
:10280000C0B2802800DB25E05FF000094846414661
:10281000C0B2C9B288421DD200208246504639005B
:10282000C0B2C9B2884212D24846C0B250FA86F14C
:1028300089B25046C0B250FA85F080B2FFF7CCFCA6
:10284000200080B2FFF77BFC1AF1010AE6E719F1DC
:102850000109DBE7BDE8F087085001400C5001405A
:1028600088A30008CCBB0008F8B54FF4406001F025
:1028700003F940F6014001F0FFF840F6024001F094
:10288000FBF840F6034001F0F7F840F6044001F091
:10289000F3F840F6054001F0EFF840F6064001F08D
:1028A000EBF8714C4FF4604300220021200000F04F
:1028B0001FF96E4D4FF44E4300220021280000F016
:1028C00017F96B4E4FF4E27300220021300000F044
:1028D0000FF9684F4FF48C5300220121380000F0AB
:1028E00007F94FF48C5302220021380000F033F92D
:1028F0008021380000F05FF94FF48071380000F05B
:102900005EF94FF48051380000F059F9232300227A
:102910000121200000F0ECF82323022200212000F6
:1029200000F019F90121200000F045F902212000F2
:1029300000F041F92021200000F041F94E4C4FF405
:10294000005300220121200000F0D2F84FF4005380
:1029500002220021200000F0FEF84FF40051200078
:1029600000F02DF99B2300220121280000F0C0F87F
:102970009B2302220021280000F0EDF81B212800F3
:1029800000F01DF98021280000F019F93B4C4FF4AC
:10299000006300220121200000F0AAF84FF4006338
:1029A00002220021200000F0D6F84FF40061200040
:1029B00000F005F948F2180423000022012130003C
:1029C00000F096F8230002220021300000F0C3F846
:1029D0000821300000F0F3F81021300000F0EFF88B
:1029E0004FF40041300000F0EAF841F20E1001F01F
:1029F00043F800220221282001F031FA0E210120A3
:102A000001F0A8FA002200214FF4804001F0F2FA10
:102A10004FF4804001F036FB282001F085FAF1BD2B
:102A200070B5124C4FF40071200000F0CCF8050096
:102A30004FF48061200000F0C6F806004FF40061FA
:102A4000200000F0C0F8B60016EBC50616EB4006F5
:102A50004FF48041200000F0B6F88619F64316F0D6
:102A60000F06300070BD000000040240000C024060
:102A7000001802400000024000080240001402401A
:102A800080B541F20E1000F0F7FF0122012128204D
:102A900001F0E5F90E21012001F05CFA022200218B
:102AA0004FF4804001F0A6FA4FF4804001F0EAFABA
:102AB0000D21012001F04EFA022200214FF40050B6
:102AC00001F098FA4FF4005001F0DCFA01220121E4
:102AD000082001F0C4F90221062001F03BFA02228D
:102AE0000021042001F086FA042001F0CBFA01BD98
:102AF000F0B4066810F10C04276800252C00A4B27D
:102B0000102C22D21C00EC40E4071CD55FF0030C13
:102B10002C00E4B264001CFA04F4A64334002E0036
:102B2000F6B2760011FA06F626432C00E4B26400F1
:102B30001CFA04FC37EA0C073C002F00FFB27F00B0
:102B400012FA07F727436D1CD8E7066010F10C0452
:102B50002760F0BC7047F0B40C00E4B2012C05D142
:102B6000041D24681C43051D2C6004E0041D24681A
:102B70009C43051D2C6010F10804266800252C00DC
:102B8000A4B2102C12D21C00EC40E4070CD5032791
:102B90002C00E4B26400A740BE4334002E00F6B21D
:102BA000760012FA06F626436D1CE8E710F10804D9
:102BB0002660F0BC704710F118021160704710F1E8
:102BC000280211607047020012F1100000680842EC
:102BD00001D0012000E000207047F0B410F1200384
:102BE0001C6810F124031D68002633009BB2082BDB
:102BF00012D21300F340DB070CD50F273300DBB2F2
:102C00009B009F40BC4323003400E4B2A40011FAAF
:102C100004F41C43761CE8E708273B009BB2102B0A
:102C200014D21300FB40DB070ED50F2617F1F80373
:102C3000DBB29B009E40B5432B0017F1F805EDB2C7
:102C4000AD0011FA05F51D437F1CE6E710F12003E6
:102C50001C6010F124031D60F0BC704710F12C02C1
:102C60001160704738B5040020006C4988421ED0BE
:102C70006B49884224D06B49884233D06A498842E4
:102C800039D06A4988423FD06949884245D069496C
:102C9000884203D0684988421BD047E040F60415BB
:102CA000280000F0FDFE280000F00EFF3EE040F698
:102CB0001105280000F0F4FE280000F005FF35E0C3
:102CC00040F61205280000F0EBFE280000F0FCFEA4
:102CD0002CE040F60515280000F0E2FE280000F088
:102CE000F3FE23E040F61305280000F0D9FE28008B
:102CF00000F0EAFE1AE040F61405280000F0D0FECD
:102D0000280000F0E1FE11E040F61E05280000F06A
:102D1000C7FE280000F0D8FE08E040F61F05280096
:102D200000F0BEFE280000F0CFFEFFE731BD2DE928
:102D3000F84304000D00002600275FF000085FF054
:102D400000092000354988421FD03549884221D0EA
:102D50003449884223D03449884225D033498842B7
:102D600027D03349884229D03249884203D032499A
:102D7000884205D027E0032000F0BEFF060022E0D5
:102D8000032000F0B9FF06001DE0022000F0B4FFB0
:102D9000060018E0022000F0AFFF060013E002205A
:102DA00000F0AAFF06000EE0022000F0A5FF0600DA
:102DB00009E0022000F0A0FF060004E0022000F07D
:102DC0009BFF0600FFE714F10C000068000412D519
:102DD0002800400810EB4600B0FBF5F24FF6F0700B
:102DE0001040C2F3420151EA00039BB214F1080CF7
:102DF000CCF800300FE016EB5500B0FBF5F24FF6C3
:102E0000F070104012F00F0151EA00039BB214F170
:102E1000080CCCF80030BDE8F1830000004400400D
:102E200000480040004C0040005000400078004046
:102E3000007C0040001001400014014010F10C0221
:102E4000126832F4C06210F10C031A6010F10C0227
:102E500012680A4310F10C031A60704710F10C025B
:102E6000126832F4805210F10C031A6010F10C0257
:102E700012680A4310F10C031A60704710F1100237
:102E8000126832F4405210F110031A6010F110026F
:102E900012680A4310F110031A60704710F10C0118
:102EA000096851F4005110F10C021160704710B420
:102EB000002210F10C031B6833F008030B4310F1E0
:102EC0000C04236010BC704710B4002210F10C03F6
:102ED0001B6833F004030B4310F10C04236010BC97
:102EE00070470A0092B2D205D20D031D1A607047D6
:102EF000001D0068C005C00D704710F11402126873
:102F000032F4807210F114031A6010F11402136885
:102F100011F48072134310F114021360704710F122
:102F20001402126832F4007210F114031A6010F1E6
:102F30001402136811F40072134310F114021360A9
:102F4000704710F11402126832F0800210F114037D
:102F50001A6010F11402136811F08002134310F18B
:102F60001402136070470200080000B2C0F3891019
:102F70008018006811F01F03D840C00701D5012058
:102F800000E00020704730B40A0012B2C2F3891387
:102F90001B180A0012B2C2F3891212181468012514
:102FA00011F01F029540AC431C6030BC704730B438
:102FB0000A0012B2C2F389131B180A0012B2C2F33C
:102FC000891212181468012511F01F0295402C4334
:102FD0001C6030BC704730B40A0012B2C2F38913CF
:102FE0001B180A0012B2C2F38912121814680125C4
:102FF00011F01F029540AC431C6030BC7047F0B428
:103000000400002000250123C1F38912121916685B
:1030100011F01F0213FA02F2324014EB9156366897
:103020000F003F0C17F01F07BB403340002B03D0AD
:10303000002A01D0012000E00020F0BC7047F0B46D
:103040000246106895681318506803EB5004C007D7
:1030500048BF4D44A3422DD013F8016B16F0030076
:1030600004BF13F8010BC01C31090F2907D113F855
:10307000011B0F3103E013F8017B05F8017B401EB3
:10308000F9D10029E6D013F8010BC6F38106032E0F
:1030900008BF13F8016B00EB0620404228440026CD
:1030A000B71E8F421EBF10F8017B05F8017B761C0E
:1030B000F6D1CFE7F0BC02F10C00704770B5040008
:1030C0000D002E002000C0B2002805D0022833D009
:1030D0001AD3032848D05FE040F24C40290089B25F
:1030E000814200D20600280080B240F26D71884211
:1030F00002D340F26C700600320092B201215FF000
:10310000804001F01AFB47E040F24C40290089B2B0
:10311000814200D20600280080B240F26D718842E0
:1031200002D340F26C700600320092B200215FF0D0
:10313000804001F002FB2FE040F24C40290089B2B0
:10314000814200D20600280080B240F26D718842B0
:1031500002D340F26C700600320092B202215FF09E
:10316000804001F0EAFA17E040F24C40290089B2B1
:10317000814200D20600280080B240F26D71884280
:1031800002D340F26C700600320092B203215FF06D
:10319000804001F0D2FAFFE770BDF8B504000D00E1
:1031A0002E00280080B21F2801DB1E200600200010
:1031B000C0B2002802D001280DD019E00D4F320016
:1031C00092B20221380001F0B8FA0022032138003F
:1031D00001F0B3FA0CE0074F00220221380001F0A1
:1031E000ACFA320092B20321380001F0A6FAFFE7F0
:1031F000F1BD00000000014070B418220B00DBB2EA
:1032000002FB030310330C00E4B202FB040410348D
:103210002468640864001C600B00DBB202FB03033B
:10322000103300241C600B00DBB202FB03031433D9
:1032300000241C600B00DBB202FB030318330024E4
:103240001C600B00DBB202FB03031C3300241C6078
:103250000B00DBB202FB0303203300241C600B00D5
:10326000DBB202FB03022432212313600A00D2B234
:10327000042A13DA10F1080213683D240D00EDB2A0
:1032800006260A00D2B2C2F34002920006FB0525D0
:10329000AC40234310F10802136013E0091F10F142
:1032A0000C0213683D240D00EDB206260A00D2B2CE
:1032B000C2F34002920006FB0525AC40234310F107
:1032C0000C02136070BC7047002101600121416055
:1032D000002181600121C160002101610121416162
:1032E000002181610021C16100210162704770B439
:1032F00018240B00DBB204FB030324330D00EDB2F2
:1033000004FB050524352D6835F004051D600B0010
:10331000DBB204FB0303183315681D600B00DBB23E
:1033200004FB03031C3395681D600B00DBB204FB38
:1033300003031433D5691D600B00DBB204FB0303E8
:1033400010331D68424B1D4013691D43136955EA34
:103350008305136A1D4393691D430B00DBB204FB15
:10336000030310331D605368002B0ED10B00DBB23A
:1033700004FB030310330E00F6B204FB06061036FE
:10338000366856F400761E601FE05368012B0ED19C
:103390000B00DBB204FB030310330E00F6B204FB98
:1033A00006061036366836F400761E600DE00B0017
:1033B000DBB204FB030310330E00F6B204FB060677
:1033C0001036366856F400461E60D368002B0ED1C6
:1033D0000B00DBB204FB030310330E00F6B204FB58
:1033E00006061036366856F480661E600DE00B0047
:1033F000DBB204FB030310330E00F6B204FB060637
:103400001036366836F480661E605369002B0ED184
:103410000B00DBB204FB030310330E00F6B204FB17
:1034200006041034246854F480741C600DE00B0012
:10343000DBB204FB030310330E00F6B204FB0604F8
:103440001034246834F480741C6070BC7047000031
:103450003F87FCFF10B418220B00DBB202FB030312
:1034600010330C00E4B202FB04021032126832F492
:1034700080721A6010BC704710B418220B00DBB2C7
:1034800002FB030310330C00E4B202FB040210320F
:10349000126852F001021A6010BC704710B4182272
:1034A0000B00DBB202FB030310330C00E4B202FB9F
:1034B000040210321268520852001A6010BC7047A1
:1034C00030B418240B00DBB204FB030310331B6879
:1034D00033F060631500EDB253EA45630D00EDB2C1
:1034E00004FB05041034236030BC704730B4802ADC
:1034F0000ED018230C00E4B203FB040410340D00BA
:10350000EDB203FB050310331B68134323600DE08A
:1035100018230C00E4B203FB040424340D00EDB2C4
:1035200003FB050324331B681343236030BC70473F
:10353000F0B505000B001400002100221E00180049
:10354000C0B2042880F29E802000012808D0042800
:1035500023D008283ED0102859D0202874D090E0DD
:103560002F689C465FFA8CFC5FF0060E1800C0B214
:10357000C0F3400080000EFB0C0C14FA0CFC1CEA9B
:1035800007073A001F00FFB2182000FB0757243737
:10359000386810F08000010017E12F689C465FFA40
:1035A0008CFC5FF0060E1800C0B2C0F34000800033
:1035B0000EFB0C0C14FA0CFC1CEA07073A001F0067
:1035C000FFB2182000FB07571037386810F00200D0
:1035D0000100FAE02F689C465FFA8CFC5FF0060E53
:1035E0001800C0B2C0F3400080000EFB0C0C14FAAF
:1035F0000CFC1CEA07073A001F00FFB2182000FB72
:1036000007571037386810F004000100DDE02F681C
:103610009C465FFA8CFC5FF0060E1800C0B2C0F347
:10362000400080000EFB0C0C14FA0CFC1CEA07078F
:103630003A001F00FFB2182000FB07571037386808
:1036400010F008000100C0E02F689C465FFA8CFC77
:103650005FF0060E1800C0B2C0F3400080000EFB01
:103660000C0C14FA0CFC1CEA07073A001F00FFB20E
:10367000182000FB07571037386810F010000100C1
:10368000A3E0A2E0361F2000012808D0042824D09F
:10369000082840D010285CD0202878D095E0281D3C
:1036A0000768B4465FFA8CFC5FF0060E3000C0B2CB
:1036B000C0F3400080000EFB0C0C14FA0CFC1CEA5A
:1036C00007073A001F00FFB2182000FB07572437F6
:1036D000386810F08000010077E0281D0768B446C4
:1036E0005FFA8CFC5FF0060E3000C0B2C0F3400001
:1036F00080000EFB0C0C14FA0CFC1CEA07073A00C5
:103700001F00FFB2182000FB07571037386810F071
:103710000200010059E0281D0768B4465FFA8CFCDE
:103720005FF0060E3000C0B2C0F3400080000EFB18
:103730000C0C14FA0CFC1CEA07073A001F00FFB23D
:10374000182000FB07571037386810F004000100FC
:103750003BE0281D0768B4465FFA8CFC5FF0060E5C
:103760003000C0B2C0F3400080000EFB0C0C14FA15
:103770000CFC1CEA07073A001F00FFB2182000FBF0
:1037800007571037386810F0080001001DE0281DA9
:103790000768B4465FFA8CFC5FF0060E3000C0B2DA
:1037A000C0F3400080000EFB0C0C14FA0CFC1CEA69
:1037B00007073A001F00FFB2182000FB0757103719
:1037C000386810F010000100FFE7002A03D000293C
:1037D00001D0012000E00020F0BD70B40B00DBB28E
:1037E000042B13DA10F108031C680D00EDB2062655
:1037F0000B00DBB2C3F340039B0006FB053512FA56
:1038000005F52C4310F108031C6013E0091F10F1AB
:103810000C031C680D00EDB206260B00DBB2C3F3EF
:1038200040039B0006FB053512FA05F52C4310F109
:103830000C031C6070BC7047002848BF40427047B2
:1038400010F0004160B148BF4042B0FA80F29040B1
:10385000D21CC2F5846241EA025202EBD02140053B
:1038600070478268521C8260426832B10268531C01
:10387000036011704168491E4160704700B551EC0A
:10388000100B00F003F841EC100B00BD40F2FF7C80
:103890000B0D4DD0634566D230B421EA035141F49B
:1038A000801103F2FD3C5FEA5C0C01D30018494132
:1038B000890041EA907180004FF440140023E20235
:1038C000D50AB1F5100107D46D081DD2091B641982
:1038D00000184941491BF7D56D080AD20919641B24
:1038E00000184941491BEFD56D08F7D301E0520894
:1038F00017D0C01861419B1AAC4100184941801A89
:10390000A941F4D452080AD0C01AA1419B186C41B5
:1039100000184941801AA941E9D45208F4D15B1C2E
:103920006C4161084FEA330001EB0C5130BC704729
:1039300050EA0103FBD030B4B1FA81F311B9B0FA07
:1039400080F41B190B3BB3F120042FBF00FA04F1E4
:103950009940C3F1200420FA04F438BF2143984071
:10396000D3F101039DE7634514BF50EA410CDEE744
:1039700011F5801FDBD8D943AFF300807047026890
:10398000531C036011707047C1F30A5340F21E428A
:10399000D31A0CDDCA0283F3070342EA505242F005
:1039A0000042DA4002EBE17282EAE17070476FEAAE
:1039B000E17203F2E13008B182F0004070472E005E
:1039C00010B4020052B2002A09D50A01234B0400A8
:1039D00064B214F00F04234403F8042C04E00A0139
:1039E0001F4B040064B21A5510BC704710B5040098
:1039F000601EB0F1807F01D301200EE0601E1949E6
:103A000008600F215FF0FF30FFF7DAFF0020164952
:103A10000860072015490860002010BD80B51448D3
:103A200000684FF47A71B0FBF1F0FFF7DFFF002878
:103A300000D0FEE700215FF0FF30FFF7C1FF01BDBE
:103A40000C4A106011680029FCD1704709490868C8
:103A5000002802D00868401E0860704718ED00E09A
:103A600000E400E014E000E018E000E010E000E016
:103A700000010020F477022010B4DFF8A823010031
:103A800009B212EB91110B68012410F01F018C4058
:103A90002343010009B212EB9112136010BC70476E
:103AA00010B4DFF88023010009B212EB91110B680A
:103AB000012410F01F018C402343010009B212EBD6
:103AC0009112136010BC704710B4DFF85823010046
:103AD00009B212EB91110B68012410F01F018C4008
:103AE000A343010009B212EB9112136010BC70479E
:103AF000DFF84023116831F4407150EA010313608C
:103B000070477FF08071884205D1DFF824130A687E
:103B100002400A6004E0DFF818130A6802430A60F2
:103B20007047F8B50400002500260027200000B2E9
:103B3000002843D0102813D0182800F084801A28B9
:103B400000F097801C2800F0AA80B0F5E05F1DD03F
:103B5000B0F5E85F5FD043F21001884243D0B4E093
:103B60003800C0B2002809D14FF6FF70854205D059
:103B7000112000F041F907006D1CF1E7112000F061
:103B80003BF9002801D0012006009EE03800C0B2B9
:103B900000280AD17FF07040854206D041F60140EE
:103BA00000F02AF907006D1CF0E741F6014000F033
:103BB00023F9002801D00120060086E03800C0B2B9
:103BC000002808D1B5F5A06F05D0012000F014F948
:103BD00007006D1CF2E7012000F00EF9002801D06B
:103BE0000120060071E03800C0B200280AD1DFF8D9
:103BF0004802854206D043F2110000F0FDF80700AC
:103C00006D1CF0E743F2110000F0F6F8002801D037
:103C10000120060059E03800C0B200280AD1DFF8C0
:103C20001802854206D041F6015000F0E5F8070081
:103C30006D1CF0E741F6015000F0DEF8002801D0DD
:103C40000120060041E03800C0B2002809D1DFF8A9
:103C5000E801854205D0192000F0CEF807006D1C60
:103C6000F1E7192000F0C8F8002801D00120060073
:103C70002BE03800C0B2002809D1DFF8BC01854232
:103C800005D01B2000F0B8F807006D1CF1E71B20E1
:103C900000F0B2F8002801D00120060015E038003D
:103CA000C0B2002809D1DFF89001854205D01D205F
:103CB00000F0A2F807006D1CF1E71D2000F09CF851
:103CC000002801D001200600FFE73000C0B2F2BD9D
:103CD00010B4DFF85021010009B212EB91110B680A
:103CE000012410F01F018C402343010009B212EBA4
:103CF0009112136010BC70472DE9F04F8DB0040095
:103D0000002509A84D49102200F076FF07A84C496C
:103D1000D1E90023C0E9002305A84A49D1E90023DD
:103D2000C0E90023404A1068C0F38101002903D094
:103D3000022905D002D329E0434B28E0434B26E07B
:103D40003A48036813F03F0304930368C3F38813EE
:103D500003930368C3F301435B1C5B00019300689A
:103D600010F4800002900298B0F5800F02D137481D
:103D7000009001E0344800900098049BB0FBF3F3FE
:103D8000039843430198B3FBF0F300E02E4B106817
:103D9000C0F3031009AE16F800801E0036FA08F6CC
:103DA0001768C7F3822C07AF17F80C90370037FA63
:103DB00009F71268C2F3423E05AA12F80EA03200BB
:103DC00032FA0AF2A3465FFA8BFBBBF1000F07D071
:103DD000BBF1020F08D005D3BBF1030F06D007E0FB
:103DE0001D0005E0350003E03D0001E01500FFE7A0
:103DF00028000DB0BDE8F08F0100080000B2094AAC
:103E000012EB9012106811F01F02D040C00701D5CC
:103E1000012000E0002070470D48016851F08071DA
:103E20000160704700380240083802400438024000
:103E30008C38024070380240FFFF0F00BCC40008FD
:103E4000D0C50008D8C500080024F40000127A008C
:103E5000743802403A4901433A4A116070472DE9EB
:103E6000F84304000D00160000275FF000085FF023
:103E700000093448016811F4E061B1F5E06F02D146
:103E80000021042229E0016811F4E061B1F5C06F5E
:103E900002D10121032220E0016811F4E061B1F5B3
:103EA000A06F02D10221022217E0016811F4E06143
:103EB000B1F5806F02D1032101220EE0006810F4F9
:103EC000E060B0F5407F02D10421002205E04FF40C
:103ED000A060FFF7BFFF022102222B00DBB2D1F16D
:103EE000040083403000C0B25FF00F0CD2F1040E2A
:103EF0003CFA0EFC1CEA000003431B011248A446D6
:103F00005FFA8CFC00F80C305FF0010C14F01F001D
:103F10001CFA00FC0D48A6465FFA8EFE5FEA6E1E94
:103F200040F82EC0BDE8F183012210F01F018A4045
:103F300007490300DBB25B1141F823207047000002
:103F40000000FA050CED00E000E400E000E100E014
:103F500080E100E070B40A00D2B204240F2392FB87
:103F6000F4F504FB1522D2B292009340DB430A0021
:103F7000D2B204250400E4B292FBF5F605FB16224A
:103F8000D2B2920094400A00D2B2042592FBF5F21C
:103F9000002A05D0022A13D00AD3032A18D01FE022
:103FA000104A15681D40156015682543156017E017
:103FB0000D4A15681D4015601568254315600FE012
:103FC0000A4A15681D40156015682543156007E00D
:103FD000074A15681D401560156825431560FFE701
:103FE00070BC7047083801400C380140103801405F
:103FF00014380140F0B4254B1C6884431C60244CE9
:10400000256885432560234D2E6886432E60224E09
:104010003768874337600F00FFB2002F02D0012FAF
:1040200004D007E01C6804431C6003E023680343DA
:104030002360FFE71300DBB2002B03D0022B0FD06D
:1040400007D314E02B6803432B603368834333604A
:104050000DE02B6883432B6033680343336006E035
:104060002B6803432B60336803433360FFE7F0BCE6
:104070007047010009480068084201D0012000E0B3
:10408000002070470549086070470000003C01406F
:10409000043C0140083C01400C3C0140143C014000
:1040A00038B504002000B0F1804F40D0DFF8A815EB
:1040B000884245D0DFF8A41588424AD0DFF8A01521
:1040C00088424FD0DFF89C15884254D0DFF898150D
:1040D000884259D0DFF89415884200F08280DFF8DA
:1040E0009015884200F08680DFF88815884200F03D
:1040F0008A80DFF88415884210D0DFF88015884266
:104100004BD0DFF87C15884250D0DFF87815884214
:1041100055D0DFF8741588425AD07DE04FF4106016
:10412000FFF7BEFC4FF41060FFF7CEFC74E04FF4D5
:104130000060FFF7B5FC4FF40060FFF7C5FC6BE0D3
:1041400040F601052800FFF7ABFC2800FFF7BCFC98
:1041500062E040F602052800FFF7A2FC2800FFF706
:10416000B3FC59E040F603052800FFF799FC28004E
:10417000FFF7AAFC50E040F604052800FFF790FC8A
:104180002800FFF7A1FC47E040F605052800FFF7EF
:1041900087FC2800FFF798FC3EE040F60115280058
:1041A000FFF77EFC2800FFF78FFC35E04FF411602D
:1041B000FFF776FC4FF41160FFF786FC2CE040F629
:1041C00011152800FFF76CFC2800FFF77DFC23E0A9
:1041D00040F612152800FFF763FC2800FFF774FC77
:1041E0001AE040F606052800FFF75AFC2800FFF702
:1041F0006BFC11E040F607052800FFF751FC280092
:10420000FFF762FC08E040F608052800FFF748FCCD
:104210002800FFF759FCFFE731BD00210180002194
:104220004180002181804FF6FF7181600021C180B3
:1042300000210173704710B40A8810F128031A6036
:10424000DFF83434984212D0B0F1804F0FD0DFF84D
:10425000082490420BD0DFF80424904207D0DFF806
:104260000024904203D0DFF8142490420BD102685E
:1042700032F07002026004684A88144304600468E3
:104280008A88144304608A6810F12C042260DFF8E5
:10429000D42390420BD0DFF8D023904207D002689D
:1042A00032F4407202600468CA8814430460984281
:1042B00003D0DFF8C823904203D10A7B10F130030A
:1042C0001A6010F11402126852F0010210F1140386
:1042D0001A6010BC7047016851F00101016070471D
:1042E000016851F080010160704710F124021160F3
:1042F00070470A00D2B2012A08D110F144021268B4
:1043000052F4004210F144031A6007E010F1440235
:10431000126832F4004210F144031A607047002121
:10432000018000214180002181800021C180002185
:10433000018100214181704710B40B009BB2002B1A
:1043400007D0022B00F0D9806AD3032B00F0428102
:104350007EE110F120031B685B085B0010F1200474
:10436000236010F118031B689B089B0010F11804D0
:10437000236010F120031C6813881C4310F12003F4
:104380001C6010F120031B6833F0020310F12004BD
:10439000236010F120031C6893881C4310F1200354
:1043A0001C60B54B984202D0B44B984237D110F103
:1043B00020031B6833F0040310F12004236010F184
:1043C00020031C6853881C4310F120031C6010F16B
:1043D00020031B6833F0080310F12004236010F160
:1043E00020031C68D3881C4310F120031C60031DAC
:1043F0001B6833F48073041D2360031D1C6813893C
:104400001C43031D1C60031D1B6833F40073041D53
:104410002360031D1C6853891C43031D1C6017E1A6
:1044200010F120031B6833F0100310F12004236007
:1044300010F118031B6833F4407310F11804236063
:1044400010F120031B68148853EA041310F12004B0
:10445000236010F120031B6833F0200310F12004C7
:10446000236010F120031B68948853EA041310F1B1
:1044700020042360804B984202D0804B98423BD16D
:1044800010F120031B6833F0400310F12004236077
:1044900010F120031B68548853EA041310F1200420
:1044A000236010F120031B6833F0800310F1200417
:1044B000236010F120031B68D48853EA041310F121
:1044C00020042360031D1B6833F48063041D2360F4
:1044D000031D1B68148953EA8403041D2360031D14
:1044E0001B6833F40063041D2360031D1B6854899B
:1044F00053EA8403041D2360AAE010F120031B6823
:1045000033F4807310F12004236010F11C031B6846
:104510009B089B0010F11C04236010F120031B6812
:10452000148853EA042310F12004236010F12003BF
:104530001B6833F4007310F12004236010F1200392
:104540001B68948853EA042310F1200423604A4B2B
:10455000984202D0494B98423BD110F120031B688E
:1045600033F4806310F12004236010F120031B68F2
:10457000548853EA042310F12004236010F120032F
:104580001B6833F4006310F12004236010F1200352
:104590001B68D48853EA042310F120042360031D10
:1045A0001B6833F48053041D2360031D1B681489AA
:1045B00053EA0413041D2360031D1B6833F40053E6
:1045C000041D2360031D1B68548953EA0413041D52
:1045D00023603DE010F120031B6833F4805310F199
:1045E0002004236010F11C031B6833F4407310F1A6
:1045F0001C04236010F120031B68148853EA043361
:1046000010F12004236010F120031B6833F40053E1
:1046100010F12004236010F120031B68948853EAF2
:10462000043310F120042360134B984202D0134B43
:1046300098420CD1031D1B6833F48043041D236092
:10464000031D1B68148953EA8413041D2360FFE7CC
:1046500010BC70470000000000040040000800404B
:10466000000C004000100040001400400018004002
:10467000001C0040002000400000014000040140F8
:1046800000400140004401400048014010B40B00CC
:104690009BB2002B05D0022B28D014D3032B37D08C
:1046A00049E010F118031B6833F0700310F118048F
:1046B000236010F118031C6813009BB21C4310F117
:1046C00018031C6037E010F118031B6833F4E04353
:1046D00010F11804236010F118031B681400A4B231
:1046E00053EA042310F11804236024E010F11C03A2
:1046F0001B6833F0700310F11C04236010F11C03DD
:104700001C6813009BB21C4310F11C031C6012E0D8
:1047100010F11C031B6833F4E04310F11C04236008
:1047200010F11C031B681400A4B253EA042310F117
:104730001C042360FFE710BC70470B009BB2002BEA
:1047400005D0022B0BD006D3032B0CD00FE010F1B9
:1047500034031A600BE010F138031A6007E010F11F
:104760003C031A6003E010F140031A60FFE7704752
:1047700010B40B009BB2002B05D0022B28D014D311
:10478000032B37D049E010F118031B6833F00803FE
:1047900010F11804236010F118031C6813009BB279
:1047A0001C4310F118031C6037E010F118031B685C
:1047B00033F4006310F11804236010F118031B6830
:1047C0001400A4B253EA042310F11804236024E077
:1047D00010F11C031B6833F0080310F11C04236064
:1047E00010F11C031C6813009BB21C4310F11C0346
:1047F0001C6012E010F11C031B6833F4006310F11D
:104800001C04236010F11C031B681400A4B253EABB
:10481000042310F11C042360FFE710BC7047002143
:10482000018001214180002181800021C1807047E9
:1048300070B504000D001600280080B2002807D0D3
:10484000022800F08B8045D3032800F0CA800CE1D9
:1048500014F1200000684008400014F120010860B5
:1048600014F12000006830F00A0014F12001086003
:1048700014F1200001683088014314F12000016028
:1048800014F1180000688008800014F11801086015
:1048900014F1180001687088014314F118000160D8
:1048A00014F11800006830F0F00014F118010860ED
:1048B00014F118000068F18850EA011014F1180191
:1048C000086014F12000006850F0010014F120018C
:1048D0000860CAE014F12000006830F0100014F104
:1048E0002001086014F12000006830F0A00014F1ED
:1048F0002001086014F120000068318850EA01109E
:1049000014F12001086014F11800006830F44070C0
:1049100014F11801086014F118000068718850EA59
:10492000012014F11801086014F11800006830F437
:10493000704014F11801086014F118000068F18843
:1049400050EA013014F11801086014F120000068E9
:1049500050F0100014F12001086086E014F12000EE
:10496000006830F4807014F12001086014F1200018
:10497000006830F4206014F12001086014F1200078
:104980000068318850EA012014F12001086014F118
:104990001C0000688008800014F11C01086014F1FC
:1049A0001C0001687088014314F11C00016014F1BF
:1049B0001C00006830F0F00014F11C01086014F1D4
:1049C0001C000068F18850EA011014F11C01086015
:1049D00014F12000006850F4807014F12001086088
:1049E00043E014F12000006830F4805014F12001FD
:1049F000086014F12000006830F4005014F1200128
:104A0000086014F120000068318850EA013014F188
:104A10002001086014F11C00006830F4407014F1AB
:104A20001C01086014F11C000068718850EA012024
:104A300014F11C01086014F11C00006830F470408F
:104A400014F11C01086014F11C000068F18850EAA0
:104A5000013014F11C01086014F12000006850F4CA
:104A6000805014F120010860FFE7B288290089B264
:104A7000200000F001F870BD10B40B009BB2002BB9
:104A800005D0022B28D014D3032B37D049E010F1E6
:104A900018031B6833F00C0310F11804236010F1A5
:104AA00018031C6813009BB21C4310F118031C6010
:104AB00037E010F118031B6833F4406310F1180459
:104AC000236010F118031B681400A4B253EA0423F6
:104AD00010F11804236024E010F11C031B6833F06C
:104AE0000C0310F11C04236010F11C031C6813005C
:104AF0009BB21C4310F11C031C6012E010F11C035C
:104B00001B6833F4406310F11C04236010F11C0394
:104B10001B681400A4B253EA042310F11C042360A0
:104B2000FFE710BC704730B410F108042468E408B3
:104B3000E40010F108052C6010F1080424680C430F
:104B400010F108052C6010F118042568164C25405A
:104B500010F11804256010F11804256840F20114C2
:104B6000254310F11804256010F12004246834F066
:104B70000A0410F120052C6010F12004246834F0A0
:104B8000A00410F120052C6010F120042568140009
:104B9000A4B225431C00A4B255EA041510F1200468
:104BA000256030BC70470000FCFCFFFF030013F1E0
:104BB0000C0002680A4013F110000068084203D09C
:104BC000002A01D0012000E000207047CA4310F104
:104BD00010031A607047000062B38B0708D0521EA2
:104BE00011F8013B00F8013B00F024808B07F6D15F
:104BF000830740F0208000BF103A07D330B4B1E8FB
:104C00003810103AA0E83810F9D230BC530724BF4E
:104C1000B1E80810A0E8081044BF51F8043B40F880
:104C2000043BD20724BF31F8022B20F8022B44BFEB
:104C30000B7803707047121F17D35B0009D151F82E
:104C4000043B20F8023B1B0C121F20F8023BF6D25B
:104C50000BE051F8043B00F8013B1B0A20F8023B33
:104C60001B0C121F00F8013BF3D238BF121D521E5D
:104C700024BF11F8013B00F8013BF8D87047000051
:104C800040F0200070472DE9F14FB0B092460491FA
:104C90000DF142013A9A2B9199464A7000200AE0A0
:104CA0001AF8011B0498309A90470028049000F0ED
:104CB00044860D98401C0D909AF8000058B12528A4
:104CC000EED10020002100220790089109920A915C
:104CD0000B920C9104E00D9800F031BE41F00101FF
:104CE0001AF8010F2028F9D023280CD02B2804D043
:104CF0002D2805D0302809D00BE041F00201EFE764
:104D000041F00401ECE741F00801E9E741F010014E
:104D1000E6E72A280FD1D9F8002052F8040BC9F889
:104D2000002000280F9003D540420F9041F004016D
:104D30000AF1010A14E00F92DFF8082C0AE00F9B39
:104D4000934205DA03EB830400EB440030380F9004
:104D50000AF1010A9AF80000A0F130030A2BEED301
:104D60009AF800202E2A03D04FF0FF300E9029E051
:104D70001AF8010F2A2809D1D9F8002052F8040B9B
:104D8000C9F800200E900AF1010A1BE02D280CBF83
:104D90000AF1010A002000220E92DFF8A84B0BE076
:104DA00040B90E9BA34205DA03EB830502EB4502F3
:104DB000303A0E920AF1010A9AF80020A2F130036B
:104DC0000A2BEDD3ADF840100FF67C309AF80010A6
:104DD00000F0BEFE08B11AF8010B8DF842009DF8F4
:104DE0004200682805D19AF8001068290CD1622089
:104DF00006E06C2804BF9AF800106C2904D17120D9
:104E00008DF842000AF1010A12AA06921AF801BBB3
:104E1000BBF125002CD01C3800F09781001F022820
:104E200040F29381133800F0BA84093800F08D8184
:104E3000801E00F04F85401E00F0FC84401E0228BA
:104E400040F28381001F00F0F584401F00F0F280E3
:104E5000401E00F0A484401E00F0DA80C01E0ED078
:104E6000801E00F09C84C01E00F0998400F03DBDBF
:104E70000122252107928DF8481000F042BDD9F893
:104E8000000050F8044BC9F80000002C059440F0D5
:104E9000AB802B994878002800F0A1804FF0FF34B8
:104EA0000FF6AC2000F060FE241A40F0468500F0BA
:104EB00028BD01236A4602A9304600F00DFE0028F5
:104EC00040F03B85641EF4D13096079C12AF74B15C
:104ED000309E17F8011B0498B0470028049000F09A
:104EE0002C850D98401C641E0D90F2D130960A9CC2
:104EF0003021002C8DF800100CDD309E01236A4615
:104F000002A9304600F0E8FD002840F01685641E36
:104F1000F4D13096059F089C74B1309E17F8011BA0
:104F20000498B0470028049000F007850D98401CB5
:104F3000641E0D90F2D130960B9C3021002C8DF820
:104F400000100CDD309E01236A4602A9304600F0B5
:104F5000C3FD002840F0F184641EF4D1309605981A
:104F60000899099C471874B1309E17F8011B0498E2
:104F7000B0470028049000F0E0840D98401C641EA7
:104F80000D90F2D130960C9C3021002C8DF8001041
:104F90000CDD309E01236A4602A9304600F09CFDDC
:104FA000002840F0CA84641EF4D130969DF8400079
:104FB00041077FF581AE2020002D8DF800007FF79E
:104FC0007BAE309C01236A4602A9204600F084FD96
:104FD000002840F0B2846D1EF4D130946CE60FF6D8
:104FE0005830059000F08DBC0E9D002D04D5204654
:104FF00000F0DAFD044608E02A460021204600F0D1
:10500000EFFD002814BF041B2C46089400F079BC67
:10501000D9F8001051F8040BC9F8001020F0000274
:10502000002121F0FF33CDE9022312AC0594782151
:1050300000F04CBC2B99487820B14FF0FF340FF6AC
:10504000C8202FE79DF84200622860D0682817D05A
:105050006A283FD06C2806D0712847D074282CD0FD
:105060007A281DD062E0D9F8001051F8040BC9F875
:105070000010002866D14FF0FF340FF6A42011E78E
:10508000D9F8001051F8040BC9F8001020B94FF0FE
:10509000FF340FF68C2005E70D99018000F031BC3C
:1050A000D9F8001051F8040BC9F80010002849D1B4
:1050B0004FF0FF340FF66820F4E6D9F8001051F8ED
:1050C000040BC9F8001000283CD14FF0FF340FF654
:1050D0005020E7E6D9F8001051F8040BC9F8001089
:1050E00080B94FF0FF340FF63820DBE6D9F8001016
:1050F00051F8040BC9F8001020B94FF0FF340FF637
:105100002020CFE60D9AD317C0E90023F9E3D9F8A0
:10511000001051F8040BC9F8001020B94FF0FF340B
:105120000FF6FC10BEE60D990170EAE3D9F8001005
:1051300051F8040BC9F8001020B94FF0FF340FF6F6
:10514000E010AFE60D990160DBE39DF842004C28CA
:1051500007BFD9F80010CA1DD9F80000C21D22F0FF
:105160000702C9F80020D2E900010832C9F800207E
:10517000CDE90201C80F02D007982D210AE0BDF841
:105180004000810702D507982B2103E0C00705D511
:105190000798202112AA1154401C079012A80799C1
:1051A0004BF0200300EB010CDDE90201CDE92C01FD
:1051B000612BCDF814C021AC0BD00E98002848BF4D
:1051C000062105D404BF4BF02000672801D101213E
:1051D0000E91DDE902014F0047EAD0777E15FF17F7
:1051E0004FF0FF32974208BF964210D1090341EABF
:1051F00010510003002908BF002808D0ABF1610559
:1052000003211A2D089118D30FF6341110E0DDE9AF
:1052100002014A00521512F1010F11D108030FD1FA
:10522000ABF1610503211A2D08911FD30FF6181158
:1052300003226046FFF7D0FC63E30FF60011F7E7A7
:10524000DDE902016A4600F0F7FCCDE902014BF00E
:105250002000612811D1059830220270811C05912F
:10526000BBF1610F0CBF7821582102E00FF6D40189
:10527000DEE741700798801C0790DDE9020120F00D
:10528000000231F0004308BF002A02D100260025A9
:1052900042E14BF02008B8F1610F40F092800E9986
:1052A000002947BF21200190491C0191019FDDE9A0
:1052B0002C017F1C00220023DDE9024500F0F4FCF4
:1052C00038BF85F0004500988DF88420001F002F1E
:1052D00000900DF1850632DD20462946002200238C
:1052E00000F0FCFC2BD21C2200F012FD04460D46FF
:1052F000FEF74AFBFF1F002F804609DDFEF7A0FAEC
:1053000002460B462046294600F05EFE04460D4646
:10531000F01D0721B8F1000F0CDD491E5EBF08F03B
:105320000F0200F8012D4FEA2818F3D502E0002201
:1053300000F8012D491EFAD5C61D002FCCDC0DF159
:105340008500361A01980DF185048642D8BF304693
:1053500000282FD4B04206DA0DF185010A5C082A34
:10536000A8BF0F2100DA0021024621AB134400E060
:10537000401E13F80159521E8D42F9D00F2904D155
:105380000DF185018B5C5B1C8B54002A04D50099C0
:10539000091D21AC401C0091411E0BD462181378EA
:1053A0003033DDB23A2DA4BF5B443A3B491E02F8CC
:1053B0000139F4D50E9A002A40F1AC80411E0E91BD
:1053C000A8E00099DFF8002747F29750414391FB8E
:1053D000F2F20092DDE92C45C2F10702002A25F025
:1053E000004504DD2046294600F04AFB0BE052420E
:1053F0000020DFF8D81600F043FB02460B4620469B
:10540000294600F053FE04460D46B8F1660F06BF6C
:10541000009F0A3706270E983F18142FC8BF14277D
:1054200030208DF884000DF18506002F34DD2046F4
:10543000294600F05FFF01460A4606F108030420F2
:105440000A26B2FBF6F606EB860EA2EB4E023032CF
:1054500003F8012C0A22B6FBF2F202EB820EA6EB55
:105460004E063036401E03F8026DE9D1083F002F8A
:1054700003F10806D9DD084600F04EFF02460B4650
:105480002046294600F0A0FD0022DFF8443600F057
:1054900051FF04460D46CAE70DF18500361A0DF19D
:1054A000850404E00098401E761E0090641C20785D
:1054B0003028F7D0B8F1660F02D10098401C04E004
:1054C000B8F1650F0CBF012000200E9940188642EC
:1054D000B8BF701E00281DD4B04204DA215C342904
:1054E000C8BF392100DC30210246631E9D1800E050
:1054F000401E15F80169521E8E42F9D0392902D199
:10550000A15C491CA154002A04D50099491C1C46E1
:10551000401C00910646009D00F0E2FF406A0778BB
:10552000DDF8388030B2002802DC01260FF21C645E
:105530004BF02000662808BF6D1C16D0672845D1A7
:1055400028B210F1040F47DB404545DA9DF84000D2
:105550006D1C010703D430B24045D8BF804628B245
:10556000B8EB000848BF4FF000080FFA85FBBBF10D
:10557000000F00F3B3800898411C08913022059970
:105580000A54B8F1000F03DC9DF84000010704D570
:105590000898411C089105990F5418EB0B0FB8BFE0
:1055A000C8F100052DB26842454432B20B909542D5
:1055B000B8BF2E46059B089836B20996324621465A
:1055C0001844FFF709FBAD1B0C95D1E0BBF1610F4F
:1055D00017D14FF0700B19E030B2404504DA9DF856
:1055E00040100A0758BF8046B8F1010848BF4FF085
:1055F0000008BBF1670F14BF4FF0450B4FF0650B70
:1056000004E0BBF1410F08BF4FF0500B0898411C5C
:105610000891B8F1000F059914F8012B0A5403DC26
:105620009DF8400001071AD50898411C0891B8F16F
:10563000000F05990F5412DD761E30B28045B8BFB9
:1056400046460598089B32B221461844FFF7C4FA33
:10565000089836B230180890A8EB06000B90059811
:105660000899014428B2002881F800B003D42B2007
:105670004870891C04E02D224A700546891C6D4241
:1056800000202CAA0AE02B460A2593FBF5F505EB32
:105690008504A3EB440302F8013B401C2DB2002D0E
:1056A000F1DC012806DC4BF02002652A04BF302221
:1056B00001F8012B00282CAA08D1302001F8010B99
:1056C00006E0401E135C303301F8013B0028F8DC93
:1056D000059A08981044091A099149E030B229B294
:1056E00088421CDA0598089B32B221461844FFF71D
:1056F00073FA089936B271180891ABEB0600B8F14D
:10570000000F0B9003DC9DF84000020704D50598BC
:1057100047540999491C0991CDF8308028E0059833
:10572000089B2AB221461844FFF756FA0898761BC0
:105730005844B8F1000F089003DC9DF840100A07A8
:1057400003D5411C089105990F5430B28045B8BF6C
:1057500046460598089B32B204EB0B011844FFF74C
:105760003BFA089836B230180890A8EB06000B9068
:105770009DF8400000F01400102840F0C280079A05
:1057800008980B99821809988A1882180C980F9912
:105790008018884280F2B580081A0A90B1E09DF81E
:1057A0004200622808D068280ED06A2814D06C28DD
:1057B0001FD0712810D01CE0D9F8001051F8040B4C
:1057C000C9F80010C0B21AE0D9F8001051F8040B63
:1057D000C9F8001080B212E0D9F80000C21D22F012
:1057E0000702C9F80020D2E900010832C9F80020F8
:1057F00006E0D9F8001051F8040BC9F80010002198
:10580000CDE902019DF8400002075AD5DDE9020109
:10581000002908BF002854D04BF02002782A50D12C
:10582000079812A930230B54401C421C079201F820
:1058300000B046E09DF84200622808D068280ED0EB
:105840006A2814D06C281FD0712810D01CE0D9F819
:10585000001051F8040BC9F8001040B21AE0D9F852
:10586000001051F8040BC9F8001000B212E0D9F88A
:105870000000C21D22F00702C9F80020D2E9000191
:105880000832C9F8002006E0D9F8001051F8040BDE
:10589000C9F80010C117CDE90201002902D5079807
:1058A0002D210AE0BDF84000810702D507982B2181
:1058B00003E0C00705D50798202112AA1154401C07
:1058C000079012A8079901440591594602A800F0D3
:1058D0004DF816E001200790D9F8001051F8040B9C
:1058E000C9F800108DF848000BE001202521BBF11C
:1058F000000F07908DF8481003D0022107918DF812
:1059000049B00F9D07980A992D1A08986D1A0B999E
:105910002D1A09986D1A0C992D1A9DF840006D1AD0
:1059200041073FF5D2AA2020002D8DF800007FF717
:10593000CCAA309E2C46FFF7BCBA4FF0FF3031B0F6
:10594000BDE8F08FCBCCCC0C686A6C747A4C00004C
:105950007072696E74665F733A20626164202573A9
:1059600020617267756D656E740000002DE9FC4D55
:1059700006468846376940466F2808BF082405D088
:10598000FFF77EF9782814BF0A241024D6E9000115
:105990003C2582468B46B8F1640F18BFB8F1690FF9
:1059A00005D1002903D5DAF1000A6BEB4B0BBBF1F3
:1059B000000F08BFBAF1000F0CD1306B50B9082CA2
:1059C0003AD196F83800010736D530223B2587F8C2
:1059D0003B2031E08DF80080504659462246002396
:1059E00000F082FD3032D0B26D1E3A2801950EDAF9
:1059F0007A55504659462246002300F075FD8246EE
:105A00005FEA010B08BFBAF1000F05D108E09DF86D
:105A100000001218513AEBE7F06879198842DBD39D
:105A2000082C09D196F83800010705D5785D302893
:105A300002D06D1E30207855C5F13C02306BB2614A
:105A400079198242F16008DA318F821A4FF6EF70CD
:105A5000014031873262BDE8F38D00280ED596F8FB
:105A6000380000F01400102808D1736B7069316A97
:105A70001B1A5B1A9B1A002BC8BF3362BDE8F38D5B
:105A80002DE9D04306460F4614464FF00008DFF8D4
:105A9000449012E0E00707D542464B46304639466F
:105AA00000F048FC06460F464046494642464B46F3
:105AB00000F040FC641080468946002CEAD1304654
:105AC0003946BDE8D0830000A08601000000F03F09
:105AD00084D7974100002440F8B505460E46174686
