:020000040800F2
:10000000B085002055740008096B00080B6B0008D0
:100010000D6B00080F6B0008116B0008000000005A
:10002000000000000000000000000000136B00084A
:10003000156B000800000000176B0008196B000822
:10004000A9740008AD740008B1740008B574000804
:10005000B9740008BD740008C1740008C5740008B4
:10006000C9740008CD740008D1740008D574000864
:10007000D9740008DD740008E1740008E574000814
:10008000E9740008ED740008F1740008F5740008C4
:10009000F9740008FD740008017500080575000872
:1000A000097500080D750008117500081575000820
:1000B000197500081D7500082175000825750008D0
:1000C000297500082D750008317500083575000880
:1000D000397500083D75000841750008696B000816
:1000E000CD6B000845750008497500084D7500087E
:1000F0005175000855750008597500085D750008B0
:100100006175000865750008697500086D7500085F
:10011000717500087575000879750008BB5F0008E7
:100120007D750008817500088575000889750008CF
:100130008D7500089175000895750008997500087F
:100140009D750008A1750008A5750008A97500082F
:10015000AD750008B17500087F3E00089B6B000874
:10016000B5750008B9750008BD750008C1750008AF
:10017000C5750008C9750008CD75000800000000AD
:10018000D1750008D5750008D9750008DD7500081F
:10019000E1750008E5750008E97500080000000039
:1001A000ED750008F1750008F575000840F02000B5
:1001B00070472DE9F14FB0B0924604910DF1420124
:1001C0003A9A2B9199464A7000200AE01AF8011BCE
:1001D0000498309A90470028049000F044860D98C7
:1001E000401C0D909AF8000058B12528EED100204F
:1001F000002100220790089109920A910B920C911C
:1002000004E00D9800F031BE41F001011AF8010F31
:100210002028F9D023280CD02B2804D02D2805D055
:10022000302809D00BE041F00201EFE741F0040172
:10023000ECE741F00801E9E741F01001E6E72A2880
:100240000FD1D9F8002052F8040BC9F8002000287B
:100250000F9003D540420F9041F004010AF1010ACA
:1002600014E00F92DFF8082C0AE00F9B934205DAA6
:1002700003EB830400EB440030380F900AF1010ACD
:100280009AF80000A0F130030A2BEED39AF8002070
:100290002E2A03D04FF0FF300E9029E01AF8010FFC
:1002A0002A2809D1D9F8002052F8040BC9F80020F7
:1002B0000E900AF1010A1BE02D280CBF0AF1010A79
:1002C000002000220E92DFF8A84B0BE040B90E9BF5
:1002D000A34205DA03EB830502EB4502303A0E92A6
:1002E0000AF1010A9AF80020A2F130030A2BEDD39B
:1002F000ADF840100FF67C309AF8001000F0FCFECC
:1003000008B11AF8010B8DF842009DF842006828E8
:1003100005D19AF8001068290CD1622006E06C28FB
:1003200004BF9AF800106C2904D171208DF84200A6
:100330000AF1010A12AA06921AF801BBBBF12500C4
:100340002CD01C3800F09781001F022840F29381C6
:10035000133800F0BA84093800F08D81801E00F057
:100360004F85401E00F0FC84401E022840F283812D
:10037000001F00F0F584401F00F0F280401E00F0E6
:10038000A484401E00F0DA80C01E0ED0801E00F053
:100390009C84C01E00F0998400F03DBD01222521FF
:1003A00007928DF8481000F042BDD9F8000050F8CF
:1003B000044BC9F80000002C059440F0AB802B9949
:1003C0004878002800F0A1804FF0FF340FF6AC20F1
:1003D00000F0A2FE241A40F0468500F028BD01235B
:1003E0006A4602A9304600F00DFE002840F03B8529
:1003F000641EF4D13096079C12AF74B1309E17F88A
:10040000011B0498B0470028049000F02C850D983B
:10041000401C641E0D90F2D130960A9C3021002CB5
:100420008DF800100CDD309E01236A4602A930468B
:1004300000F0E8FD002840F01685641EF4D13096E7
:10044000059F089C74B1309E17F8011B0498B047B3
:100450000028049000F007850D98401C641E0D9044
:10046000F2D130960B9C3021002C8DF800100CDD61
:10047000309E01236A4602A9304600F0C3FD0028E1
:1004800040F0F184641EF4D1309605980899099CD7
:10049000471874B1309E17F8011B0498B047002824
:1004A000049000F0E0840D98401C641E0D90F2D181
:1004B00030960C9C3021002C8DF800100CDD309E05
:1004C00001236A4602A9304600F09CFD002840F056
:1004D000CA84641EF4D130969DF8400041077FF530
:1004E00081AE2020002D8DF800007FF77BAE309C80
:1004F00001236A4602A9204600F084FD002840F04E
:10050000B2846D1EF4D130946CE60FF6583005902D
:1005100000F08DBC0E9D002D04D5204600F01CFE81
:10052000044608E02A460021204600F031FE00285B
:1005300014BF041B2C46089400F079BCD9F80010B5
:1005400051F8040BC9F8001020F00002002121F03E
:10055000FF33CDE9022312AC0594782100F04CBCA6
:100560002B99487820B14FF0FF340FF6C8202FE7C1
:100570009DF84200622860D0682817D06A283FD0D2
:100580006C2806D0712847D074282CD07A281DD02A
:1005900062E0D9F8001051F8040BC9F800100028E7
:1005A00066D14FF0FF340FF6A42011E7D9F8001000
:1005B00051F8040BC9F8001020B94FF0FF340FF6C2
:1005C0008C2005E70D99018000F031BCD9F80010AE
:1005D00051F8040BC9F80010002849D14FF0FF343E
:1005E0000FF66820F4E6D9F8001051F8040BC9F8AA
:1005F000001000283CD14FF0FF340FF65020E7E602
:10060000D9F8001051F8040BC9F8001080B94FF068
:10061000FF340FF63820DBE6D9F8001051F8040B50
:10062000C9F8001020B94FF0FF340FF62020CFE6B4
:100630000D9AD317C0E90023F9E3D9F8001051F857
:10064000040BC9F8001020B94FF0FF340FF6FC106E
:10065000BEE60D990170EAE3D9F8001051F8040BD9
:10066000C9F8001020B94FF0FF340FF6E010AFE6E4
:100670000D990160DBE39DF842004C2807BFD9F8D3
:100680000010CA1DD9F80000C21D22F00702C9F8E7
:100690000020D2E900010832C9F80020CDE90201AA
:1006A000C80F02D007982D210AE0BDF8400081074D
:1006B00002D507982B2103E0C00705D50798202114
:1006C00012AA1154401C079012A807994BF020035E
:1006D00000EB010CDDE90201CDE92C01612BCDF825
:1006E00014C021AC0BD00E98002848BF062105D4B9
:1006F00004BF4BF02000672801D101210E91DDE9F4
:1007000002014F0047EAD0777E15FF174FF0FF3206
:10071000974208BF964210D1090341EA10510003E5
:10072000002908BF002808D0ABF1610503211A2D6C
:10073000089118D30FF6341110E0DDE902014A00E8
:10074000521512F1010F11D108030FD1ABF1610560
:1007500003211A2D08911FD30FF6181103226046AA
:1007600000F042FD63E30FF60011F7E7DDE9020157
:100770006A4600F08DFDCDE902014BF020006128B2
:1007800011D1059830220270811C0591BBF1610FD7
:100790000CBF7821582102E00FF6D401DEE741704A
:1007A0000798801C0790DDE9020120F0000231F07B
:1007B000004308BF002A02D10026002542E14BF089
:1007C0002008B8F1610F40F092800E99002947BFD0
:1007D00021200190491C0191019FDDE92C017F1C22
:1007E00000220023DDE9024500F08AFD38BF85F0D4
:1007F000004500988DF88420001F002F00900DF117
:10080000850632DD204629460022002300F092FDB5
:100810002BD21C2200F0A8FD04460D4600F042FE3B
:10082000FF1F002F804609DD00F058FE02460B46F0
:100830002046294600F022FF04460D46F01D072100
:10084000B8F1000F0CDD491E5EBF08F00F0200F882
:10085000012D4FEA2818F3D502E0002200F8012DFF
:10086000491EFAD5C61D002FCCDC0DF18500361AC5
:1008700001980DF185048642D8BF304600282FD458
:10088000B04206DA0DF185010A5C082AA8BF0F21E3
:1008900000DA0021024621AB134400E0401E13F8A9
:1008A0000159521E8D42F9D00F2904D10DF1850155
:1008B0008B5C5B1C8B54002A04D50099091D21AC6C
:1008C000401C0091411E0BD4621813783033DDB206
:1008D0003A2DA4BF5B443A3B491E02F80139F4D5D6
:1008E0000E9A002A40F1AC80411E0E91A8E00099BA
:1008F000DFF8002747F29750414391FBF2F2009254
:10090000DDE92C45C2F10702002A25F0004504DD8F
:100910002046294600F04AFB0BE052420020DFF857
:10092000D81600F043FB02460B462046294600F04D
:1009300017FF04460D46B8F1660F06BF009F0A3741
:1009400006270E983F18142FC8BF142730208DF8A3
:1009500084000DF18506002F34DD2046294601F084
:1009600023F801460A4606F1080304200A26B2FBD2
:10097000F6F606EB860EA2EB4E02303203F8012C9F
:100980000A22B6FBF2F202EB820EA6EB4E063036DE
:10099000401E03F8026DE9D1083F002F03F108065D
:1009A000D9DD084601F012F802460B4620462946DA
:1009B00000F064FE0022DFF8443601F015F804462A
:1009C0000D46CAE70DF18500361A0DF1850404E0E5
:1009D0000098401E761E0090641C20783028F7D0C6
:1009E000B8F1660F02D10098401C04E0B8F1650F21
:1009F0000CBF012000200E9940188642B8BF701E1F
:100A000000281DD4B04204DA215C3429C8BF392142
:100A100000DC30210246631E9D1800E0401E15F8E0
:100A20000169521E8E42F9D0392902D1A15C491CBC
:100A3000A154002A04D50099491C1C46401C009171
:100A40000646009D01F0A6F8406A0778DDF8388078
:100A500030B2002802DC01260FF21C644BF02000AB
:100A6000662808BF6D1C16D0672845D128B210F142
:100A7000040F47DB404545DA9DF840006D1C010737
:100A800003D430B24045D8BF804628B2B8EB000846
:100A900048BF4FF000080FFA85FBBBF1000F00F3D1
:100AA000B3800898411C0891302205990A54B8F186
:100AB000000F03DC9DF84000010704D50898411C95
:100AC000089105990F5418EB0B0FB8BFC8F100053A
:100AD0002DB26842454432B20B909542B8BF2E46C3
:100AE000059B089836B2099632462146184400F014
:100AF0007BFBAD1B0C95D1E0BBF1610F17D14FF023
:100B0000700B19E030B2404504DA9DF840100A0736
:100B100058BF8046B8F1010848BF4FF00008BBF14C
:100B2000670F14BF4FF0450B4FF0650B04E0BBF1AE
:100B3000410F08BF4FF0500B0898411C0891B8F1C5
:100B4000000F059914F8012B0A5403DC9DF84000AE
:100B500001071AD50898411C0891B8F1000F0599B2
:100B60000F5412DD761E30B28045B8BF4646059858
:100B7000089B32B22146184400F036FB089836B282
:100B800030180890A8EB06000B90059808990144CE
:100B900028B2002881F800B003D42B204870891CAB
:100BA00004E02D224A700546891C6D4200202CAAC3
:100BB0000AE02B460A2593FBF5F505EB8504A3EB2C
:100BC000440302F8013B401C2DB2002DF1DC01284A
:100BD00006DC4BF02002652A04BF302201F8012B0D
:100BE00000282CAA08D1302001F8010B06E0401E95
:100BF000135C303301F8013B0028F8DC059A0898B3
:100C00001044091A099149E030B229B288421CDA2D
:100C10000598089B32B22146184400F0E5FA08997D
:100C200036B271180891ABEB0600B8F1000F0B90CB
:100C300003DC9DF84000020704D505984754099944
:100C4000491C0991CDF8308028E00598089B2AB20C
:100C50002146184400F0C8FA0898761B5844B8F1A9
:100C6000000F089003DC9DF840100A0703D5411CD3
:100C7000089105990F5430B28045B8BF4646059893
:100C8000089B32B204EB0B01184400F0ADFA08984F
:100C900036B230180890A8EB06000B909DF8400083
:100CA00000F01400102840F0C280079A08980B99B1
:100CB000821809988A1882180C980F99801888420F
:100CC00080F2B580081A0A90B1E09DF842006228CF
:100CD00008D068280ED06A2814D06C281FD071283C
:100CE00010D01CE0D9F8001051F8040BC9F800101E
:100CF000C0B21AE0D9F8001051F8040BC9F800107E
:100D000080B212E0D9F80000C21D22F00702C9F833
:100D10000020D2E900010832C9F8002006E0D9F825
:100D2000001051F8040BC9F800100021CDE90201B0
:100D30009DF8400002075AD5DDE90201002908BFED
:100D4000002854D04BF02002782A50D1079812A9DD
:100D500030230B54401C421C079201F800B046E0BF
:100D60009DF84200622808D068280ED06A2814D066
:100D70006C281FD0712810D01CE0D9F8001051F851
:100D8000040BC9F8001040B21AE0D9F8001051F86D
:100D9000040BC9F8001000B212E0D9F80000C21D1F
:100DA00022F00702C9F80020D2E900010832C9F890
:100DB000002006E0D9F8001051F8040BC9F8001023
:100DC000C117CDE90201002902D507982D210AE0BB
:100DD000BDF84000810702D507982B2103E0C0072A
:100DE00005D50798202112AA1154401C079012A87B
:100DF000079901440591594602A800F04DF816E004
:100E000001200790D9F8001051F8040BC9F8001020
:100E10008DF848000BE001202521BBF1000F079061
:100E20008DF8481003D0022107918DF849B00F9D2D
:100E300007980A992D1A08986D1A0B992D1A099876
:100E40006D1A0C992D1A9DF840006D1A41073FF557
:100E5000D2AA2020002D8DF800007FF7CCAA309E6A
:100E60002C46FFF7BCBA4FF0FF3031B0BDE8F08F31
:100E7000CBCCCC0C686A6C747A4C00007072696ED2
:100E800074665F733A206261642025732061726723
:100E9000756D656E740000002DE9FC4D06468846B0
:100EA000376940466F2808BF082405D0FFF77EF950
:100EB000782814BF0A241024D6E900013C25824674
:100EC0008B46B8F1640F18BFB8F1690F05D100293E
:100ED00003D5DAF1000A6BEB4B0BBBF1000F08BF37
:100EE000BAF1000F0CD1306B50B9082C3AD196F8FA
:100EF0003800010736D530223B2587F83B2031E00A
:100F00008DF80080504659462246002300F046FEE8
:100F10003032D0B26D1E3A2801950EDA7A5550461D
:100F200059462246002300F039FE82465FEA010B53
:100F300008BFBAF1000F05D108E09DF800001218B3
:100F4000513AEBE7F06879198842DBD3082C09D1D4
:100F500096F83800010705D5785D302802D06D1E5F
:100F600030207855C5F13C02306BB261791982426C
:100F7000F16008DA318F821A4FF6EF700140318745
:100F80003262BDE8F38D00280ED596F8380000F0E7
:100F90001400102808D1736B7069316A1B1A5B1A30
:100FA0009B1A002BC8BF3362BDE8F38D2DE9D043F7
:100FB00006460F4614464FF00008DFF8449012E052
:100FC000E00707D542464B463046394600F00CFD57
:100FD00006460F464046494642464B4600F004FD51
:100FE000641080468946002CEAD130463946BDE877
:100FF000D0830000A08601000000F03F84D7974115
:1010000000002440F8B505460E4617461C46002051
:101010005CB117F8011BB068A847B06030B1F06A46
:10102000401CF0620020641EF3D1F2BD4FF0FF308F
:10103000F2BD00007072696E74665F733A20256EAF
:1010400020646973616C6C6F776564007072696E9F
:1010500074663A2062616420256E20617267756D46
:10106000656E7400000000006E616E004E414E001F
:10107000696E6600494E46003000F0B402461068C2
:1010800095681318506803EB5004C00748BF4D44DF
:10109000A3422DD013F8016B16F0030004BF13F820
:1010A000010BC01C31090F2907D113F8011B0F31A7
:1010B00003E013F8017B05F8017B401EF9D10029FC
:1010C000E6D013F8010BC6F38106032E08BF13F810
:1010D000016B00EB0620404228440026B71E8F42D9
:1010E0001EBF10F8017B05F8017B761CF6D1CFE717
:1010F000F0BC02F10C007047C9B202788A421AB102
:101100001CBF10F8012FF9E718BF002070470268D4
:10111000531C03601170704780B500B906A00549E3
:101120000B681BB122220021984701E000F04EFE1F
:10113000222002BD9C650020636F6E73747261692A
:101140006E742068616E646C65723A20626164201E
:101150006D6573736167650000F10103810704D059
:1011600010F8011B820781B1FAD10268A2F10131A6
:10117000914311F0803104BF50F8042FF6E709BA0B
:10118000B1FA81F100EBD100401CC01A70472E006B
:10119000C9B2830706D0521E22D310F8013B9942F0
:1011A000F7D11FE0083A13D302F1040241EA01210A
:1011B00041EA014150F8043B121F21BF4B40A3F10B
:1011C000013C2CEA030C1CF0803FF3D0C9B2001F95
:1011D0000832521E24BF10F8013B91EA030FF8D8E1
:1011E00018BF0120401E704762B38B0708D0521E03
:1011F00011F8013B00F8013B00F024808B07F6D189
:10120000830740F0208000BF103A07D330B4B1E824
:101210003810103AA0E83810F9D230BC530724BF78
:10122000B1E80810A0E8081044BF51F8043B40F8AA
:10123000043BD20724BF31F8022B20F8022B44BF15
:101240000B7803707047121F17D35B0009D151F858
:10125000043B20F8023B1B0C121F20F8023BF6D285
:101260000BE051F8043B00F8013B1B0A20F8023B5D
:101270001B0C121F00F8013BF3D238BF121D521E87
:1012800024BF11F8013B00F8013BF8D8704700007B
:1012900010B5144600F002F8226010BDC1F30A53E5
:1012A00043B14A0012F5001F28D2A3F2FE32A1EB8F
:1012B0000251704750EA410C20D001F0004C31EA55
:1012C0000C01B1FA81F204BFB0FA80F3D2180B3AE4
:1012D000B2F120032CBF00FA03F1914041EA0C0166
:1012E0003EBFC2F1200C20FA0CF319439040524249
:1012F00040F2FD33D21A01EB0351704700227047D0
:1013000041EA030C50EA4C0C52EA0C0C4FF4001C5E
:1013100009D307D01CEB410F9CBF1CEB430F8B4242
:1013200008BF824270471CEB430FFBD8994208BFAD
:101330009042704741EA030C50EA4C0C52EA0C0C04
:101340004FF4001C09D307D01CEB410F9CBF1CEBD2
:10135000430F994208BF904270471CEB410FFBD8E6
:101360008B4208BF82427047124254D440F2FF7C45
:101370001CEA11530FD0634531D09B1863453CBF25
:1013800001EB0251704701F0004141EA0C5100208D
:10139000AFF30080704750EA410320D001F0004CC9
:1013A00091EA0C011CD0B1FA81F30B3B9A420DD9A2
:1013B000D21A994051EA0C01C3F1200C20FA0CFC1E
:1013C00061449840531C40F2FF7CD7E7914041EACA
:1013D0000C01C2F1200C20FA0CF319439040704725
:1013E000B0FA80F31533202BE0D3202AEED3203A35
:1013F000203B9A4209D9D21A00FA03F141EA0C01C2
:101400000020531C40F2FF7CB8E700FA02F141EAE9
:101410000C0100207047524240F2FF7C1CEA11533D
:101420000DD06345DBD0B2EB030C3CBFA1EB025106
:1014300070470CF1010221EA035141F4801150EA96
:10144000410CCCD001F0004C352A27DC30B481EAC5
:101450000C01B2F1200309DAC2F12003044601FABB
:1014600003F5D0402843D1409C400CE0C3F120025A
:10147000450020FA03F418BF44F0010421FA03F0F8
:1014800091400C43002174F1004550F1000051EBF4
:101490000C01244230BC7FF47BAF704761460020D2
:1014A00076E70000C1F30A5340F21E42D31A0CDD66
:1014B000CA0283F3070342EA505242F00042DA4084
:1014C00002EBE17282EAE17070476FEAE17203F2C7
:1014D000E13008B182F000407047000010F0004198
:1014E00060B148BF4042B0FA80F29040D21CC2F5D1
:1014F000846241EA025202EBD021400570470000AD
:1015000070B491EA030F4FF0004540F1BF806B408B
:10151000841A71EB030604D26E40001BB14112190C
:1015200073414FF4001C1CEB410F34BF7CEB4306AE
:1015300083E00C0DA4EB1356362E00F37C80012EB5
:1015400045EAC32341DC43EA525312BFD20292025E
:101550005B08240545EAC12141EA5051D2EBC02085
:10156000994125D407D1B0FA80F610FA06F162D07D
:101570000020203608E0B1FA81F6B140C6F1200221
:1015800020FA02F21143B0404FEAF474B4EB46542F
:1015900034F001064FEA74040AD8D6F50016760D29
:1015A00004F00044F04061FA06F25040F140484037
:1015B000C00A40EA415021F0004128BF5FEA5005CF
:1015C00050F1000044EBD12135E0DB0A45EAC121AE
:1015D000C90AB6F120050EDD42EA0242120CC5F13D
:1015E000200603FA06F6EB4042EA06056D429841F2
:1015F00061F100010DE062FA06F5F240554063FA30
:1016000006FC82EA0C02F3405A406D42904161EBC5
:10161000030111F4801F05D1641E620502D06D0024
:101620004041494121F48011430875F1004350F1D4
:10163000000041EB045170BC70471CEB410F15D208
:1016400023F0004352EA43060BD04FEA4C0CBCEBAC
:10165000410F04D80C0D661E342EB7DDEBE7801A5F
:10166000994150EA410608BF0021E4E708BF1CEB9E
:10167000430F28BF6FF00001DDE7000070B491EA6E
:10168000030F4FF000457FF543AF6B40841A71EBB9
:10169000030603D2001BB141121973414FF4001C21
:1016A0001CEB410F34BF7CEB430442E00C0DA4EB78
:1016B0001356352E4FDC45EAC323DB0A45EAC12128
:1016C000C912B6F120050DDD63FA05F6EB4086EA96
:1016D0000305124218BF45F00105C01851F1000181
:1016E0000CD213E062FA06F5F2405540F3415A403D
:1016F000B340F3405A408018594107D349085FEA84
:1017000030005FEA350528BF45F0010501F580117D
:10171000420875F1004250F1000041EB04514E00C7
:1017200016F5001F70BC38BF70470020090D090571
:1017300070471CEB410F10D252EA43060BD0BCEBB2
:10174000410F05D80C0DAB43661E342EB6DD02E00A
:10175000AB438018594170BC704770BC70470000A3
:10176000F0B540F2FF7581EA030C0CF0004C15EA6D
:1017700011541DBF15EA1357AC42AF42E5E0BC411E
:10178000C1F31301C3F31303801A994143F4801387
:1017900004D2641E0018494180185941C90241EA27
:1017A0005051B1FBF3F603FB1611A2FB0675D7EB04
:1017B000C020A94102D2761E80185941C90241EACF
:1017C0005051B1FBF3FE03FB1E11A2FB0E75D7EBCC
:1017D000C020A94103D2AEF1010E801859418902FF
:1017E00041EA9051760546EA8E2EB1FBF3F603FBF3
:1017F0001611A2FB0675D7EB8020A94102D2761EF6
:1018000080185941C90241EA50514EEA060EB1FB17
:10181000F3F603FB1611A2FB0675D7EBC020A94116
:1018200002D2761E80185941C90241EA5051B1FBDB
:10183000F3F703FB1711A2FB0735D3EBC020A94137
:1018400067F100070CBF004247F0010766F3D52798
:101850004FEA1E31B80814F5806412DDBD0775F13A
:10186000004250EB0E5051EB045111F5801F5CBF4C
:1018700041EA0C01F0BD4CF07F6141F0E0410020F5
:10188000F0BDBD076D0840EA0E5041F48011D4F15F
:101890000104B4F120060ADAC4F120060200E04097
:1018A00001FA06F3E1401843B24015430EE0342C30
:1018B00013DCC6F1200445EA40056D0820FA06F263
:1018C000154321FA06F0A1400D43002175F10042B5
:1018D00050F1000051EB0C01F0BD00205FEA0C015B
:1018E000F0BDCFB992185B41B3FA83F704BFB2FAE7
:1018F00082F6BF190B3FB7F120062FBF02FA06F39D
:10190000BB40C7F1200622FA06F638BF3343BA407F
:101910001CB1E419641E33E77F4231F00041B1FA93
:1019200081F404BFB0FA80F6A4190B3CB4F1200690
:101930002FBF00FA06F1A140C4F1200620FA06F6F6
:1019400038BF3143A0403C1B1AE7AC421ABF05EA3E
:101950001357AF4212E050EA41061CBF52EA430659
:10196000BFE750EA4107304661461CBF41EA0551D6
:10197000F0BD52EA430C08BFC143F0BD00204FF454
:10198000001616EB410F98BF16EB430F08BF16EB7E
:10199000410F24BFC14305E016EB430F0CBF614666
:1019A0004CEA0551F0BD0000400D40F21E4C40EAEB
:1019B000C120BCEB115C40F0004003D48CF3070164
:1019C000C84070476FEAE1707047000050B1B0FA4C
:1019D00080F18840C91CC1F58461090501EBD02163
:1019E000400570470146704730B540F2FF7C1CEA65
:1019F00011541DBF1CEA1355644565453FE0641949
:101A000081EA030C6FF35F530CF0004C43F4801336
:101A1000C90241F0004141EA505EC5021100A5FB38
:101A2000020200284FF00000EEFB01204FF0000101
:101A3000E3FB052118BF42F0010240180021494193
:101A4000E3FB0E01A4F580640D0302D2921840411D
:101A5000494154F1010470DD450872F1004250F132
:101A6000000051EB0451A1F5801102D441EA0C01B0
:101A700030BD40F2FF7E4CEA0E51002030BD0CEA32
:101A80001355644518BF654581EA030C0CF0004C02
:101A900041D050EA410E1CBF52EA430E02E06146BB
:101AA000002030BD24422C441BD15FEA050EF6D045
:101AB000090302BF01460020AEF1140EB1FA81F510
:101AC000AEEB050401FA05FE0C35C5F1200100FA64
:101AD00005F5C8404EEA000E6FF35F5343F48013E0
:101AE0009CE733F00043B3FA83F504BFB2FA82FEF9
:101AF00075440B3D641BB5F1200E2FBF02FA0EF3A7
:101B0000AB40C5F1200E22FA0EFE38BF43EA0E03A9
:101B1000AA40641C7CE750EA410E14BF52EA430E0F
:101B20006FF000014FF4001515EB430F8EBF1946FF
:101B300015EB410F9DE7B4D830BDD4F10104B4F1E9
:101B400020050FDAC4F12005520828BF42F0010237
:101B500010FA05FE01FA05F57244E2BFE0402843A1
:101B6000E1400FE0352C9ADCC5F1200452EA400236
:101B700020FA05F218BF42F0010231FA05F0A14047
:101B80000A43002172F1004250F1000051EB0C01B8
:101B900030BD00000048704708000020BBBBE1B129
:101BA000B2F5803F80F07E80022A1ED98C46B1FBC0
:101BB000F2F102FB11C31B0443EA1043B3FBF2FC36
:101BC00002FB1C3380B240EA0343B3FBF2F002FB9A
:101BD000103240EA0C4000237047022A05D984469F
:101BE000B0FBF2F002FB10C270474AB105D100F021
:101BF000010249085FEA3000704700220023704765
:101C000000F0E8B80B00020000210020704790426D
:101C100071EB030CF6D3B3F5803F2FD2F0B5B3FAD6
:101C200083F7B1FA81F4A7F10F0E3D1B5340CEF1BB
:101C3000200602FA0EF2F3415340B5F10F0746D8E1
:101C40000F3C2C444140C4F12006A040F1414140EA
:101C5000B1FBF3F603FB1611A2FB0645001BA941DD
:101C600002D2761E8018594180EA010221FA0EF351
:101C700062FA0EF200215A403046F0BD30B4B1FB9A
:101C8000F3FC03FB1C11A2FB0C45001BA94103D272
:101C9000ACF1010C8018594130BC02460B4660463D
:101CA00000217047B2F1807F65D3F0B5B2FA82F7B8
:101CB000B1FA81F4C7F10F063D1B22FA06F307F1D2
:101CC000110EF24120355A40B5F10F07B8D9414005
:101CD000C4F12006A040F1414140B1FBF3FC03FBFD
:101CE0001C11A2FB0C45001BA94103D2BCF1010C45
:101CF000801859410F2F12D30F3FC90341EA5041B9
:101D0000B1FBF3F603FB1611A2FB0645D4EBC03082
:101D1000A94102D2761E8018594146EACC3C07B34D
:101D20004140C7F12006B840F1414140B1FBF3F614
:101D300003FB1611A2FB0645001BA94102D2761E29
:101D40008018594180EA010221FA0EF3C7F12004FC
:101D500062FA0EF20CFA07F05A402CFA04F1304302
:101D6000F0BD80EA010221FA0EF3002162FA0EF2C0
:101D700060465A40F0BD8C46B1FBF2F102FB11C344
:101D80001B0243EA1063B3FBF2FC02FB1C331B0291
:101D90004CEA002043EA1063B3FBF2FC02FB1C3365
:101DA0001B024CEA002043EA1063B3FBF2FC02FB87
:101DB0001C331B024CEA002043EA1063B3FBF2FC25
:101DC00002FB1C324CEA002000237047012000F087
:101DD00003B800007047000080B5AFF30080024AEE
:101DE00011001820ABBEFBE72600020038B5040046
:101DF0002000B0F1804F40D0DFF8B415884245D0C4
:101E0000DFF8B01588424AD0DFF8AC1588424FD0D1
:101E1000DFF8A815884254D0DFF8A415884259D0BD
:101E2000DFF8A015884200F08280DFF89C15884218
:101E300000F08680DFF89415884200F08A80DFF891
:101E40009015884210D0DFF88C1588424BD0DFF80F
:101E50008815884250D0DFF88415884255D0DFF8C5
:101E6000801588425AD07DE04FF4106000F074FD78
:101E70004FF4106000F084FD74E04FF4006000F057
:101E80006BFD4FF4006000F07BFD6BE040F6010558
:101E9000280000F061FD280000F072FD62E040F6CD
:101EA0000205280000F058FD280000F069FD59E007
:101EB00040F60305280000F04FFD280000F060FD0B
:101EC00050E040F60405280000F046FD280000F030
:101ED00057FD47E040F60505280000F03DFD2800CD
:101EE00000F04EFD3EE040F60115280000F034FD04
:101EF000280000F045FD35E04FF4116000F02CFDA6
:101F00004FF4116000F03CFD2CE040F61115280064
:101F100000F022FD280000F033FD23E040F612150A
:101F2000280000F019FD280000F02AFD1AE040F614
:101F30000605280000F010FD280000F021FD11E04A
:101F400040F60705280000F007FD280000F018FD06
:101F500008E040F60805280000F0FEFC280000F02C
:101F60000FFDFFE731BD00210180002141800021EC
:101F700081804FF6FF7181600021C18000210173D3
:101F8000704710B40A8810F128031A60DFF8403453
:101F9000984212D0B0F1804F0FD0DFF81424904255
:101FA0000BD0DFF81024904207D0DFF80C249042C9
:101FB00003D0DFF8202490420BD1026832F0700287
:101FC000026004684A881443046004688A881443E1
:101FD00004608A6810F12C042260DFF8E02390424C
:101FE0000BD0DFF8DC23904207D0026832F4407255
:101FF00002600468CA8814430460984203D0DFF882
:10200000D423904203D10A7B10F130031A6010F1FF
:102010001402126852F0010210F114031A6010BC8D
:102020007047016851F0010101607047016851F08B
:1020300080010160704710F12402116070470100B7
:10204000002211F12400006870470A00D2B2012A70
:1020500008D110F14402126852F4004210F1440316
:102060001A6007E010F14402126832F4004210F1E5
:1020700044031A6070470021018000214180002143
:1020800081800021C18000210181002141817047B0
:1020900010B40B009BB2002B07D0022B00F0D980AC
:1020A0006AD3032B00F042817EE110F120031B680C
:1020B0005B085B0010F12004236010F118031B681B
:1020C0009B089B0010F11804236010F120031C688A
:1020D00013881C4310F120031C6010F120031B68BF
:1020E00033F0020310F12004236010F120031C6878
:1020F00093881C4310F120031C60B54B984202D01A
:10210000B44B984237D110F120031B6833F004031D
:1021100010F12004236010F120031C6853881C4335
:1021200010F120031C6010F120031B6833F008033A
:1021300010F12004236010F120031C68D3881C4395
:1021400010F120031C60031D1B6833F48073041D11
:102150002360031D1C6813891C43031D1C60031DA1
:102160001B6833F40073041D2360031D1C6853892E
:102170001C43031D1C6017E110F120031B6833F0A2
:10218000100310F12004236010F118031B6833F4CE
:10219000407310F11804236010F120031B681488A9
:1021A00053EA041310F12004236010F120031B688C
:1021B00033F0200310F12004236010F120031B688A
:1021C000948853EA041310F120042360804B984252
:1021D00002D0804B98423BD110F120031B6833F0B2
:1021E000400310F12004236010F120031B68548881
:1021F00053EA041310F12004236010F120031B683C
:1022000033F0800310F12004236010F120031B68D9
:10221000D48853EA041310F120042360031D1B68C3
:1022200033F48063041D2360031D1B68148953EA83
:102230008403041D2360031D1B6833F40063041D25
:102240002360031D1B68548953EA8403041D236023
:10225000AAE010F120031B6833F4807310F120040E
:10226000236010F11C031B689B089B0010F11C04E9
:10227000236010F120031B68148853EA042310F133
:102280002004236010F120031B6833F4007310F165
:102290002004236010F120031B68948853EA042370
:1022A00010F1200423604A4B984202D0494B9842D7
:1022B0003BD110F120031B6833F4806310F120043C
:1022C000236010F120031B68548853EA042310F1A3
:1022D0002004236010F120031B6833F4006310F125
:1022E0002004236010F120031B68D48853EA0423E0
:1022F00010F120042360031D1B6833F48053041D78
:102300002360031D1B68148953EA0413041D236012
:10231000031D1B6833F40053041D2360031D1B6859
:10232000548953EA0413041D23603DE010F1200397
:102330001B6833F4805310F12004236010F11C0358
:102340001B6833F4407310F11C04236010F1200368
:102350001B68148853EA043310F12004236010F141
:1023600020031B6833F4005310F12004236010F1A4
:1023700020031B68948853EA043310F1200423607F
:10238000134B984202D0134B98420CD1031D1B688B
:1023900033F48043041D2360031D1B68148953EA32
:1023A0008413041D2360FFE710BC70470000000089
:1023B0000004004000080040000C004000100040F5
:1023C0000014004000180040001C004000200040A5
:1023D0000000014000040140004001400044014071
:1023E0000048014010B40B009BB2002B05D0022B1B
:1023F00028D014D3032B37D049E010F118031B6801
:1024000033F0700310F11804236010F118031C68F6
:1024100013009BB21C4310F118031C6037E010F14D
:1024200018031B6833F4E04310F11804236010F123
:1024300018031B681400A4B253EA042310F1180413
:10244000236024E010F11C031B6833F0700310F1CB
:102450001C04236010F11C031C6813009BB21C4376
:1024600010F11C031C6012E010F11C031B6833F414
:10247000E04310F11C04236010F11C031B681400DE
:10248000A4B253EA042310F11C042360FFE710BC3C
:1024900070470B009BB2002B05D0022B0BD006D34C
:1024A000032B0CD00FE010F134031A600BE010F195
:1024B00038031A6007E010F13C031A6003E010F1E2
:1024C00040031A60FFE7704710B40B009BB2002B6B
:1024D00005D0022B28D014D3032B37D049E010F1BC
:1024E00018031B6833F0080310F11804236010F17F
:1024F00018031C6813009BB21C4310F118031C60E6
:1025000037E010F118031B6833F4006310F118046E
:10251000236010F118031B681400A4B253EA0423CB
:1025200010F11804236024E010F11C031B6833F041
:10253000080310F11C04236010F11C031C68130035
:102540009BB21C4310F11C031C6012E010F11C0331
:102550001B6833F4006310F11C04236010F11C03AA
:102560001B681400A4B253EA042310F11C04236076
:10257000FFE710BC7047002101800121418000214C
:1025800081800021C180704770B504000D001600E5
:10259000280080B2002807D0022800F08B8045D3A5
:1025A000032800F0CA800CE114F120000068400804
:1025B000400014F12001086014F12000006830F0A0
:1025C0000A0014F12001086014F12000016830882D
:1025D000014314F12000016014F118000068800824
:1025E000800014F11801086014F118000168708867
:1025F000014314F11800016014F11800006830F074
:10260000F00014F11801086014F118000068F18856
:1026100050EA011014F11801086014F1200000685C
:1026200050F0010014F120010860CAE014F120000C
:10263000006830F0100014F12001086014F120004F
:10264000006830F0A00014F12001086014F12000AF
:102650000068318850EA011014F12001086014F17B
:102660001800006830F4407014F11801086014F18B
:1026700018000068718850EA012014F11801086000
:1026800014F11800006830F4704014F1180108606B
:1026900014F118000068F18850EA013014F11801B3
:1026A000086014F12000006850F0100014F12001BF
:1026B000086086E014F12000006830F4807014F1A6
:1026C0002001086014F12000006830F4206014F14B
:1026D0002001086014F120000068318850EA0120D0
:1026E00014F12001086014F11C00006880088000CB
:1026F00014F11C01086014F11C000168708801438A
:1027000014F11C00016014F11C00006830F0F000AE
:1027100014F11C01086014F11C000068F18850EAF3
:10272000011014F11C01086014F12000006850F43D
:10273000807014F12001086043E014F1200000686B
:1027400030F4805014F12001086014F1200000687A
:1027500030F4005014F12001086014F120000068EA
:10276000318850EA013014F12001086014F11C0096
:10277000006830F4407014F11C01086014F11C0072
:102780000068718850EA012014F11C01086014F1FE
:102790001C00006830F4704014F11C01086014F152
:1027A0001C000068F18850EA013014F11C01086037
:1027B00014F12000006850F4805014F120010860EA
:1027C000FFE7B288290089B2200000F001F870BD4F
:1027D00010B40B009BB2002B05D0022B28D014D3D1
:1027E000032B37D049E010F118031B6833F00C03BA
:1027F00010F11804236010F118031C6813009BB239
:102800001C4310F118031C6037E010F118031B681B
:1028100033F4406310F11804236010F118031B68AF
:102820001400A4B253EA042310F11804236024E036
:1028300010F11C031B6833F00C0310F11C0423601F
:1028400010F11C031C6813009BB21C4310F11C0305
:102850001C6012E010F11C031B6833F4406310F19C
:102860001C04236010F11C031B681400A4B253EA7B
:10287000042310F11C042360FFE710BC704730B440
:1028800010F108042468E408E40010F108052C6045
:1028900010F1080424680C4310F108052C6010F1B5
:1028A00018042568164C254010F11804256010F115
:1028B0001804256840F20114254310F1180425601E
:1028C00010F12004246834F00A0410F120052C6073
:1028D00010F12004246834F0A00410F120052C60CD
:1028E00010F1200425681400A4B225431C00A4B2F2
:1028F00055EA041510F12004256030BC7047000033
:10290000FCFCFFFF030013F10C0002680A4013F106
:1029100010000068084203D0002A01D0012000E026
:1029200000207047CA4310F110031A60704700007E
:1029300010B4DFF89421010009B212EB91110B6879
:10294000012410F01F018C402343010009B212EB57
:102950009112136010BC704710B4DFF86C210100B5
:1029600009B212EB91110B68012410F01F018C4089
:102970002343010009B212EB9112136010BC70479F
:1029800010B4DFF84421010009B212EB91110B6879
:10299000012410F01F018C40A343010009B212EB87
:1029A0009112136010BC70477FF08071884205D18E
:1029B000DFF820110A6802400A6004E0DFF8141111
:1029C0000A6802430A6070472DE9F04F8DB0040099
:1029D000002509A840491022FEF716FC07A83F4928
:1029E000D1E90023C0E9002305A83D49D1E900232E
:1029F000C0E90023354A1068C0F38101002903D0E3
:102A0000022905D002D329E0364B28E0364B26E0D8
:102A10002F48036813F03F0304930368C3F388133C
:102A200003930368C3F301435B1C5B0001930068DD
:102A300010F4800002900298B0F5800F02D12A486D
:102A4000009001E0274800900098049BB0FBF3F34E
:102A5000039843430198B3FBF0F300E0214B106867
:102A6000C0F3031009AE16F800801E0036FA08F60F
:102A70001768C7F3822C07AF17F80C90370037FAA6
:102A800009F71268C2F3423E05AA12F80EA03200FE
:102A900032FA0AF2A3465FFA8BFBBBF1000F07D0B4
:102AA000BBF1020F08D005D3BBF1030F06D007E03E
:102AB0001D0005E0350003E03D0001E01500FFE7E3
:102AC00028000DB0BDE8F08F003802400838024001
:102AD000043802408C3802403474000888740008BE
:102AE000907400080024F40000127A001CB5002045
:102AF000ADF8040000F02CFC00F0A2FC002000F077
:102B000079FD00F0EEFE0A2001F0DAF801A90020BC
:102B100001F07CF800283ED1BDF8040041F22431D8
:102B2000884229D04FF6E0744FF47840009023009B
:102B30002EA20021782000F017FE00944FF4784375
:102B40002BA20021902000F00FFE4FF6FF744FF4EF
:102B5000784000902300DFF830270321082000F0A0
:102B600003FE4FF4784000902300DFF82027052172
:102B7000082000F0F9FDFEE74FF4FC6000901F23F1
:102B8000DFF80C270021782000F0EEFD00F034F88B
:102B900001F0B2F829E04FF6E0744FF4784000906D
:102BA000230012A20021782000F0DEFD00944FF4F3
:102BB000784310A20021902000F0D6FD4FF6FF745C
:102BC0004FF4784000902300DFF8C8260321082046
:102BD00000F0CAFD4FF4784000902300DFF8AC26E7
:102BE0000521082000F0C0FDFEE713BD43616D0024
:102BF0004E4700004E43000080B500F03FF8BC2176
:102C0000782000F068FA322000F0AEFA012000F0DF
:102C100067FB04212C2000F01CFF8021C22000F063
:102C200018FF40F203311C2000F013FF42F62E5132
:102C3000132000F00EFF40F2C711202000F009FF22
:102C40001021242000F005FF03212B2000F001FFBC
:102C500003212F2000F0FDFE1A21322000F0F9FEA2
:102C600040F203110F2000F0F4FE1E21A52000F019
:102C7000F0FE03210C2000F0ECFE01BD38B501216F
:102C8000012000F0E6FE0421022000F0E2FE4FF4F5
:102C9000F071032000F0DDFE4FF43C71042000F0E1
:102CA000D8FE5B21052000F0D4FE0A21062000F0AA
:102CB000D0FE4FF4C471072000F0CBFE40F2BB11F0
:102CC000082000F0C6FE40F2D911092000F0C1FE34
:102CD0004FF4B2710A2000F0BCFE00210B2000F07E
:102CE000B8FE00210C2000F0B4FE4FF440710D201E
:102CF00000F0AFFE00210E2000F0ABFE00210F20FF
:102D000000F0A7FE4021102000F0A3FE48F242018F
:102D1000112000F09EFE2221122000F09AFE42F6C1
:102D20002E51132000F095FE40F60261142000F0B1
:102D300090FE40F63261152000F08BFE42F6020450
:102D40002100162000F085FE43F638652900172083
:102D500000F07FFE2900182000F07BFE21001920E2
:102D600000F077FE4FF485611A2000F072FE00211A
:102D70001B2000F06EFE40F202311C2000F069FEC4
:102D800040211D2000F065FE00211E2000F061FEA4
:102D900000211F2000F05DFE40F2C731202000F02E
:102DA00058FE2021212000F054FE2021222000F096
:102DB00050FE1021232000F04CFE1B21242000F0A7
:102DC00048FE0421262000F044FE0C21272000F0BC
:102DD00040FE1021282000F03CFE1021292000F0A8
:102DE00038FE20212A2000F034FE04212B2000F0A0
:102DF00030FE04212C2000F02CFE04212D2000F0B8
:102E000028FE07212E2000F024FE03212F2000F0B1
:102E100020FE0321302000F01CFE2721312000F08D
:102E200018FE1A21322000F014FE0521332000F094
:102E300010FE0321342000F00CFE1021352000F09C
:102E400008FE48F21001362000F003FE0021372072
:102E500000F0FFFD0021382000F0FBFD2721392084
:102E600000F0F7FD26213A2000F0F3FD05213B207C
:102E700000F0EFFD03213C2000F0EBFD802140201D
:102E800000F0E7FD42F21D31462000F0E2FD802116
:102E9000472000F0DEFD2021482000F0DAFD02216D
:102EA0004C2000F0D6FD0021602000F0D2FD002172
:102EB000672000F0CEFD00216C2000F0CAFD00214B
:102EC000702000F0C6FD2A21712000F0C2FD002113
:102ED000722000F0BEFD00217F2000F0BAFD00212D
:102EE000992000F0B6FD96219A2000F0B2FD4FF433
:102EF00096719B2000F0ADFD4FF4E1719C2000F035
:102F0000A8FD4FF416719D2000F0A3FD4FF43C7115
:102F10009E2000F09EFD00219F2000F09AFD602180
:102F2000A02000F096FDC021A12000F092FD4FF4FA
:102F30009071A22000F08DFD4FF4C071A32000F02D
:102F400088FD4FF4F071A42000F083FD3A21A52004
:102F500000F07FFD0221A62000F07BFD0021A820CB
:102F600000F077FD0221A92000F073FD0221AA20C4
:102F700000F06FFD4021AB2000F06BFD0121AC2083
:102F800000F067FD4FF4F071AD2000F062FD1421F8
:102F9000AE2000F05EFD0021AF2000F05AFD4AF6A1
:102FA000E031B02000F055FD0221B12000F051FDCC
:102FB0001021B22000F04DFD1021B32000F049FD9A
:102FC0000021B42000F045FD0021B52000F041FDB6
:102FD0000021B62000F03DFD0021B72000F039FDB2
:102FE0001621BF2000F035FD0A21C02000F031FD80
:102FF00041F6D001C22000F02CFD7F21C32000F05B
:1030000028FD7F21C42000F024FD7F21C52000F091
:1030100020FD0021C62000F01CFD44F21641C7200F
:1030200000F017FD44F22141C82000F012FD0121FB
:10303000C92000F00EFD0421CA2000F00AFD4FF463
:10304000F071CB2000F005FD4FF43C71CC2000F076
:1030500000FD5E21CD2000F0FCFC2D21CE2000F0F3
:10306000F8FC4FF4EF71CF2000F0F3FC40F2DF11D9
:10307000D02000F0EEFC4FF4B271D12000F0E9FC5A
:103080000121D22000F0E5FC0021D32000F0E1FC7A
:103090000021D42000F0DDFC4FF48271D52000F037
:1030A000D8FC0021D62000F0D4FC0021D72000F06D
:1030B000D0FC0021D82000F0CCFC0021D92000F069
:1030C000C8FC0021F02000F0C4FC4BF6EF61FE20AC
:1030D00000F0BFFC31BD70B504000D00002640F2C9
:1030E000E110210089B28900814204DAA4B2A4006F
:1030F00056F0020608E0210089B24900814203DA55
:10310000A4B2640056F0010640F2F120290089B211
:103110008900814204DAADB2AD0056F0080608E03D
:10312000290089B24900814203DAADB26D0056F040
:10313000040656F03006310089B20D2000F089FCFB
:10314000290089B2042000F084FC210089B2032008
:1031500000F07FFC0121012000F07BFC0421022013
:1031600000F077FC70BD000010B52DED028B04005F
:103170009FED448A2000C0B2C92802DBF0EE008A2D
:1031800074E02000C0B2962810DB2000C0B2FEF729
:103190001DFC414A414BFEF727FC0022404BFEF745
:1031A000AFF900F0F9FE08EE900A5FE02000C0B22F
:1031B000652810DB2000C0B2FEF708FC394A3A4B04
:1031C000FEF712FC0022394BFEF79AF900F0E4FEFC
:1031D00008EE900A4AE02000C0B2472810DB200029
:1031E000C0B2FEF7F3FB324A324BFEF7FDFB324A28
:1031F000324BFEF785F900F0CFFE08EE900A35E07D
:103200002000C0B2332810DB2000C0B2FEF7DEFB86
:103210002B4A2C4BFEF7E8FB2B4A2C4BFEF770F9A0
:1032200000F0BAFE08EE900A20E02000C0B2152897
:1032300010DB2000C0B2FEF7C9FB254A254BFEF784
:10324000D3FB254A254BFEF75BF900F0A5FE08EEFF
:10325000900A0BE02100C9B27FF09A0241F2C61039
:1032600002FB010100EE101AF8EEC08ABDEEE80A7A
:1032700010EE100A010089B2062000F0EAFBBDEC56
:10328000028B10BD00000000447400082074000888
:1032900098740008F0730008F6285C8FC2F5F0BF40
:1032A00000606F401F85EB51B81E01C000D079400F
:1032B000E09C11A5BD0112C08FC2F5285C49844075
:1032C000A301BC0512B421C0713D0AD7A3EC8D4007
:1032D000986E1283C02A3FC09A9999999932A0405A
:1032E0001CB504000020ADF800006946AF2000F0D6
:1032F0008DFC2000C0B2002819D0BDF8001051F09C
:10330000030189B2AF2000F0A4FBFA21AD2000F048
:10331000A0FB0121AC2000F09CFB1421AB2000F0AD
:1033200098FB45F62001B02000F093FB0FE0BDF8BC
:1033300000104FF6FC700140AF2000F08AFB1E2108
:10334000AB2000F086FB96210B2000F082FB13BD22
:1033500018B587B040F60440FFF7EAFA41F21410BE
:10336000FFF7E6FA324C4FF4A0420621200000F0AD
:10337000BCFE4FF4A04300220221200000F040FEDA
:103380004FF4A04302220021200000F06CFE002038
:1033900001904FF482700090002002900020059070
:1033A0004FF4007003900020069000200490214C00
:1033B0006946200000F0DEFE0021200000F0FDFE46
:1033C000200000F0F5FE00F002F808B010BD18B5BE
:1033D00089B040F61640FFF7ABFA174C04212000E5
:1033E00000F0FEFE40200690002002900020039096
:1033F000002004904FF420400790104800900120D6
:1034000001905FF4403008906A460421200000F0EB
:1034100062FF0421200001F011F8022204212000A3
:1034200001F042F80421200001F02CF80AB010BD90
:103430000010024000500140006402400C50014066
:1034400010B5DFF870430121200000F03CFE02219E
:10345000200000F038FE1021200000F034FE05208E
:1034600000F02EFC1021200000F031FE052000F0BD
:1034700027FC1021200000F026FE0221200000F091
:1034800022FE052000F01CFC0221200000F01FFE9F
:10349000112000F066F8142000F012FCB12000F0BA
:1034A00060F8052000F069F83C2000F066F83C2048
:1034B00000F063F8B22000F054F8052000F05DF849
:1034C0003C2000F05AF83C2000F057F8B32000F000
:1034D00048F8052000F051F83C2000F04EF83C2060
:1034E00000F04BF8052000F048F83C2000F045F8CB
:1034F0003C2000F042F8B42000F033F8032000F044
:103500003CF83A2000F02DF8052000F036F8202095
:1035100000F027F8132000F024F8262000F021F80E
:10352000012000F02AF8292000F01BF8362000F0D6
:1035300018F8702000F021F8002000F05BF810BDB2
:103540000100DFF8740202689207FAD5DFF86C22F6
:103550000B00DBB213600368DB07FCD51068C0B258
:10356000704710B504000821DFF8480200F0AFFDF5
:103570002000C0B2FFF7E4FF10BD10B50400082121
:10358000DFF8300200F09FFD2000C0B2FFF7D8FF47
:1035900010BD10B504000821DFF8180200F093FDFB
:1035A000200080B2000AC0B2FFF7CAFF2000C0B2FC
:1035B000FFF7C6FF10BDF8B504000D0016001F0090
:1035C0002A20FFF7CEFF200080B2FFF7E2FF300095
:1035D00080B2FFF7DEFF2B20FFF7C3FF280080B289
:1035E000FFF7D7FF380080B2FFF7D3FF2C20FFF79B
:1035F000B8FFF1BD70B504007F239F220021002099
:10360000FFF7D9FF0025280080B2A0280DDA00209E
:103610000600300080B2802805DA200080B2FFF773
:10362000B8FF761CF5E76D1CEDE770BD2DE9F8439A
:1036300004000D00160000273800C0B2102832DA4E
:1036400055FA87F39BB2E21D92B255FA87F189B21F
:10365000200080B2FFF7AFFFDFF864013100C9B28C
:10366000090108443900C9B20844B0F50070007877
:103670008146002080464046C0B2082811DA5FEA41
:10368000C97004D54FF6FF70FFF783FF02E00020FA
:10369000FFF77FFF5FFA89F95FEA590918F101081E
:1036A000E9E77F1CC8E7BDE8F1832DE9F84F050085
:1036B0000E00170098460A9C5FF000094846C0B209
:1036C000102834DA56FA89F39BB2EA1D92B256FA00
:1036D00089F189B2280080B2FFF76DFFDFF8E000C2
:1036E0003900C9B2090108444946C9B20844B0F5D5
:1036F000007000788346002082465046C0B20828F9
:1037000012DA5FEACB7004D5404680B2FFF741FF82
:1037100003E0200080B2FFF73CFF5FFA8BFB5FEA1B
:103720005B0B1AF1010AE8E719F10109C6E7BDE8E8
:10373000F18FF8B504000D00160000273800C0B264
:10374000305C00280FD03800C0B2325CADB2290125
:1037500089B23800C0B2C00010FA84F080B2FFF71E
:1037600065FF7F1CEAE7F1BD2DE9FC4104000D0077
:1037700016001F005FF000084046C0B2305C002811
:1037800015D0BDF8200000903B009BB24046C0B26F
:10379000325CADB2290189B24046C0B2C00010FA15
:1037A00084F080B2FFF781FF18F10108E4E7BDE87B
:1037B000F3810000000C0240085001400C50014011
:1037C0007852000810B540F60540FFF7B1F841F215
:1037D0001600FFF7ADF8DFF818440322042120009B
:1037E00000F083FC032301220221200000F008FCEA
:1037F000032302220121200000F035FCDFF8F4430E
:103800000022DFF8F413200001F036F840230022F4
:103810000021200001F0C5F8200001F0E5F84FF488
:103820008061200001F0CDF8200001F0F6F810BD15
:10383000F8B504000D00DFF8BC6340F20161300010
:1038400001F0F4F80028F6D1300001F0D2F84FF47E
:10385000A061300001F0EAF80028F8D07FF0010202
:103860004021300001F0B4F840F201573900300037
:1038700001F0DCF80028F7D03900300001F0E6F85C
:1038800040F20751300001F0D1F80128F8D12900A9
:10389000C9B2300001F0B7F840F2025739003000E9
:1038A00001F0C4F80028F7D02178300001F0ABF81F
:1038B0003900300001F0BAF80028F9D0641C2178F2
:1038C000300001F0A0F83900300001F0AFF8002816
:1038D000F9D0300001F092F8C64800688005FBD4AA
:1038E000F1BD10B540F60140FFF722F841F2150096
:1038F000FFF71EF8C14C4FF440720421200000F085
:10390000F4FB4FF4407300220221200000F078FB0A
:103910004FF4407302220121200000F0A4FBB84CB8
:10392000200000F07DFF0022B649200000F0A4FF37
:10393000FE2300220021200001F033F8200001F0D6
:1039400053F84FF48061200001F03BF810BD2DE9E1
:10395000FC4104000D0044F620600090A84E40F2A7
:103960000161300001F062F80028F7D1300001F069
:1039700040F844F6206000904FF4A061300001F060
:1039800055F8002806D10098411E00910028F3D177
:10399000FF205CE07FF00102B821300001F018F850
:1039A00044F62060009040F201573900300001F0E9
:1039B0003DF8002806D10098411E00910028F2D160
:1039C000FF2044E03900300001F040F844F6206068
:1039D000009040F207573900300001F027F8002826
:1039E00006D10098411E00910028F2D1FF202EE060
:1039F0002100C9B2300001F006F844F62068CDF885
:103A0000008040F20251300001F010F8002806D189
:103A10000098411E00910028F3D1FF2017E02900F3
:103A2000C9B2300000F0EFFFCDF80080390030005F
:103A300000F0FCFF002806D10098411E00910028EC
:103A4000F4D1FF2003E0300000F0D8FF0020BDE8F3
:103A5000F68170B504000D00290089B2090AC9B2C7
:103A60002000C0B2FFF773FF06002900C9B2F020A2
:103A7000FFF76DFF3043C0B270BD2DE9FC4104007B
:103A80000D0044F6206700975F48016851F480619B
:103A900001605B4E300000F0ACFF00974FF4A06176
:103AA000300000F0C3FF002806D10098411E0091AD
:103AB0000028F3D1FF2099E07FF00102B821300007
:103AC00000F086FF44F62060009040F20157390074
:103AD000300000F0ABFF002806D10098411E009195
:103AE0000028F2D1FF2081E03900300000F0AEFF65
:103AF00044F62060009040F20751300000F096FF3D
:103B0000002806D10098411E00910028F3D1FF2023
:103B10006CE02100C9B2300000F075FF44F620606F
:103B2000009040F20251300000F080FF002806D1E2
:103B30000098411E00910028F3D1FF2056E0324842
:103B4000016851F480610160300000F057FF3000DF
:103B500000F04FFF44F6206000904FF4A061300069
:103B600000F064FF002806D10098411E0091002853
:103B7000F3D1FF203AE00122B921300000F028FF04
:103B800044F62068CDF800803900300000F04EFF88
:103B9000002806D10098411E00910028F4D1FF2092
:103BA00024E03900300000F051FF0021300000F027
:103BB00008FFCDF8008040F20651300000F036FFDB
:103BC000002806D10098411E00910028F3D1FF2063
:103BD0000CE0300000F012FF300000F01AFF2870F7
:103BE0000948016851F4806101600020BDE8F68158
:103BF0000014024000580040801A060000040240F1
:103C000000540040400D0300145400407CB50400F3
:103C10000D000DF101012000C0B2FFF72EFF0600DC
:103C20006946F020FFF729FF30439DF80110090293
:103C30009DF8002051FA82F12980C0B276BD0000C3
:103C400010B4020052B2002A09D50A01234B040025
:103C500064B214F00F04234403F8042C04E00A01B6
:103C60001F4B040064B21A5510BC704710B5040015
:103C7000601EB0F1807F01D301200EE0601E194963
:103C800008600F215FF0FF30FFF7DAFF00201649D0
:103C90000860072015490860002010BD80B5144851
:103CA00000684FF47A71B0FBF1F0FFF7DFFF0028F6
:103CB00000D0FEE700215FF0FF30FFF7C1FF01BD3C
:103CC0000C4A106011680029FCD170470949086846
:103CD000002802D00868401E0860704718ED00E018
:103CE00000E400E014E000E018E000E010E000E094
:103CF000040000209865002070B586B04FF4406045
:103D0000FEF716FE40F60140FEF712FE40F60440B4
:103D1000FEF70EFE4FF45060FEF70AFE944C1022A0
:103D20000D21200000F0E1F940220D21200000F0DB
:103D3000DCF94FF400720D21200000F0D6F94FF4A9
:103D400080620D21200000F0D0F98A4D40220D2123
:103D5000280000F0CAF980220D21280000F0C5F9E2
:103D6000854E01220D21300000F0BFF902220D2105
:103D7000300000F0BAF910220D21300000F0B5F942
:103D800020220D21300000F0B0F940220D2130003A
:103D900000F0ABF94FF4CA6301220221200000F0C9
:103DA0002FF94FF4CA6303220021200000F05BF9D1
:103DB000C02301220221280000F022F9C02303229F
:103DC0000021280000F04FF9732301220221300066
:103DD00000F016F9732303220021300000F043F9AC
:103DE000002000900020019000200290002003900D
:103DF0000020049000200590684600F055FE00F079
:103E00006FFE00F067FE06B070BD18B589B040F6D1
:103E10001640FEF78DFD594C0721200000F0E0F917
:103E200057480090574802900020069041F20860E1
:103E3000079001200190002003904FF480500490DF
:103E40005FF400300890002005906A4607212000AA
:103E500000F041FA01220721200000F025FB10228A
:103E60000721200000F036FB00220021462000F050
:103E700046FE0721200000F0F3FA0AB010BDF8B5A5
:103E80003E4E20220721300000F046FB00286ED075
:103E90000721300000F0F6FA01203B4908700121AB
:103EA000344800F063F93949087800282FD1002000
:103EB00004002000C0B2702829DA00200500280084
:103EC000C0B2A02821DA324A2300DBB2A02043434B
:103ED0001A442B00DBB22700FFB277204743702043
:103EE00097FBF0F7FFB25FF0BC0CAE465FFA8EFEB8
:103EF000BB2000FB0EFE9F209EFBF0F00CFB070793
:103F00002048C05DD0546D1CD9E7641CD1E7087807
:103F1000022823D1002004002000C0B228281DDA86
:103F2000002005002800C0B2BC2815DABC201949C1
:103F30002200D2B2424311442A00D2B2114B2700D0
:103F4000FFB200FB07F050FA85F0184410F5EB5073
:103F5000007888546D1CE5E7641CDDE7202207210A
:103F6000300000F02EFC0721300000F079FAF1BD9E
:103F700000000240000402400010024000640240C1
:103F80002800055000000320A6650020A76500203A
:103F90003C0100203C47002001F000428B1AA3F1B5
:103FA0006051B1F5801F0ADBB1F17F6F1FD242EA89
:103FB000C102C10071F1004142EB507070470B1516
:103FC000C3F10903212B10D2890241EA90518002EA
:103FD0000128494141F0004121FA03F0C3F12003D7
:103FE000994071F1004150417047100070476FF0E7
:103FF000000013EB103F5CBF000E42EAC050704758
:10400000F0B4066810F10C04276800252C00A4B257
:10401000102C22D21C00EC40E4071CD55FF0030CEE
:104020002C00E4B264001CFA04F4A64334002E0011
:10403000F6B2760011FA06F626432C00E4B26400CC
:104040001CFA04FC37EA0C073C002F00FFB27F008B
:1040500012FA07F727436D1CD8E7066010F10C042D
:104060002760F0BC7047F0B40C00E4B2012C05D11D
:10407000041D24681C43051D2C6004E0041D2468F5
:104080009C43051D2C6010F10804266800252C00B7
:10409000A4B2102C12D21C00EC40E4070CD503276C
:1040A0002C00E4B26400A740BE4334002E00F6B2F8
:1040B000760012FA06F626436D1CE8E710F10804B4
:1040C0002660F0BC704710F118021160704710F1C3
:1040D000280211607047020012F1100000680842C7
:1040E00001D0012000E000207047F0B410F120035F
:1040F0001C6810F124031D68002633009BB2082BB6
:1041000012D21300F340DB070CD50F273300DBB2CC
:104110009B009F40BC4323003400E4B2A40011FA8A
:1041200004F41C43761CE8E708273B009BB2102BE5
:1041300014D21300FB40DB070ED50F2617F1F8034E
:10414000DBB29B009E40B5432B0017F1F805EDB2A2
:10415000AD0011FA05F51D437F1CE6E710F12003C1
:104160001C6010F124031D60F0BC704710F12C029C
:104170001160704730B40023046814F441540A6895
:1041800014434A6814438A681443CA6814430A698A
:1041900014434A6914438A691443046010F11C02F1
:1041A000126832F4006210F11C052A6030BC7047BE
:1041B000016851F04001016070470A00D2B2002A44
:1041C00006D1021D126852F00202031D1A6005E0BA
:1041D000021D126852F00102031D1A6070470000B0
:1041E00070B418220B00DBB202FB030310330C0087
:1041F000E4B202FB040410342468640864001C6008
:104200000B00DBB202FB0303103300241C600B0025
:10421000DBB202FB0303143300241C600B00DBB28F
:1042200002FB0303183300241C600B00DBB202FB0B
:1042300003031C3300241C600B00DBB202FB0303EE
:10424000203300241C600B00DBB202FB030224328B
:10425000212313600A00D2B2042A13DA10F10802F3
:1042600013683D240D00EDB206260A00D2B2C2F357
:104270004002920006FB0525AC40234310F10802E2
:10428000136013E0091F10F10C0213683D240D00A8
:10429000EDB206260A00D2B2C2F34002920006FB3B
:1042A0000525AC40234310F10C02136070BC70472D
:1042B0000021016001214160002181600121C16074
:1042C0000021016101214161002181610021C16161
:1042D00000210162704770B418240B00DBB204FBAC
:1042E000030324330D00EDB204FB050524352D68CE
:1042F00035F004051D600B00DBB204FB030318332B
:1043000015681D600B00DBB204FB03031C339568CA
:104310001D600B00DBB204FB03031433D5691D6081
:104320000B00DBB204FB030310331D68424B1D403E
:1043300013691D43136955EA8305136A1D43936985
:104340001D430B00DBB204FB030310331D605368F5
:10435000002B0ED10B00DBB204FB030310330E0065
:10436000F6B204FB06061036366856F400761E6078
:104370001FE05368012B0ED10B00DBB204FB0303DB
:1043800010330E00F6B204FB06061036366836F41B
:1043900000761E600DE00B00DBB204FB030310335C
:1043A0000E00F6B204FB06061036366856F40046D8
:1043B0001E60D368002B0ED10B00DBB204FB03039D
:1043C00010330E00F6B204FB06061036366856F4BB
:1043D00080661E600DE00B00DBB204FB03031033AC
:1043E0000E00F6B204FB06061036366836F4806618
:1043F0001E605369002B0ED10B00DBB204FB0303DC
:1044000010330E00F6B204FB06041034246854F492
:1044100080741C600DE00B00DBB204FB030310335F
:104420000E00F6B204FB06041034246834F48074E1
:104430001C6070BC704700003F87FCFF10B418225E
:104440000B00DBB202FB030310330C00E4B202FBEF
:1044500004021032126832F480721A6010BC704785
:1044600010B418220B00DBB202FB030310330C0064
:10447000E4B202FB04021032126852F001021A6028
:1044800010BC704710B418220B00DBB202FB030310
:1044900010330C00E4B202FB04021032126852081E
:1044A00052001A6010BC704730B418240B00DBB205
:1044B00004FB030310331B6833F060631500EDB297
:1044C00053EA45630D00EDB204FB0504103423608C
:1044D00030BC704730B4802A0ED018230C00E4B2F0
:1044E00003FB040410340D00EDB203FB050310338D
:1044F0001B68134323600DE018230C00E4B203FB98
:10450000040424340D00EDB203FB050324331B68BF
:104510001343236030BC7047F0B505000B00140056
:10452000002100221E001800C0B2042880F29E80E4
:104530002000012808D0042823D008283ED01028C5
:1045400059D0202874D090E02F689C465FFA8CFCEC
:104550005FF0060E1800C0B2C0F3400080000EFBF2
:104560000C0C14FA0CFC1CEA07073A001F00FFB2FF
:10457000182000FB07572437386810F0800001002E
:1045800017E12F689C465FFA8CFC5FF0060E18005E
:10459000C0B2C0F3400080000EFB0C0C14FA0CFCFF
:1045A0001CEA07073A001F00FFB2182000FB07575C
:1045B0001037386810F002000100FAE02F689C46BE
:1045C0005FFA8CFC5FF0060E1800C0B2C0F340002A
:1045D00080000EFB0C0C14FA0CFC1CEA07073A00D6
:1045E0001F00FFB2182000FB07571037386810F083
:1045F00004000100DDE02F689C465FFA8CFC5FF050
:10460000060E1800C0B2C0F3400080000EFB0C0C78
:1046100014FA0CFC1CEA07073A001F00FFB218202E
:1046200000FB07571037386810F008000100C0E0A1
:104630002F689C465FFA8CFC5FF0060E1800C0B233
:10464000C0F3400080000EFB0C0C14FA0CFC1CEABA
:1046500007073A001F00FFB2182000FB075710376A
:10466000386810F010000100A3E0A2E0361F20001F
:10467000012808D0042824D0082840D010285CD075
:10468000202878D095E0281D0768B4465FFA8CFC96
:104690005FF0060E3000C0B2C0F3400080000EFB99
:1046A0000C0C14FA0CFC1CEA07073A001F00FFB2BE
:1046B000182000FB07572437386810F080000100ED
:1046C00077E0281D0768B4465FFA8CFC5FF0060EA1
:1046D0003000C0B2C0F3400080000EFB0C0C14FA96
:1046E0000CFC1CEA07073A001F00FFB2182000FB71
:1046F00007571037386810F00200010059E0281DF4
:104700000768B4465FFA8CFC5FF0060E3000C0B25A
:10471000C0F3400080000EFB0C0C14FA0CFC1CEAE9
:1047200007073A001F00FFB2182000FB0757103799
:10473000386810F0040001003BE0281D0768B4460B
:104740005FFA8CFC5FF0060E3000C0B2C0F3400090
:1047500080000EFB0C0C14FA0CFC1CEA07073A0054
:104760001F00FFB2182000FB07571037386810F001
:10477000080001001DE0281D0768B4465FFA8CFCA4
:104780005FF0060E3000C0B2C0F3400080000EFBA8
:104790000C0C14FA0CFC1CEA07073A001F00FFB2CD
:1047A000182000FB07571037386810F01000010080
:1047B000FFE7002A03D0002901D0012000E00020FB
:1047C000F0BD70B40B00DBB2042B13DA10F1080358
:1047D0001C680D00EDB206260B00DBB2C3F34003EC
:1047E0009B0006FB053512FA05F52C4310F1080372
:1047F0001C6013E0091F10F10C031C680D00EDB2E2
:1048000006260B00DBB2C3F340039B0006FB053515
:1048100012FA05F52C4310F10C031C6070BC7047B4
:1048200038B504002000DFF86812884208D0DFF8AD
:10483000641288420DD0DFF86012884212D01AE06C
:1048400040F615052800FEF787F82800FEF798F8CF
:1048500011E040F616052800FEF77EF82800FEF766
:104860008FF808E040F617052800FEF775F82800D5
:10487000FEF786F8FFE731BD2DE9F04105000E0097
:1048800014000220FEF7A0F8DFF81012B0FBF1F2DE
:104890003C2A01D33C210A00291D0B689B099B017E
:1048A0001343291D0B60DFF8F8118E4230D2DFF878
:1048B000EC11B0FBF1F1491C8846B8F13C0F05D36F
:1048C0003C2115F1200CCCF800100CE0B8F1030FDE
:1048D00005D2022115F1200CCCF8001003E015F1EF
:1048E0002001C1F800807100B0FBF1F10F00042F2E
:1048F00001D204210F0015F11C01D1F800C03905C7
:10490000090D51EA0C0C15F11C01C1F800C046E07C
:10491000DFF890118E4242D24FF4967101FB02F102
:104920004FF47A7CB1FBFCF1491C15F1200CCCF85A
:104930000010002C0FD1032101FB06F1B0FBF1F1B7
:104940000F0015F11C01096831F4804115F11C0CB0
:10495000CCF800100EE0192101FB06F1B0FBF1F1DB
:104960000F0015F11C01096851F4804115F11C0C70
:10497000CCF80010390501D157F0010715F11C01E1
:10498000096851F4004115F11C0CCCF8001015F128
:104990001C010968394315F11C0CCCF80010BDE866
:1049A000F081F0B40024056835F002050D43056080
:1049B0009B059B0D53EA020610F108073E60F0BC10
:1049C00070470022036833F480630B430360704731
:1049D00012F1020F02D14908490001E051F0010132
:1049E00010F1100319607047016851F00101016076
:1049F0007047016851F4807101607047016851F49B
:104A00000071016070470A00D2B210F110031A6001
:104A1000704710300068C0B2704710F12401096877
:104A200031F0100110F124021160704702000800FB
:104A300000B2C0F389108018006811F01F03D8403D
:104A4000C00701D5012000E00020704730B40A0003
:104A500040F2015312B29A4206D110F114021268C8
:104A600010F11802126810E00A0012B2C2F38913A2
:104A70001B180A0012B2C2F3891212181468012519
:104A800011F01F029540AC431C6030BC7047000021
:104A90000054004000580040005C004040420F00BD
:104AA000A1860100811A060010B400220F4B1C6879
:104AB0000F490C401C6001680A4341680A43816841
:104AC0000A43C1680A4301690A4341690A431A60FB
:104AD00010BC70470548016851F48041016070477F
:104AE0000248016851F00101016070470000055063
:104AF000FEBFFFFF34490143344A116070472DE97E
:104B0000F84304000D00160000275FF000085FF076
:104B100000092E48016811F4E061B1F5E06F02D19F
:104B20000021042229E0016811F4E061B1F5C06FB1
:104B300002D10121032220E0016811F4E061B1F506
:104B4000A06F02D10221022217E0016811F4E06196
:104B5000B1F5806F02D1032101220EE0006810F44C
:104B6000E060B0F5407F02D10421002205E04FF45F
:104B7000A060FFF7BFFF022102222B00DBB2D1F1C0
:104B8000040083403000C0B25FF00F0CD2F1040E7D
:104B90003CFA0EFC1CEA000003431B010C48A4462F
:104BA0005FFA8CFC00F80C305FF0010C14F01F0071
:104BB0001CFA00FC0748A6465FFA8EFE5FEA6E1EEE
:104BC00040F82EC0BDE8F1830000FA050CED00E0CE
:104BD00000E400E000E100E080B569460D2000F04F
:104BE0004EF89DF800001A28F7D1DFF84C0600F0C7
:104BF0002FFB05212A2000F0FEF802212B2000F0D7
:104C0000FAF810210E2000F0F6F801BD10B540F6BC
:104C10000540FDF78DFE41F21600FDF789FEDFF835
:104C20001C46032204212000FFF75FFA0323012220
:104C300002212000FFF7E4F90323022201212000D2
:104C4000FFF711FADFF8F8454FF48042DFF8F4156A
:104C50002000FFF711FE3823002200212000FFF77B
:104C6000A0FE2000FFF7C0FE4FF480612000FFF798
:104C7000A8FE2000FFF7D1FEFFF7AEFF10BD2DE923
:104C8000FC4104000D0044F620670097DFF8B805EA
:104C9000016851F480610160DFF8A4653000FFF71E
:104CA000A8FE00974FF4A0613000FFF7BFFE002878
:104CB00006D10098411E00910028F3D1FF2098E012
:104CC0007FF0010238213000FFF782FE44F62060B9
:104CD000009040F2015739003000FFF7A7FE00288E
:104CE00006D10098411E00910028F2D1FF2080E0FB
:104CF00039003000FFF7AAFE44F62060009040F231
:104D000007513000FFF792FE002806D10098411E9F
:104D100000910028F3D1FF206BE02100C9B23000E0
:104D2000FFF771FE44F62060009040F2025130001F
:104D3000FFF77CFE002806D10098411E0091002854
:104D4000F3D1FF2055E0DFF80005016851F48061E0
:104D500001603000FFF74DFE44F6206000904FF4F4
:104D6000A0613000FFF762FE002806D10098411EC6
:104D700000910028F3D1FF203BE0012239213000CF
:104D8000FFF726FE44F62068CDF800803900300099
:104D9000FFF74CFE002806D10098411E0091002824
:104DA000F4D1FF2025E039003000FFF74FFE00214D
:104DB0003000FFF706FECDF8008040F206513000CB
:104DC000FFF734FE002806D10098411E009100280C
:104DD000F3D1FF200DE03000FFF71BFE28703000FC
:104DE000FFF70CFEDFF86004016851F48061016098
:104DF0000020BDE8F6812DE9FC4104000D0044F6D9
:104E000020670097DFF84004016851F48061016079
:104E1000DFF82C643000FFF7ECFD00974FF4A06141
:104E20003000FFF703FE002806D10098411E0091D4
:104E30000028F3D1FF2066E07FF001023821300026
:104E4000FFF7C6FD44F62060009040F2015739009C
:104E50003000FFF7EBFD002806D10098411E0091BD
:104E60000028F2D1FF204EE039003000FFF7EEFDC0
:104E700044F62060009040F207513000FFF7D6FD65
:104E8000002806D10098411E00910028F3D1FF2090
:104E900039E02100C9B23000FFF7B5FD44F62067C4
:104EA000009740F2025841463000FFF7BFFD00284E
:104EB00006D10098411E00910028F2D1FF2022E087
:104EC000DFF88403016851F4806101602900C9B2F0
:104ED0003000FFF798FD009741463000FFF7A6FD30
:104EE000002806D10098411E00910028F4D1FF202F
:104EF00009E03000FFF782FDDFF84C03016851F450
:104F0000806101600020BDE8F68181B00020009042
:104F10000098322803DA0098401C0090F8E701B0AE
:104F2000704710B540F60440FDF702FDDFF81C4362
:104F30000C23012201212000FFF762F80C2302223A
:104F400001212000FFF78FF804212000FFF7BBF8B4
:104F500008212000FFF7B7F810BD10B5BB4C0421A5
:104F60002000FFF7B0F808212000FFF7ACF8FFF7AA
:104F7000CCFF04212000FFF7AAF8FFF7C6FF0821A5
:104F80002000FFF7A4F8FFF7C0FF10BD10B5AF4C2D
:104F900004212000FFF79BF8FFF7B7FF082120004E
:104FA000FFF791F8FFF7B1FF04212000FFF78BF81E
:104FB000FFF7ABFF10BD38B504002000C0B20028D9
:104FC00004D00421A148FFF77EF803E004219F48A4
:104FD000FFF77DF8FFF799FF9C4D08212800FFF7A8
:104FE00072F8FFF792FF08212800FFF770F8FFF72B
:104FF0008CFF31BD38B5954D04212800FFF763F8CB
:10500000FFF783FF08212800FFF75DF8FFF77DFF1A
:1050100004212800FFF75FF8040008212800FFF7AB
:1050200056F8FFF772FF2000C0B232BD38B5040059
:105030000025082D07DA2000C0B2C009FFF7BBFF2A
:1050400064006D1CF5E7FFF7D5FF32BDF8B505002C
:1050500000260027082F07DA76003400FFF7CAFF82
:10506000060026437F1CF5E72800C0B2002801D1C6
:10507000012000E00020C0B2FFF79DFF3000C0B269
:10508000F2BD2DE9F04104000D0016001F00FFF7EE
:1050900064FF14F0FE00FFF7C9FF002804D0FFF7FB
:1050A00075FF5FF0FF3024E02800C0B2FFF7BEFFBD
:1050B000002804D0FFF76AFF7FF0010019E05FF0DD
:1050C00000084046310080B289B288420ED2404684
:1050D00080B2385CFFF7AAFF002804D0FFF756FF24
:1050E0007FF0020005E018F10108EAE7FFF74EFF44
:1050F0000020BDE8F0812DE9F04104000D0016000C
:105100001F00FFF72AFF14F0FE00FFF78FFF0028B3
:1051100004D0FFF73BFF5FF0FF3036E02800C0B25D
:10512000FFF784FF002804D0FFF730FF7FF0010075
:105130002BE0FFF712FF54F00100C0B2FFF776FF3B
:10514000002804D0FFF722FF7FF002001DE05FF08F
:1051500000084046310080B289B2884212D24046EF
:1051600080B2310089B2491E884201D1002000E09E
:105170000120C0B2FFF76AFF414689B2785418F1A6
:105180000108E6E7FFF702FF0020BDE8F08113B554
:10519000040001AB01222100C9B2D020FFF771FF4A
:1051A00013BD70B504000D0016002B003200D2B202
:1051B00092B22100C9B2D020FFF79DFF70BD80B52B
:1051C000FFF7A3FE00216B20FFF7E1FF0721192065
:1051D000FFF7DDFF06211A20FFF7D9FF01211C2070
:1051E000FFF7D5FF18211B20FFF7D1FFFFF78DFE3A
:1051F00001BD80B5FFF795FEFFF7E1FF01BD1CB5CE
:105200000400062269464320FFF7CBFF9DF800000B
:105210009DF8011051EA00212180684681789DF8AF
:10522000032052EA0122628000799DF8051051EABC
:105230000021A18013BD0000D873000800140240B3
:1052400000580040801A0600145800400010024028
:105250000EB41EB5024605A801900024009401ABCF
:105260000121044878440C30FAF7A3FF03B010BCC6
:105270005DF810FB95210000000000000000000018
:1052800000000000000000000000000000181818D6
:10529000181800181800000000000000006C6C6C6A
:1052A0006C0000000000000000000000006C2C7E7C
:1052B00024247E343600000000000018187C2606E6
:1052C0001C7060623E18000000000000000E1BEE23
:1052D000187FD2D07000000000000000003C66067D
:1052E0000C5E7373DE000000000000000018181848
:1052F00018000000000000000000000070180C0CF6
:1053000004040C0C18700000000000000E1830306F
:1053100020203030180E0000000000000000185A55
:105320007E3C66000000000000000000000018182D
:10533000187E1818000000000000000000000000A7
:10534000000000001818080800000000000000001D
:105350007E000000000000000000000000000000CF
:10536000000000181800000000000000C06020309D
:1053700010180C0C0606000000000000003C6666D9
:105380005A5A66663C00000000000000001C1E180F
:10539000181818187E00000000000000003C66602D
:1053A0006030180E7E00000000000000003C6660C7
:1053B0001C3860623E000000000000000064666669
:1053C0006662FE616000000000000000007C0606CE
:1053D0003E6240663C0000000000000000781C06B1
:1053E0007E6642663C0000000000000000FE626233
:1053F000203030101800000000000000003C6666FD
:10540000186642663C00000000000000003C664256
:10541000665E60381E0000000000000000000018FA
:10542000180000181800000000000000000000181C
:105430001800000018180808000000000000607C38
:10544000070F784000000000000000000000007E10
:1054500000007E0000000000000000000000063E8A
:10546000E0F01E020000000000000000003C66604A
:10547000301800181800000000000000003C665AB8
:105480006A4A4A7A063C00000000000000183C3CD2
:1054900024667E42C300000000000000003E6666F5
:1054A0001E66C6E67E0000000000000000FC4E06FE
:1054B0000302068E7C00000000000000003E6242F5
:1054C000C2C242623E00000000000000007E0606EC
:1054D0003E0606067E0000000000000000FE0606F4
:1054E000063E06060600000000000000007CC60222
:1054F000037342467C00000000000000004242426C
:105500007E4242424200000000000000007E181867
:10551000181818187E0000000000000000784040B5
:10552000404043663C000000000000000046466624
:10553000363E3666C6000000000000000006060683
:10554000060606067E000000000000000066565AAF
:105550005A5A4242420000000000000000464E4AF3
:105560004A5252726200000000000000003C664295
:10557000C3C342663C00000000000000003E66C657
:10558000667E06060600000000000000003C664241
:10559000C3C342667E18187000000000003E6242DD
:1055A000627E3262C200000000000000003C66061D
:1055B0001C3860623E0000000000000000FF181868
:1055C000181818181800000000000000004242429D
:1055D000424242663C0000000000000000C34266F8
:1055E00066243C3C180000000000000000C3C3DB40
:1055F0005A5A5A5A660000000000000000E7663C54
:1056000018183C66E70000000000000000C3662494
:105610003C1818181800000000000000007E6030E0
:1056200018080C067E000000000000007C0C0C0C2A
:105630000C0C0C0C0C7C0000000000000306040C99
:105640000818303060600000000000003E3030304C
:1056500030303030303E00000000000018183C664A
:10566000000000000000000000000000000000003A
:1056700000000000007E0000000000000C18300058
:105680000000000000000000000000000000003EDC
:10569000607C6262FE000000000000000006063E22
:1056A000664646663E000000000000000000007CE8
:1056B000660606067C000000000000000060607CBA
:1056C000666262667C000000000000000000003C92
:1056D00066627E067C0000000000000000F01808F2
:1056E0007F08080808000000000000000000007C9F
:1056F000666262667C60603E000000000006063E56
:105700006666666666000000000000000018101E55
:10571000101010107E000000000000000030303C2F
:10572000303030303030381E000000000006066691
:1057300066363E26E600000000000000000E080865
:105740000808085878000000000000000000007EF3
:105750005A5A5A5A5A000000000000000000003E49
:105760006666666666000000000000000000003CFF
:10577000666666663C000000000000000000003E17
:10578000664646663E060606000000000000007CF5
:10579000666262667C606060000000000000007667
:1057A000CC0C0C0C1F000000000000000000007C6E
:1057B000061E70603E00000000000000000C0C7F20
:1057C0000C0C0C0C780000000000000000000066CB
:1057D00066666666FC00000000000000000000C372
:1057E0006666243C1800000000000000000000DB9A
:1057F0005A5A5A5666000000000000000000006679
:105800003C18183C6600000000000000000000C3C7
:105810006666243C18180F03000000000000007E9C
:1058200020100C067E000000000000007018101010
:105830000C18101818700000000000001818181834
:105840001818181818181800000000000E1818086A
:1058500030180818180E00000000000000000000BA
:105860004E7200000000000038B5040020006C49B2
:1058700088421ED06B49884224D06B49884233D07D
:105880006A49884239D06A4988423FD0694988428A
:1058900045D06949884203D0684988421BD047E017
:1058A00040F604152800FDF757F82800FDF768F8C2
:1058B0003EE040F611052800FDF74EF82800FDF700
:1058C0005FF835E040F612052800FDF745F828009E
:1058D000FDF756F82CE040F605152800FDF73CF8DA
:1058E0002800FDF74DF823E040F613052800FDF7EA
:1058F00033F82800FDF744F81AE040F614052800B4
:10590000FDF72AF82800FDF73BF811E040F61E05E8
:105910002800FDF721F82800FDF732F808E040F6EE
:105920001F052800FDF718F82800FDF729F8FFE704
:1059300031BD2DE9F84304000D00002600275FF07B
:1059400000085FF000092000354988421FD0354922
:10595000884221D03449884223D03449884225D016
:105960003349884227D03349884229D03249884276
:1059700003D03249884205D027E00320FDF724F800
:10598000060022E00320FDF71FF806001DE00220BC
:10599000FDF71AF8060018E00220FDF715F80600DA
:1059A00013E00220FDF710F806000EE00220FDF7DC
:1059B0000BF8060009E00220FDF706F8060004E0F7
:1059C0000220FDF701F80600FFE714F10C00006863
:1059D000000412D52800400810EB4600B0FBF5F299
:1059E0004FF6F0701040C2F3420151EA00039BB23F
:1059F00014F1080CCCF800300FE016EB5500B0FBAA
:105A0000F5F24FF6F070104012F00F0151EA00036A
:105A10009BB214F1080CCCF80030BDE8F183000013
:105A20000044004000480040004C0040005000404E
:105A300000780040007C004000100140001401404C
:105A400010F10C02126832F4C06210F10C031A60FB
:105A500010F10C0212680A4310F10C031A6070472F
:105A600010F10C02126832F4805210F10C031A602B
:105A700010F10C0212680A4310F10C031A6070470F
:105A800010F11002126832F4405210F110031A6043
:105A900010F1100212680A4310F110031A607047E7
:105AA00010F10C01096851F4005110F10C02116061
:105AB000704710B4002210F10C031B6833F0080388
:105AC0000B4310F10C04236010BC704710B400228B
:105AD00010F10C031B6833F004030B4310F10C04AA
