:020000040800F2
:10000000C0850020214B0008954500089745000851
:10001000994500089B4500089D4500080000000028
:100020000000000000000000000000009F450008E4
:10003000A145000800000000A3450008A5450008F0
:10004000414B0008454B0008494B00084D4B000848
:10005000514B0008554B0008594B00085D4B0008F8
:10006000614B0008654B0008694B00086D4B0008A8
:10007000714B0008754B0008794B00087D4B000858
:10008000814B0008854B0008894B00088D4B000808
:10009000914B0008954B0008994B00089D4B0008B8
:1000A000A14B0008A54B0008A94B0008AD4B000868
:1000B000B14B0008B54B0008B94B0008BD4B000818
:1000C000C14B0008C54B0008C94B0008CD4B0008C8
:1000D000D14B0008D54B0008D94B0008E945000872
:1000E0004D460008DD4B0008E14B0008E54B0008D9
:1000F000E94B0008ED4B0008F14B0008F54B0008F8
:10010000F94B0008FD4B0008014C0008054C0008A5
:10011000094C00080D4C0008114C0008614900080A
:10012000154C0008194C00081D4C0008214C000813
:10013000254C0008294C00082D4C0008314C0008C3
:10014000354C0008394C00083D4C0008414C000873
:10015000454C0008494C0008154700081B4600089C
:100160004D4C0008514C0008554C0008594C0008F3
:100170005D4C0008614C0008654C00080000000060
:10018000694C00086D4C0008714C0008754C000863
:10019000794C00087D4C0008814C000800000000EC
:1001A000854C0008894C00088D4C000840F0200068
:1001B00070472DE9F14FB0B0924604910DF1420124
:1001C0003A9A2B9199464A7000200AE01AF8011BCE
:1001D0000498309A90470028049000F044860D98C7
:1001E000401C0D909AF8000058B12528EED100204F
:1001F000002100220790089109920A910B920C911C
:1002000004E00D9800F031BE41F001011AF8010F31
:100210002028F9D023280CD02B2804D02D2805D055
:10022000302809D00BE041F00201EFE741F0040172
:10023000ECE741F00801E9E741F01001E6E72A2880
:100240000FD1D9F8002052F8040BC9F8002000287B
:100250000F9003D540420F9041F004010AF1010ACA
:1002600014E00F92DFF8082C0AE00F9B934205DAA6
:1002700003EB830400EB440030380F900AF1010ACD
:100280009AF80000A0F130030A2BEED39AF8002070
:100290002E2A03D04FF0FF300E9029E01AF8010FFC
:1002A0002A2809D1D9F8002052F8040BC9F80020F7
:1002B0000E900AF1010A1BE02D280CBF0AF1010A79
:1002C000002000220E92DFF8A84B0BE040B90E9BF5
:1002D000A34205DA03EB830502EB4502303A0E92A6
:1002E0000AF1010A9AF80020A2F130030A2BEDD39B
:1002F000ADF840100FF67C309AF8001000F0FCFECC
:1003000008B11AF8010B8DF842009DF842006828E8
:1003100005D19AF8001068290CD1622006E06C28FB
:1003200004BF9AF800106C2904D171208DF84200A6
:100330000AF1010A12AA06921AF801BBBBF12500C4
:100340002CD01C3800F09781001F022840F29381C6
:10035000133800F0BA84093800F08D81801E00F057
:100360004F85401E00F0FC84401E022840F283812D
:10037000001F00F0F584401F00F0F280401E00F0E6
:10038000A484401E00F0DA80C01E0ED0801E00F053
:100390009C84C01E00F0998400F03DBD01222521FF
:1003A00007928DF8481000F042BDD9F8000050F8CF
:1003B000044BC9F80000002C059440F0AB802B9949
:1003C0004878002800F0A1804FF0FF340FF6AC20F1
:1003D00000F09EFE241A40F0468500F028BD01235F
:1003E0006A4602A9304600F00DFE002840F03B8529
:1003F000641EF4D13096079C12AF74B1309E17F88A
:10040000011B0498B0470028049000F02C850D983B
:10041000401C641E0D90F2D130960A9C3021002CB5
:100420008DF800100CDD309E01236A4602A930468B
:1004300000F0E8FD002840F01685641EF4D13096E7
:10044000059F089C74B1309E17F8011B0498B047B3
:100450000028049000F007850D98401C641E0D9044
:10046000F2D130960B9C3021002C8DF800100CDD61
:10047000309E01236A4602A9304600F0C3FD0028E1
:1004800040F0F184641EF4D1309605980899099CD7
:10049000471874B1309E17F8011B0498B047002824
:1004A000049000F0E0840D98401C641E0D90F2D181
:1004B00030960C9C3021002C8DF800100CDD309E05
:1004C00001236A4602A9304600F09CFD002840F056
:1004D000CA84641EF4D130969DF8400041077FF530
:1004E00081AE2020002D8DF800007FF77BAE309C80
:1004F00001236A4602A9204600F084FD002840F04E
:10050000B2846D1EF4D130946CE60FF6583005902D
:1005100000F08DBC0E9D002D04D5204600F018FE85
:10052000044608E02A460021204600F02DFE00285F
:1005300014BF041B2C46089400F079BCD9F80010B5
:1005400051F8040BC9F8001020F00002002121F03E
:10055000FF33CDE9022312AC0594782100F04CBCA6
:100560002B99487820B14FF0FF340FF6C8202FE7C1
:100570009DF84200622860D0682817D06A283FD0D2
:100580006C2806D0712847D074282CD07A281DD02A
:1005900062E0D9F8001051F8040BC9F800100028E7
:1005A00066D14FF0FF340FF6A42011E7D9F8001000
:1005B00051F8040BC9F8001020B94FF0FF340FF6C2
:1005C0008C2005E70D99018000F031BCD9F80010AE
:1005D00051F8040BC9F80010002849D14FF0FF343E
:1005E0000FF66820F4E6D9F8001051F8040BC9F8AA
:1005F000001000283CD14FF0FF340FF65020E7E602
:10060000D9F8001051F8040BC9F8001080B94FF068
:10061000FF340FF63820DBE6D9F8001051F8040B50
:10062000C9F8001020B94FF0FF340FF62020CFE6B4
:100630000D9AD317C0E90023F9E3D9F8001051F857
:10064000040BC9F8001020B94FF0FF340FF6FC106E
:10065000BEE60D990170EAE3D9F8001051F8040BD9
:10066000C9F8001020B94FF0FF340FF6E010AFE6E4
:100670000D990160DBE39DF842004C2807BFD9F8D3
:100680000010CA1DD9F80000C21D22F00702C9F8E7
:100690000020D2E900010832C9F80020CDE90201AA
:1006A000C80F02D007982D210AE0BDF8400081074D
:1006B00002D507982B2103E0C00705D50798202114
:1006C00012AA1154401C079012A807994BF020035E
:1006D00000EB010CDDE90201CDE92C01612BCDF825
:1006E00014C021AC0BD00E98002848BF062105D4B9
:1006F00004BF4BF02000672801D101210E91DDE9F4
:1007000002014F0047EAD0777E15FF174FF0FF3206
:10071000974208BF964210D1090341EA10510003E5
:10072000002908BF002808D0ABF1610503211A2D6C
:10073000089118D30FF6341110E0DDE902014A00E8
:10074000521512F1010F11D108030FD1ABF1610560
:1007500003211A2D08911FD30FF6181103226046AA
:1007600000F03EFD63E30FF60011F7E7DDE902015B
:100770006A4600F089FDCDE902014BF020006128B6
:1007800011D1059830220270811C0591BBF1610FD7
:100790000CBF7821582102E00FF6D401DEE741704A
:1007A0000798801C0790DDE9020120F0000231F07B
:1007B000004308BF002A02D10026002542E14BF089
:1007C0002008B8F1610F40F092800E99002947BFD0
:1007D00021200190491C0191019FDDE92C017F1C22
:1007E00000220023DDE9024500F086FD38BF85F0D8
:1007F000004500988DF88420001F002F00900DF117
:10080000850632DD204629460022002300F08EFDB9
:100810002BD21C2200F0A4FD04460D4600F03EFE43
:10082000FF1F002F804609DD00F054FE02460B46F4
:100830002046294600F01EFF04460D46F01D072104
:10084000B8F1000F0CDD491E5EBF08F00F0200F882
:10085000012D4FEA2818F3D502E0002200F8012DFF
:10086000491EFAD5C61D002FCCDC0DF18500361AC5
:1008700001980DF185048642D8BF304600282FD458
:10088000B04206DA0DF185010A5C082AA8BF0F21E3
:1008900000DA0021024621AB134400E0401E13F8A9
:1008A0000159521E8D42F9D00F2904D10DF1850155
:1008B0008B5C5B1C8B54002A04D50099091D21AC6C
:1008C000401C0091411E0BD4621813783033DDB206
:1008D0003A2DA4BF5B443A3B491E02F80139F4D5D6
:1008E0000E9A002A40F1AC80411E0E91A8E00099BA
:1008F000DFF8002747F29750414391FBF2F2009254
:10090000DDE92C45C2F10702002A25F0004504DD8F
:100910002046294600F04AFB0BE052420020DFF857
:10092000D81600F043FB02460B462046294600F04D
:1009300013FF04460D46B8F1660F06BF009F0A3745
:1009400006270E983F18142FC8BF142730208DF8A3
:1009500084000DF18506002F34DD2046294601F084
:100960001FF801460A4606F1080304200A26B2FBD6
:10097000F6F606EB860EA2EB4E02303203F8012C9F
:100980000A22B6FBF2F202EB820EA6EB4E063036DE
:10099000401E03F8026DE9D1083F002F03F108065D
:1009A000D9DD084601F00EF802460B4620462946DE
:1009B00000F060FE0022DFF8443601F011F8044632
:1009C0000D46CAE70DF18500361A0DF1850404E0E5
:1009D0000098401E761E0090641C20783028F7D0C6
:1009E000B8F1660F02D10098401C04E0B8F1650F21
:1009F0000CBF012000200E9940188642B8BF701E1F
:100A000000281DD4B04204DA215C3429C8BF392142
:100A100000DC30210246631E9D1800E0401E15F8E0
:100A20000169521E8E42F9D0392902D1A15C491CBC
:100A3000A154002A04D50099491C1C46401C009171
:100A40000646009D01F0A2F8406A0778DDF838807C
:100A500030B2002802DC01260FF21C644BF02000AB
:100A6000662808BF6D1C16D0672845D128B210F142
:100A7000040F47DB404545DA9DF840006D1C010737
:100A800003D430B24045D8BF804628B2B8EB000846
:100A900048BF4FF000080FFA85FBBBF1000F00F3D1
:100AA000B3800898411C0891302205990A54B8F186
:100AB000000F03DC9DF84000010704D50898411C95
:100AC000089105990F5418EB0B0FB8BFC8F100053A
:100AD0002DB26842454432B20B909542B8BF2E46C3
:100AE000059B089836B2099632462146184400F014
:100AF00077FBAD1B0C95D1E0BBF1610F17D14FF027
:100B0000700B19E030B2404504DA9DF840100A0736
:100B100058BF8046B8F1010848BF4FF00008BBF14C
:100B2000670F14BF4FF0450B4FF0650B04E0BBF1AE
:100B3000410F08BF4FF0500B0898411C0891B8F1C5
:100B4000000F059914F8012B0A5403DC9DF84000AE
:100B500001071AD50898411C0891B8F1000F0599B2
:100B60000F5412DD761E30B28045B8BF4646059858
:100B7000089B32B22146184400F032FB089836B286
:100B800030180890A8EB06000B90059808990144CE
:100B900028B2002881F800B003D42B204870891CAB
:100BA00004E02D224A700546891C6D4200202CAAC3
:100BB0000AE02B460A2593FBF5F505EB8504A3EB2C
:100BC000440302F8013B401C2DB2002DF1DC01284A
:100BD00006DC4BF02002652A04BF302201F8012B0D
:100BE00000282CAA08D1302001F8010B06E0401E95
:100BF000135C303301F8013B0028F8DC059A0898B3
:100C00001044091A099149E030B229B288421CDA2D
:100C10000598089B32B22146184400F0E1FA089981
:100C200036B271180891ABEB0600B8F1000F0B90CB
:100C300003DC9DF84000020704D505984754099944
:100C4000491C0991CDF8308028E00598089B2AB20C
:100C50002146184400F0C4FA0898761B5844B8F1AD
:100C6000000F089003DC9DF840100A0703D5411CD3
:100C7000089105990F5430B28045B8BF4646059893
:100C8000089B32B204EB0B01184400F0A9FA089853
:100C900036B230180890A8EB06000B909DF8400083
:100CA00000F01400102840F0C280079A08980B99B1
:100CB000821809988A1882180C980F99801888420F
:100CC00080F2B580081A0A90B1E09DF842006228CF
:100CD00008D068280ED06A2814D06C281FD071283C
:100CE00010D01CE0D9F8001051F8040BC9F800101E
:100CF000C0B21AE0D9F8001051F8040BC9F800107E
:100D000080B212E0D9F80000C21D22F00702C9F833
:100D10000020D2E900010832C9F8002006E0D9F825
:100D2000001051F8040BC9F800100021CDE90201B0
:100D30009DF8400002075AD5DDE90201002908BFED
:100D4000002854D04BF02002782A50D1079812A9DD
:100D500030230B54401C421C079201F800B046E0BF
:100D60009DF84200622808D068280ED06A2814D066
:100D70006C281FD0712810D01CE0D9F8001051F851
:100D8000040BC9F8001040B21AE0D9F8001051F86D
:100D9000040BC9F8001000B212E0D9F80000C21D1F
:100DA00022F00702C9F80020D2E900010832C9F890
:100DB000002006E0D9F8001051F8040BC9F8001023
:100DC000C117CDE90201002902D507982D210AE0BB
:100DD000BDF84000810702D507982B2103E0C0072A
:100DE00005D50798202112AA1154401C079012A87B
:100DF000079901440591594602A800F04DF816E004
:100E000001200790D9F8001051F8040BC9F8001020
:100E10008DF848000BE001202521BBF1000F079061
:100E20008DF8481003D0022107918DF849B00F9D2D
:100E300007980A992D1A08986D1A0B992D1A099876
:100E40006D1A0C992D1A9DF840006D1A41073FF557
:100E5000D2AA2020002D8DF800007FF7CCAA309E6A
:100E60002C46FFF7BCBA4FF0FF3031B0BDE8F08F31
:100E7000CBCCCC0C686A6C747A4C00007072696ED2
:100E800074665F733A206261642025732061726723
:100E9000756D656E740000002DE9FC4D06468846B0
:100EA000376940466F2808BF082405D0FFF77EF950
:100EB000782814BF0A241024D6E900013C25824674
:100EC0008B46B8F1640F18BFB8F1690F05D100293E
:100ED00003D5DAF1000A6BEB4B0BBBF1000F08BF37
:100EE000BAF1000F0CD1306B50B9082C3AD196F8FA
:100EF0003800010736D530223B2587F83B2031E00A
:100F00008DF80080504659462246002300F042FEEC
:100F10003032D0B26D1E3A2801950EDA7A5550461D
:100F200059462246002300F035FE82465FEA010B57
:100F300008BFBAF1000F05D108E09DF800001218B3
:100F4000513AEBE7F06879198842DBD3082C09D1D4
:100F500096F83800010705D5785D302802D06D1E5F
:100F600030207855C5F13C02306BB261791982426C
:100F7000F16008DA318F821A4FF6EF700140318745
:100F80003262BDE8F38D00280ED596F8380000F0E7
:100F90001400102808D1736B7069316A1B1A5B1A30
:100FA0009B1A002BC8BF3362BDE8F38D2DE9D043F7
:100FB00006460F4614464FF00008DFF8449012E052
:100FC000E00707D542464B463046394600F008FD5B
:100FD00006460F464046494642464B4600F000FD55
:100FE000641080468946002CEAD130463946BDE877
:100FF000D0830000A08601000000F03F84D7974115
:1010000000002440F8B505460E4617461C46002051
:101010005CB117F8011BB068A847B06030B1F06A46
:10102000401CF0620020641EF3D1F2BD4FF0FF308F
:10103000F2BD00007072696E74665F733A20256EAF
:1010400020646973616C6C6F776564007072696E9F
:1010500074663A2062616420256E20617267756D46
:10106000656E7400000000006E616E004E414E001F
:10107000696E6600494E46003000F0B402461068C2
:1010800095681318506803EB5004C00748BF4D44DF
:10109000A3422DD013F8016B16F0030004BF13F820
:1010A000010BC01C31090F2907D113F8011B0F31A7
:1010B00003E013F8017B05F8017B401EF9D10029FC
:1010C000E6D013F8010BC6F38106032E08BF13F810
:1010D000016B00EB0620404228440026B71E8F42D9
:1010E0001EBF10F8017B05F8017B761CF6D1CFE717
:1010F000F0BC02F10C007047C9B202788A421AB102
:101100001CBF10F8012FF9E718BF002070472E0010
:1011100080B500B906A005490B681BB12222002149
:10112000984701E000F04EFE222002BDB06500208D
:10113000636F6E73747261696E742068616E646C43
:1011400065723A20626164206D6573736167650042
:1011500000F10103810704D010F8011B820781B15F
:10116000FAD10268A2F10131914311F0803104BF3C
:1011700050F8042FF6E709BAB1FA81F100EBD1007B
:10118000401CC01A70470000C9B2830706D0521E27
:1011900022D310F8013B9942F7D11FE0083A13D34C
:1011A00002F1040241EA012141EA014150F8043B05
:1011B000121F21BF4B40A3F1013C2CEA030C1CF091
:1011C000803FF3D0C9B2001F0832521E24BF10F86E
:1011D000013B91EA030FF8D818BF0120401E704769
:1011E00062B38B0708D0521E11F8013B00F8013B97
:1011F00000F024808B07F6D1830740F0208000BFE9
:10120000103A07D330B4B1E83810103AA0E83810DB
:10121000F9D230BC530724BFB1E80810A0E8081089
:1012200044BF51F8043B40F8043BD20724BF31F8D7
:10123000022B20F8022B44BF0B7803707047121F5B
:1012400017D35B0009D151F8043B20F8023B1B0C7B
:10125000121F20F8023BF6D20BE051F8043B00F8D5
:10126000013B1B0A20F8023B1B0C121F00F8013B3C
:10127000F3D238BF121D521E24BF11F8013B00F8F3
:10128000013BF8D87047000010B5144600F002F892
:10129000226010BDC1F30A5343B14A0012F5001F8A
:1012A00028D2A3F2FE32A1EB0251704750EA410C62
:1012B00020D001F0004C31EA0C01B1FA81F204BFF8
:1012C000B0FA80F3D2180B3AB2F120032CBF00FA27
:1012D00003F1914041EA0C013EBFC2F1200C20FA1B
:1012E0000CF319439040524240F2FD33D21A01EB05
:1012F000035170470022704741EA030C50EA4C0C3E
:1013000052EA0C0C4FF4001C09D307D01CEB410F20
:101310009CBF1CEB430F8B4208BF824270471CEB03
:10132000430FFBD8994208BF9042704741EA030C33
:1013300050EA4C0C52EA0C0C4FF4001C09D307D0B5
:101340001CEB410F9CBF1CEB430F994208BF90421E
:1013500070471CEB410FFBD88B4208BF824270479D
:10136000124254D440F2FF7C1CEA11530FD0634563
:1013700031D09B1863453CBF01EB0251704701F02F
:10138000004141EA0C510020AFF30080704750EA61
:10139000410320D001F0004C91EA0C011CD0B1FABD
:1013A00081F30B3B9A420DD9D21A994051EA0C01B4
:1013B000C3F1200C20FA0CFC61449840531C40F20D
:1013C000FF7CD7E7914041EA0C01C2F1200C20FAE2
:1013D0000CF3194390407047B0FA80F31533202B7B
:1013E000E0D3202AEED3203A203B9A4209D9D21AE0
:1013F00000FA03F141EA0C010020531C40F2FF7C8B
:10140000B8E700FA02F141EA0C01002070475242AD
:1014100040F2FF7C1CEA11530DD06345DBD0B2EBE8
:10142000030C3CBFA1EB025170470CF1010221EA11
:10143000035141F4801150EA410CCCD001F0004C32
:10144000352A27DC30B481EA0C01B2F1200309DA35
:10145000C2F12003044601FA03F5D0402843D140ED
:101460009C400CE0C3F12002450020FA03F418BFB1
:1014700044F0010421FA03F091400C43002174F17F
:10148000004550F1000051EB0C01244230BC7FF4C8
:101490007BAF70476146002076E70000C1F30A5336
:1014A00040F21E42D31A0CDDCA0283F3070342EA5C
:1014B000505242F00042DA4002EBE17282EAE170FF
:1014C00070476FEAE17203F2E13008B182F0004048
:1014D0007047000010F0004160B148BF4042B0FAD0
:1014E00080F29040D21CC2F5846241EA025202EBC3
:1014F000D02140057047000070B491EA030F4FF00F
:10150000004540F1BF806B40841A71EB030604D2A2
:101510006E40001BB141121973414FF4001C1CEBCB
:10152000410F34BF7CEB430683E00C0DA4EB135654
:10153000362E00F37C80012E45EAC32341DC43EACA
:10154000525312BFD20292025B08240545EAC12120
:1015500041EA5051D2EBC020994125D407D1B0FACD
:1015600080F610FA06F162D00020203608E0B1FAC9
:1015700081F6B140C6F1200220FA02F21143B040D8
:101580004FEAF474B4EB465434F001064FEA7404A5
:101590000AD8D6F50016760D04F00044F04061FA42
:1015A00006F25040F1404840C00A40EA415021F064
:1015B000004128BF5FEA500550F1000044EBD12103
:1015C00035E0DB0A45EAC121C90AB6F120050EDD86
:1015D00042EA0242120CC5F1200603FA06F6EB407D
:1015E00042EA06056D42984161F100010DE062FAA0
:1015F00006F5F240554063FA06FC82EA0C02F3401D
:101600005A406D42904161EB030111F4801F05D1F6
:10161000641E620502D06D004041494121F48011F1
:10162000430875F1004350F1000041EB045170BCD8
:1016300070471CEB410F15D223F0004352EA4306DA
:101640000BD04FEA4C0CBCEB410F04D80C0D661EBE
:10165000342EB7DDEBE7801A994150EA410608BF06
:101660000021E4E708BF1CEB430F28BF6FF0000127
:10167000DDE7000070B491EA030F4FF000457FF5FD
:1016800043AF6B40841A71EB030603D2001BB141D8
:10169000121973414FF4001C1CEB410F34BF7CEB5B
:1016A000430442E00C0DA4EB1356352E4FDC45EA03
:1016B000C323DB0A45EAC121C912B6F120050DDDBD
:1016C00063FA05F6EB4086EA0305124218BF45F0BF
:1016D0000105C01851F100010CD213E062FA06F5C1
:1016E000F2405540F3415A40B340F3405A4080180D
:1016F000594107D349085FEA30005FEA350528BF42
:1017000045F0010501F58011420875F1004250F1E4
:10171000000041EB04514E0016F5001F70BC38BFAD
:1017200070470020090D090570471CEB410F10D2CE
:1017300052EA43060BD0BCEB410F05D80C0DAB436E
:10174000661E342EB6DD02E0AB438018594170BCF2
:10175000704770BC70470000F0B540F2FF7581EA39
:10176000030C0CF0004C15EA11541DBF15EA135779
:10177000AC42AF42E5E0BC41C1F31301C3F3130334
:10178000801A994143F4801304D2641E0018494121
:1017900080185941C90241EA5051B1FBF3F603FBED
:1017A0001611A2FB0675D7EBC020A94102D2761E06
:1017B00080185941C90241EA5051B1FBF3FE03FBC5
:1017C0001E11A2FB0E75D7EBC020A94103D2AEF1CA
:1017D000010E80185941890241EA9051760546EA86
:1017E0008E2EB1FBF3F603FB1611A2FB0675D7EBA9
:1017F0008020A94102D2761E80185941C90241EACF
:1018000050514EEA060EB1FBF3F603FB1611A2FB94
:101810000675D7EBC020A94102D2761E8018594127
:10182000C90241EA5051B1FBF3F703FB1711A2FBC8
:101830000735D3EBC020A94167F100070CBF004278
:1018400047F0010766F3D5274FEA1E31B80814F5B3
:10185000806412DDBD0775F1004250EB0E5051EB74
:10186000045111F5801F5CBF41EA0C01F0BD4CF042
:101870007F6141F0E0410020F0BDBD076D0840EA06
:101880000E5041F48011D4F10104B4F120060ADABB
:10189000C4F120060200E04001FA06F3E1401843DB
:1018A000B24015430EE0342C13DCC6F1200445EAA7
:1018B00040056D0820FA06F2154321FA06F0A14012
:1018C0000D43002175F1004250F1000051EB0C0175
:1018D000F0BD00205FEA0C01F0BDCFB992185B416A
:1018E000B3FA83F704BFB2FA82F6BF190B3FB7F120
:1018F00020062FBF02FA06F3BB40C7F1200622FAEA
:1019000006F638BF3343BA401CB1E419641E33E70E
:101910007F4231F00041B1FA81F404BFB0FA80F6A1
:10192000A4190B3CB4F120062FBF00FA06F1A14028
:10193000C4F1200620FA06F638BF3143A0403C1B14
:101940001AE7AC421ABF05EA1357AF4212E050EA59
:1019500041061CBF52EA4306BFE750EA4107304642
:1019600061461CBF41EA0551F0BD52EA430C08BF75
:10197000C143F0BD00204FF4001616EB410F98BF95
:1019800016EB430F08BF16EB410F24BFC14305E020
:1019900016EB430F0CBF61464CEA0551F0BD000049
:1019A000400D40F21E4C40EAC120BCEB115C40F0FF
:1019B000004003D48CF30701C84070476FEAE17020
:1019C0007047000050B1B0FA80F18840C91CC1F5E1
:1019D0008461090501EBD02140057047014670473D
:1019E00030B540F2FF7C1CEA11541DBF1CEA1355B0
:1019F000644565453FE0641981EA030C6FF35F536A
:101A00000CF0004C43F48013C90241F0004141EA5C
:101A1000505EC5021100A5FB020200284FF0000035
:101A2000EEFB01204FF00001E3FB052118BF42F05F
:101A30000102401800214941E3FB0E01A4F5806436
:101A40000D0302D292184041494154F1010470DD66
:101A5000450872F1004250F1000051EB0451A1F52C
:101A6000801102D441EA0C0130BD40F2FF7E4CEA05
:101A70000E51002030BD0CEA1355644518BF654572
:101A800081EA030C0CF0004C41D050EA410E1CBF1F
:101A900052EA430E02E06146002030BD24422C444D
:101AA0001BD15FEA050EF6D0090302BF01460020F4
:101AB000AEF1140EB1FA81F5AEEB050401FA05FEA4
:101AC0000C35C5F1200100FA05F5C8404EEA000EBC
:101AD0006FF35F5343F480139CE733F00043B3FA92
:101AE00083F504BFB2FA82FE75440B3D641BB5F169
:101AF000200E2FBF02FA0EF3AB40C5F1200E22FAE2
:101B00000EFE38BF43EA0E03AA40641C7CE750EA8D
:101B1000410E14BF52EA430E6FF000014FF400155E
:101B200015EB430F8EBF194615EB410F9DE7B4D857
:101B300030BDD4F10104B4F120050FDAC4F1200561
:101B4000520828BF42F0010210FA05FE01FA05F51D
:101B50007244E2BFE0402843E1400FE0352C9ADCBC
:101B6000C5F1200452EA400220FA05F218BF42F003
:101B7000010231FA05F0A1400A43002172F100424E
:101B800050F1000051EB0C0130BD000000487047DF
:101B900008000020BBBBE1B1B2F5803F80F07E8041
:101BA000022A1ED98C46B1FBF2F102FB11C31B04C1
:101BB00043EA1043B3FBF2FC02FB1C3380B240EA61
:101BC0000343B3FBF2F002FB103240EA0C40002367
:101BD0007047022A05D98446B0FBF2F002FB10C21E
:101BE00070474AB105D100F0010249085FEA3000B0
:101BF000704700220023704700F0E8B80B00020095
:101C0000002100207047904271EB030CF6D3B3F52E
:101C1000803F2FD2F0B5B3FA83F7B1FA81F4A7F180
:101C20000F0E3D1B5340CEF1200602FA0EF2F34197
:101C30005340B5F10F0746D80F3C2C444140C4F146
:101C40002006A040F1414140B1FBF3F603FB161121
:101C5000A2FB0645001BA94102D2761E80185941FD
:101C600080EA010221FA0EF362FA0EF200215A40D4
:101C70003046F0BD30B4B1FBF3FC03FB1C11A2FBFA
:101C80000C45001BA94103D2ACF1010C801859414D
:101C900030BC02460B46604600217047B2F1807F9F
:101CA00065D3F0B5B2FA82F7B1FA81F4C7F10F0645
:101CB0003D1B22FA06F307F1110EF24120355A407E
:101CC000B5F10F07B8D94140C4F12006A040F14159
:101CD0004140B1FBF3FC03FB1C11A2FB0C45001BB4
:101CE000A94103D2BCF1010C801859410F2F12D326
:101CF0000F3FC90341EA5041B1FBF3F603FB161154
:101D0000A2FB0645D4EBC030A94102D2761E801852
:101D1000594146EACC3C07B34140C7F12006B840E0
:101D2000F1414140B1FBF3F603FB1611A2FB06455E
:101D3000001BA94102D2761E8018594180EA010297
:101D400021FA0EF3C7F1200462FA0EF20CFA07F042
:101D50005A402CFA04F13043F0BD80EA010221FA26
:101D60000EF3002162FA0EF260465A40F0BD8C4636
:101D7000B1FBF2F102FB11C31B0243EA1063B3FB98
:101D8000F2FC02FB1C331B024CEA002043EA106306
:101D9000B3FBF2FC02FB1C331B024CEA002043EABB
:101DA0001063B3FBF2FC02FB1C331B024CEA002065
:101DB00043EA1063B3FBF2FC02FB1C324CEA002046
:101DC00000237047012000F003B8000070470000B6
:101DD00080B5AFF30080024A11001820ABBEFBE7CC
:101DE0002600020070B418220B00DBB202FB0303D2
:101DF00010330C00E4B202FB0404103424686408BD
:101E000064001C600B00DBB202FB030310330024F0
:101E10001C600B00DBB202FB0303143300241C60C4
:101E20000B00DBB202FB0303183300241C600B0021
:101E3000DBB202FB03031C3300241C600B00DBB28B
:101E400002FB0303203300241C600B00DBB202FB07
:101E500003022432212313600A00D2B2042A13DAC7
:101E600010F1080213683D240D00EDB206260A00A9
:101E7000D2B2C2F34002920006FB0525AC402343D8
:101E800010F10802136013E0091F10F10C0213682F
:101E90003D240D00EDB206260A00D2B2C2F3400284
:101EA000920006FB0525AC40234310F10C021360A1
:101EB00070BC7047002101600121416000218160F8
:101EC0000121C16000210161012141610021816185
:101ED0000021C16100210162704770B418240B0019
:101EE000DBB204FB030324330D00EDB204FB050554
:101EF00024352D6835F004051D600B00DBB204FBB2
:101F00000303183315681D600B00DBB204FB0303E9
:101F10001C3395681D600B00DBB204FB0303143314
:101F2000D5691D600B00DBB204FB030310331D6891
:101F3000424B1D4013691D43136955EA8305136A1B
:101F40001D4393691D430B00DBB204FB03031033F5
:101F50001D605368002B0ED10B00DBB204FB0303A2
:101F600010330E00F6B204FB06061036366856F43F
:101F700000761E601FE05368012B0ED10B00DBB210
:101F800004FB030310330E00F6B204FB0606103602
:101F9000366836F400761E600DE00B00DBB204FB01
:101FA000030310330E00F6B204FB06061036366843
:101FB00056F400461E60D368002B0ED10B00DBB236
:101FC00004FB030310330E00F6B204FB06061036C2
:101FD000366856F480661E600DE00B00DBB204FB31
:101FE000030310330E00F6B204FB06061036366803
:101FF00036F480661E605369002B0ED10B00DBB2F5
:1020000004FB030310330E00F6B204FB0604103485
:10201000246854F480741C600DE00B00DBB204FBF8
:10202000030310330E00F6B204FB060410342468D8
:1020300034F480741C6070BC704700003F87FCFF64
:1020400010B418220B00DBB202FB030310330C00A8
:10205000E4B202FB04021032126832F480721A6099
:1020600010BC704710B418220B00DBB202FB030354
:1020700010330C00E4B202FB04021032126852F07A
:1020800001021A6010BC704710B418220B00DBB2BA
:1020900002FB030310330C00E4B202FB0402103213
:1020A0001268520852001A6010BC704730B41824ED
:1020B0000B00DBB204FB030310331B6833F06063D7
:1020C0001500EDB253EA45630D00EDB204FB0504C3
:1020D0001034236030BC7047F0B505000B001400CD
:1020E000002100221E001800C0B2042880F29E8049
:1020F0002000012808D0042823D008283ED010282A
:1021000059D0202874D090E02F689C465FFA8CFC50
:102110005FF0060E1800C0B2C0F3400080000EFB56
:102120000C0C14FA0CFC1CEA07073A001F00FFB263
:10213000182000FB07572437386810F08000010092
:1021400017E12F689C465FFA8CFC5FF0060E1800C2
:10215000C0B2C0F3400080000EFB0C0C14FA0CFC63
:102160001CEA07073A001F00FFB2182000FB0757C0
:102170001037386810F002000100FAE02F689C4622
:102180005FFA8CFC5FF0060E1800C0B2C0F340008E
:1021900080000EFB0C0C14FA0CFC1CEA07073A003A
:1021A0001F00FFB2182000FB07571037386810F0E7
:1021B00004000100DDE02F689C465FFA8CFC5FF0B4
:1021C000060E1800C0B2C0F3400080000EFB0C0CDD
:1021D00014FA0CFC1CEA07073A001F00FFB2182093
:1021E00000FB07571037386810F008000100C0E006
:1021F0002F689C465FFA8CFC5FF0060E1800C0B298
:10220000C0F3400080000EFB0C0C14FA0CFC1CEA1E
:1022100007073A001F00FFB2182000FB07571037CE
:10222000386810F010000100A3E0A2E0361F200083
:10223000012808D0042824D0082840D010285CD0D9
:10224000202878D095E0281D0768B4465FFA8CFCFA
:102250005FF0060E3000C0B2C0F3400080000EFBFD
:102260000C0C14FA0CFC1CEA07073A001F00FFB222
:10227000182000FB07572437386810F08000010051
:1022800077E0281D0768B4465FFA8CFC5FF0060E05
:102290003000C0B2C0F3400080000EFB0C0C14FAFA
:1022A0000CFC1CEA07073A001F00FFB2182000FBD5
:1022B00007571037386810F00200010059E0281D58
:1022C0000768B4465FFA8CFC5FF0060E3000C0B2BF
:1022D000C0F3400080000EFB0C0C14FA0CFC1CEA4E
:1022E00007073A001F00FFB2182000FB07571037FE
:1022F000386810F0040001003BE0281D0768B44670
:102300005FFA8CFC5FF0060E3000C0B2C0F34000F4
:1023100080000EFB0C0C14FA0CFC1CEA07073A00B8
:102320001F00FFB2182000FB07571037386810F065
:10233000080001001DE0281D0768B4465FFA8CFC08
:102340005FF0060E3000C0B2C0F3400080000EFB0C
:102350000C0C14FA0CFC1CEA07073A001F00FFB231
:10236000182000FB07571037386810F010000100E4
:10237000FFE7002A03D0002901D0012000E000205F
:10238000F0BD70B40B00DBB2042B13DA10F10803BC
:102390001C680D00EDB206260B00DBB2C3F3400350
:1023A0009B0006FB053512FA05F52C4310F10803D6
:1023B0001C6013E0091F10F10C031C680D00EDB246
:1023C00006260B00DBB2C3F340039B0006FB05357A
:1023D00012FA05F52C4310F10C031C6070BC704719
:1023E00000000000000000000000000000000000ED
:1023F0000000000000181818181800181800000035
:1024000000000000006C6C6C6C000000000000001C
:1024100000000000006C2C7E24247E343600000076
:1024200000000018187C26061C7060623E18000030
:1024300000000000000E1BEE187FD2D070000000DC
:1024400000000000003C66060C5E7373DE000000B6
:10245000000000000018181818000000000000001C
:102460000000000070180C0C04040C0C1870000024
:10247000000000000E18303020203030180E000010
:10248000000000000000185A7E3C660000000000BA
:102490000000000000001818187E18180000000046
:1024A00000000000000000000000000018180808EC
:1024B00000000000000000007E000000000000009E
:1024C00000000000000000000000001818000000DC
:1024D00000000000C060203010180C0C0606000040
:1024E00000000000003C66665A5A66663C00000028
:1024F00000000000001C1E18181818187E000000AC
:1025000000000000003C66606030180E7E00000095
:1025100000000000003C66601C3860623E00000065
:1025200000000000006466666662FE6160000000F4
:1025300000000000007C06063E6240663C00000091
:102540000000000000781C067E6642663C00000029
:102550000000000000FE6262203030101800000011
:1025600000000000003C6666186642663C00000001
:1025700000000000003C6642665E60381E000000FD
:1025800000000000000000181800001818000000EB
:1025900000000000000000181800000018180808CB
:1025A000000000000000607C070F78400000000081
:1025B000000000000000007E00007E00000000001F
:1025C000000000000000063EE0F01E0200000000D7
:1025D00000000000003C6660301800181800000081
:1025E00000000000003C665A6A4A4A7A063C000035
:1025F0000000000000183C3C24667E42C30000003E
:1026000000000000003E66661E66C6E67E00000012
:102610000000000000FC4E060302068E7C00000055
:1026200000000000003E6242C2C242623E00000062
:1026300000000000007E06063E0606067E00000042
:102640000000000000FE0606063E0606060000002A
:1026500000000000007CC602037342467C000000BC
:1026600000000000004242427E424242420000001E
:1026700000000000007E1818181818187E000000CE
:102680000000000000784040404043663C000000ED
:102690000000000000464666363E3666C600000072
:1026A0000000000000060606060606067E00000082
:1026B000000000000066565A5A5A4242420000008A
:1026C0000000000000464E4A4A525272620000006A
:1026D00000000000003C6642C3C342663C000000AC
:1026E00000000000003E66C6667E0606060000008A
:1026F00000000000003C6642C3C342667E181870AA
:1027000000000000003E6242627E3262C2000000B1
:1027100000000000003C66061C3860623E000000BD
:102720000000000000FF1818181818181800000002
:102730000000000000424242424242663C0000006B
:102740000000000000C3426666243C3C1800000004
:102750000000000000C3C3DB5A5A5A5A660000004A
:102760000000000000E7663C18183C66E700000027
:102770000000000000C366243C1818181800000070
:1027800000000000007E603018080C067E0000008B
:10279000000000007C0C0C0C0C0C0C0C0C7C0000E1
:1027A000000000000306040C0818303060600000D0
:1027B000000000003E30303030303030303E00001D
:1027C0000000000018183C66000000000000000037
:1027D000000000000000000000000000007E00007B
:1027E000000000000C183000000000000000000095
:1027F000000000000000003E607C6262FE000000FD
:10280000000000000006063E664646663E000000E8
:10281000000000000000007C660606067C00000048
:10282000000000000060607C666262667C00000060
:10283000000000000000003C66627E067C00000094
:102840000000000000F018087F08080808000000D9
:10285000000000000000007C666262667C60603EF2
:10286000000000000006063E666666666600000020
:10287000000000000018101E101010107E00000054
:10288000000000000030303C303030303030381E36
:10289000000000000006066666363E26E6000000E0
:1028A00000000000000E0808080808587800000022
:1028B000000000000000007E5A5A5A5A5A000000D8
:1028C000000000000000003E6666666666000000CC
:1028D000000000000000003C666666663C000000E8
:1028E000000000000000003E664646663E06060602
:1028F000000000000000007C666262667C60606030
:102900000000000000000076CC0C0C0C1F00000042
:10291000000000000000007C061E70603E00000009
:1029200000000000000C0C7F0C0C0C0C7800000068
:10293000000000000000006666666666FC0000009D
:1029400000000000000000C36666243C1800000080
:1029500000000000000000DB5A5A5A5666000000D2
:1029600000000000000000663C18183C66000000F3
:1029700000000000000000C36666243C18180F0326
:10298000000000000000007E20100C067E00000009
:1029900000000000701810100C18101818700000BB
:1029A000000000001818181818181818181818001F
:1029B000000000000E18180830180818180E000043
:1029C00000000000000000004E7200000000000047
:1029D00080B569460D2000F04EF89DF800001A28D9
:1029E000F7D1DFF8380400F089FA05212A2000F039
:1029F000FEF802212B2000F0FAF810210E2000F042
:102A0000F6F801BD10B540F6054000F08BFA41F232
:102A1000160000F087FADFF80844032204212000A2
:102A200000F0C1FB032301220221200000F046FB3D
:102A3000032302220121200000F073FBDFF8E443AE
:102A40004FF48042DFF8E013200000F0F1FB382360
:102A500000220021200000F080FC200000F0A0FCFB
:102A60004FF48061200000F088FC200000F0B1FCF1
:102A7000FFF7AEFF10BD2DE9FC4104000D0044F648
:102A800020670097DFF8A403016851F480610160BA
:102A9000DFF89063300000F088FC00974FF4A061ED
:102AA000300000F09FFC002806D10098411E0091E4
:102AB0000028F3D1FF2098E07FF001023821300098
:102AC00000F062FC44F62060009040F201573900AB
:102AD000300000F087FC002806D10098411E0091CC
:102AE0000028F2D1FF2080E03900300000F08AFC9D
:102AF00044F62060009040F20751300000F072FC74
:102B0000002806D10098411E00910028F3D1FF2033
:102B10006BE02100C9B2300000F051FC44F62060A7
:102B2000009040F20251300000F05CFC002806D119
:102B30000098411E00910028F3D1FF2055E0DFF8F6
:102B4000EC02016851F480610160300000F02DFC5E
:102B500044F6206000904FF4A061300000F042FC89
:102B6000002806D10098411E00910028F3D1FF20D3
:102B70003BE001223921300000F006FC44F62068D9
:102B8000CDF800803900300000F02CFC002806D180
:102B90000098411E00910028F4D1FF2025E0390063
:102BA000300000F02FFC0021300000F0E6FBCDF8F3
:102BB000008040F20651300000F014FC002806D1DD
:102BC0000098411E00910028F3D1FF200DE0300055
:102BD00000F0FBFB2870300000F0ECFBDFF84C024B
:102BE000016851F4806101600020BDE8F6812DE9A3
:102BF000FC4104000D0044F6206700978B480168F3
:102C000051F480610160874E300000F0CEFB0097E8
:102C10004FF4A061300000F0E5FB002806D10098D9
:102C2000411E00910028F3D1FF2064E07FF00102F3
:102C30003821300000F0A8FB44F62060009040F2FC
:102C400001573900300000F0CDFB002806D1009874
:102C5000411E00910028F2D1FF204CE039003000E5
:102C600000F0D0FB44F62060009040F207513000A5
:102C700000F0B8FB002806D10098411E0091002802
:102C8000F3D1FF2037E02100C9B2300000F097FBFC
:102C900044F62067009740F202584146300000F0A9
:102CA000A1FB002806D10098411E00910028F2D116
:102CB000FF2020E05D48016851F480610160290037
:102CC000C9B2300000F07BFB00974146300000F0B5
:102CD00089FB002806D10098411E00910028F4D1FC
:102CE000FF2008E0300000F065FB5048016851F417
:102CF000806101600020BDE8F68181B00020009075
:102D00000098322803DA0098401C0090F8E701B0E0
:102D1000704710B540F6044000F004F9444C0C2311
:102D200001220121200000F0C9F90C230222012117
:102D3000200000F0F6F90421200000F022FA08211A
:102D4000200000F01EFA10BD10B5394C04212000FF
:102D500000F017FA0821200000F013FAFFF7CDFF6A
:102D60000421200000F011FAFFF7C7FF082120001E
:102D700000F00BFAFFF7C1FF10BD10B52C4C042179
:102D8000200000F002FAFFF7B8FF0821200000F051
:102D9000F8F9FFF7B2FF0421200000F0F2F9FFF785
:102DA000ACFF10BD38B504002000C0B2002804D02C
:102DB00004211F4800F0E5F903E004211C4800F05D
:102DC000E4F9FFF79AFF1A4D0821280000F0D9F91D
:102DD000FFF793FF0821280000F0D7F9FFF78DFFD8
:102DE00031BD38B5124D0421280000F0CAF9FFF7B3
:102DF00084FF0821280000F0C4F9FFF77EFF0421BA
:102E0000280000F0C6F904000821280000F0BDF9F0
:102E1000FFF773FF2000C0B232BD0000E04A000897
:102E20000014024000580040801A06001458004068
:102E30000010024038B504000025082D07DA2000F4
:102E4000C0B2C009FFF7AEFF64006D1CF5E7FFF7E5
:102E5000C8FF32BDF8B5050000260027082F07DAA5
:102E600076003400FFF7BDFF060026437F1CF5E720
:102E70002800C0B2002801D1012000E00020C0B22B
:102E8000FFF790FF3000C0B2F2BD38B504000D006E
:102E9000FFF75AFFD020FFF7CDFF2000C0B2FFF7A9
:102EA000C9FF2800C0B2FFF7C5FFFFF766FF31BDBD
:102EB00038B50400FFF748FFD020FFF7BBFF200024
:102EC000C0B2FFF7B7FFFFF73FFFD120FFF7B2FF18
:102ED0000020FFF7BFFF0500FFF74FFF2800C0B23B
:102EE00032BD80B500216B20FFF7CFFF01BD80B55B
:102EF000FFF70FFFFFF7F5FF01BD00000EB41EB591
:102F0000024605A801900024009401AB0121044869
:102F100078440C30FDF74DF903B010BC5DF810FBA0
:102F2000D91B000010B4DFF87421010009B212EBC4
:102F300091110B68012410F01F018C402343010004
:102F400009B212EB9112136010BC704710B4DFF895
:102F50004C21010009B212EB91110B68012410F011
:102F60001F018C402343010009B212EB9112136040
:102F700010BC704710B4DFF82421010009B212EB35
:102F800091110B68012410F01F018C40A343010034
:102F900009B212EB9112136010BC70472DE9F04F8B
:102FA0008DB00400002509A83F491022FEF728F93A
:102FB00007A83E49D1E90023C0E9002305A83C4900
:102FC000D1E90023C0E90023354A1068C0F381012C
:102FD000002903D0022905D002D329E0354B28E08F
:102FE000354B26E02F48036813F03F030493036832
:102FF000C3F3881303930368C3F301435B1C5B00B3
:103000000193006810F4800002900298B0F5800FE0
:1030100002D12948009001E0264800900098049BC6
:10302000B0FBF3F3039843430198B3FBF0F300E0E4
:10303000204B1068C0F3031009AE16F800801E0084
:1030400036FA08F61768C7F3822C07AF17F80C900A
:10305000370037FA09F71268C2F3423E05AA12F8A0
:103060000EA0320032FA0AF2A3465FFA8BFBBBF1E4
:10307000000F07D0BBF1020F08D005D3BBF1030F3F
:1030800006D007E01D0005E0350003E03D0001E04B
:103090001500FFE728000DB0BDE8F08F00380240B2
:1030A0000838024004380240104B0008304B00083A
:1030B000384B00080024F40000127A00F0B40668CF
:1030C00010F10C04276800252C00A4B2102C22D289
:1030D0001C00EC40E4071CD55FF0030C2C00E4B2AC
:1030E00064001CFA04F4A64334002E00F6B2760005
:1030F00011FA06F626432C00E4B264001CFA04FC24
:1031000037EA0C073C002F00FFB27F0012FA07F7E6
:1031100027436D1CD8E7066010F10C042760F0BC53
:103120007047F0B40C00E4B2012C05D1041D2468F2
:103130001C43051D2C6004E0041D24689C43051DF0
:103140002C6010F10804266800252C00A4B2102C75
:1031500012D21C00EC40E4070CD503272C00E4B28B
:103160006400A740BE4334002E00F6B2760012FA87
:1031700006F626436D1CE8E710F108042660F0BC53
:10318000704710F118021160704710F128021160A9
:103190007047020012F110000068084201D00120BF
:1031A00000E000207047F0B410F120031C6810F11B
:1031B00024031D68002633009BB2082B12D2130093
:1031C000F340DB070CD50F273300DBB29B009F4099
:1031D000BC4323003400E4B2A40011FA04F41C43FD
:1031E000761CE8E708273B009BB2102B14D2130093
:1031F000FB40DB070ED50F2617F1F803DBB29B006F
:103200009E40B5432B0017F1F805EDB2AD0011FA61
:1032100005F51D437F1CE6E710F120031C6010F14B
:1032200024031D60F0BC704710F12C021160704740
:103230002DE9F04105000E0014000220FFF7AEFE5C
:10324000DFF80412B0FBF1F23C2A01D33C210A0062
:10325000291D0B689B099B011343291D0B60DFF897
:10326000EC118E4230D2DFF8E011B0FBF1F1491CD5
:103270008846B8F13C0F05D33C2115F1200CCCF861
:1032800000100CE0B8F1030F05D2022115F1200C5B
:10329000CCF8001003E015F12001C1F800807100A6
:1032A000B0FBF1F10F00042F01D204210F0015F142
:1032B0001C01D1F800C03905090D51EA0C0C15F1BB
:1032C0001C01C1F800C046E0DFF884118E4242D2F2
:1032D0004FF4967101FB02F14FF47A7CB1FBFCF1E3
:1032E000491C15F1200CCCF80010002C0FD1032143
:1032F00001FB06F1B0FBF1F10F0015F11C010968AB
:1033000031F4804115F11C0CCCF800100EE01921AD
:1033100001FB06F1B0FBF1F10F0015F11C0109688A
:1033200051F4804115F11C0CCCF80010390501D185
:1033300057F0010715F11C01096851F4004115F11E
:103340001C0CCCF8001015F11C010968394315F16B
:103350001C0CCCF80010BDE8F081F0B40024056826
:1033600035F002050D4305609B059B0D53EA0206EF
:1033700010F108073E60F0BC70470022036833F488
:1033800080630B430360704712F1020F02D14908BA
:10339000490001E051F0010110F11003196070477C
:1033A000016851F0010101607047016851F48071BA
:1033B00001607047016851F40071016070470A00B4
:1033C000D2B210F110031A60704710300068C0B21A
:1033D000704710F12401096831F0100110F1240246
:1033E000116070470200080000B2C0F38910801815
:1033F000006811F01F03D840C00701D5012000E08C
:103400000020704730B40A0040F2015312B29A42D1
:1034100006D110F11402126810F11802126810E0BF
:103420000A0012B2C2F389131B180A0012B2C2F3C7
:10343000891212181468012511F01F029540AC433F
:103440001C6030BC7047000040420F00A1860100A4
:10345000811A060038B5040020006C4988421ED04D
:103460006B49884224D06B49884233D06A498842EC
:1034700039D06A4988423FD06949884245D0694974
:10348000884203D0684988421BD047E040F60415C3
:103490002800FFF75BFD2800FFF76CFD3EE040F6DB
:1034A00011052800FFF752FD2800FFF763FD35E006
:1034B00040F612052800FFF749FD2800FFF75AFDE6
:1034C0002CE040F605152800FFF740FD2800FFF727
:1034D00051FD23E040F613052800FFF737FD2800D3
:1034E000FFF748FD1AE040F614052800FFF72EFD0F
:1034F0002800FFF73FFD11E040F61E052800FFF70A
:1035000025FD2800FFF736FD08E040F61F052800DE
:10351000FFF71CFD2800FFF72DFDFFE731BD2DE96A
:10352000F84304000D00002600275FF000085FF05C
:1035300000092000354988421FD03549884221D0F2
:103540003449884223D03449884225D033498842BF
:1035500027D03349884229D03249884203D03249A2
:10356000884205D027E00320FFF718FD060022E07F
:103570000320FFF713FD06001DE00220FFF70EFDFC
:10358000060018E00220FFF709FD060013E0022004
:10359000FFF704FD06000EE00220FFF7FFFC060027
:1035A00009E00220FFF7FAFC060004E00220FFF722
:1035B000F5FC0600FFE714F10C000068000412D5CA
:1035C0002800400810EB4600B0FBF5F24FF6F07013
:1035D0001040C2F3420151EA00039BB214F1080CFF
:1035E000CCF800300FE016EB5500B0FBF5F24FF6CB
:1035F000F070104012F00F0151EA00039BB214F179
:10360000080CCCF80030BDE8F18300000044004015
:1036100000480040004C004000500040007800404E
:10362000007C0040001001400014014010F10C0229
:10363000126832F4C06210F10C031A6010F10C022F
:1036400012680A4310F10C031A60704710F10C0263
:10365000126832F4805210F10C031A6010F10C025F
:1036600012680A4310F10C031A60704710F110023F
:10367000126832F4405210F110031A6010F1100277
:1036800012680A4310F110031A60704710F10C0120
:10369000096851F4005110F10C021160704710B428
:1036A000002210F10C031B6833F008030B4310F1E8
:1036B0000C04236010BC704710B4002210F10C03FE
:1036C0001B6833F004030B4310F10C04236010BC9F
:1036D00070470A0092B2D205D20D031D1A607047DE
:1036E000001D0068C005C00D704710F1140212687B
:1036F00032F4807210F114031A6010F1140213688E
:1037000011F48072134310F114021360704710F12A
:103710001402126832F4007210F114031A6010F1EE
:103720001402136811F40072134310F114021360B1
:10373000704710F11402126832F0800210F1140385
:103740001A6010F11402136811F08002134310F193
:103750001402136070470200080000B2C0F3891021
:103760008018006811F01F03D840C00701D5012060
:1037700000E00020704730B40A0012B2C2F389138F
:103780001B180A0012B2C2F389121218146801251C
:1037900011F01F029540AC431C6030BC704730B440
:1037A0000A0012B2C2F389131B180A0012B2C2F344
:1037B000891212181468012511F01F0295402C433C
:1037C0001C6030BC704730B40A0012B2C2F38913D7
:1037D0001B180A0012B2C2F38912121814680125CC
:1037E00011F01F029540AC431C6030BC7047F0B430
:1037F0000400002000250123C1F389121219166864
:1038000011F01F0213FA02F2324014EB915636689F
:103810000F003F0C17F01F07BB403340002B03D0B5
:10382000002A01D0012000E00020F0BC7047000019
:1038300010B5DFF8684201212000FFF7A2FC022149
:103840002000FFF79EFC10212000FFF79AFC0520C6
:1038500000F0DAF910212000FFF797FC052000F0B6
:10386000D3F910212000FFF78CFC02212000FFF784
:1038700088FC052000F0C8F902212000FFF785FC34
:10388000112000F066F8142000F0BEF9B12000F01D
:1038900060F8052000F069F83C2000F066F83C2054
:1038A00000F063F8B22000F054F8052000F05DF855
:1038B0003C2000F05AF83C2000F057F8B32000F00C
:1038C00048F8052000F051F83C2000F04EF83C206C
:1038D00000F04BF8052000F048F83C2000F045F8D7
:1038E0003C2000F042F8B42000F033F8032000F050
:1038F0003CF83A2000F02DF8052000F036F82020A2
:1039000000F027F8132000F024F8262000F021F81A
:10391000012000F02AF8292000F01BF8362000F0E2
:1039200018F8702000F021F8002000F05BF810BDBE
:103930000100DFF8480202689207FAD5DFF840225A
:103940000B00DBB213600368DB07FCD51068C0B264
:10395000704710B504000821DFF84001FFF715FC9F
:103960002000C0B2FFF7E4FF10BD10B5040008212D
:10397000DFF82801FFF705FC2000C0B2FFF7D8FFF1
:1039800010BD10B504000821DFF81001FFF7F9FBA6
:10399000200080B2000AC0B2FFF7CAFF2000C0B208
:1039A000FFF7C6FF10BDF8B504000D0016001F009C
:1039B0002A20FFF7CEFF200080B2FFF7E2FF3000A1
:1039C00080B2FFF7DEFF2B20FFF7C3FF280080B295
:1039D000FFF7D7FF380080B2FFF7D3FF2C20FFF7A7
:1039E000B8FFF1BD70B504007F239F2200210020A5
:1039F000FFF7D9FF0025280080B2A0280DDA0020AB
:103A00000600300080B2802805DA200080B2FFF77F
:103A1000B8FF761CF5E76D1CEDE770BD2DE9F843A6
:103A200004000D00160000273800C0B2102832DA5A
:103A300055FA87F39BB2E21D92B255FA87F189B22B
:103A4000200080B2FFF7AFFFDFF838013100C9B2C4
:103A5000090108443900C9B20844B0F50070007883
:103A60008146002080464046C0B2082811DA5FEA4D
:103A7000C97004D54FF6FF70FFF783FF02E0002006
:103A8000FFF77FFF5FFA89F95FEA590918F101082A
:103A9000E9E77F1CC8E7BDE8F1830000000C0240A5
:103AA0002DE9FC4104000D001600300000B2002892
:103AB0000AD52D22ADB2290189B2200080B2FFF7CC
:103AC000ADFF36B2764207E02022ADB2290189B2BD
:103AD000200080B2FFF7A2FF300000B242F2107166
:103AE00090FBF1F08DF80000300000B24FF47A71D5
:103AF00090FBF1F00A216F4690FBF1F201FB1200FE
:103B00007870300000B2642190FBF1F00A2190FB44
:103B1000F1F201FB12008DF80200300000B20A2120
:103B200090FBF1F00A2190FBF1F201FB12008DF8FD
:103B30000300300000B20A2190FBF1F201FB1200F9
:103B40008DF804005FF000084046C0B2052813DA83
:103B50004046C0B23A5C3032D2B2ADB2290189B22D
:103B60004046C0B2401CC00010FA84F080B2FFF79B
:103B700055FF18F10108E7E7BDE8F381085001405F
:103B80000C500140E023000810B4020052B2002A99
:103B900009D50A01234B040064B214F00F04234436
:103BA00003F8042C04E00A011F4B040064B21A5508
:103BB00010BC704710B50400601EB0F1807F01D3C7
:103BC00001200EE0601E194908600F215FF0FF30F0
:103BD000FFF7DAFF00201649086007201549086042
:103BE000002010BD80B5144800684FF47A71B0FB16
:103BF000F1F0FFF7DFFF002800D0FEE700215FF0C3
:103C0000FF30FFF7C1FF01BD0C4A106011680029A9
:103C1000FCD1704709490868002802D00868401E96
:103C20000860704718ED00E000E400E014E000E0F8
:103C300018E000E010E000E004000020AC65002087
:103C4000F8B54FF44060FFF76DF940F60140FFF71B
:103C500069F940F60240FFF765F940F60340FFF7C7
:103C600061F940F60440FFF75DF940F60540FFF7C3
:103C700059F940F60640FFF755F9524C4FF46043AE
:103C8000002200212000FFF719FA4F4D4FF44E4358
:103C9000002200212800FFF711FA4C4E4FF4E27386
:103CA000002200213000FFF709FA494F4FF48C53EE
:103CB000002201213800FFF701FA4FF48C53022251
:103CC00000213800FFF72DFA80213800FFF759FA5C
:103CD0004FF480713800FFF758FA4FF480513800E4
:103CE000FFF753FA2323002201212000FFF7E6F912
:103CF0002323022200212000FFF713FA01212000D4
:103D0000FFF73FFA02212000FFF73BFA20212000B5
:103D1000FFF73BFA2F4C4FF4005300220121200003
:103D2000FFF7CCF94FF40053022200212000FFF7E7
:103D3000F8F94FF400512000FFF727FA9B230022E7
:103D400001212800FFF7BAF99B2302220021280055
:103D5000FFF7E7F91B212800FFF717FA8021280059
:103D6000FFF713FA1C4C4FF40063002201212000DE
:103D7000FFF7A4F94FF40063022200212000FFF7AF
:103D8000D0F94FF400612000FFF7FFF948F2180462
:103D90002300002201213000FFF790F923000222C6
:103DA00000213000FFF7BDF908213000FFF7EDF9E1
:103DB00010213000FFF7E9F94FF400413000FFF720
:103DC000E4F9F1BD00040240000C0240001802407A
:103DD00000000240000802400014024080B54D4837
:103DE000016851F4700101604B48016851F0010114
:103DF000016001688907FCD54848016851F08001DD
:103E00000160002000900098502803D20098401CC8
:103E10000090F8E74148016851F0900101600020EE
:103E200000900098502803D20098401C0090F8E7BA
:103E30003A4A106880088000106037490B6838489B
:103E400003400B60086830F4802008600020106098
:103E5000106834483449086000203449086000F094
:103E600001F801BD80B500F001F801BD10B40021DA
:103E70000020294A136853F001031360491C13689A
:103E800013F002031800002802D1B1F5A06FF5D19C
:103E900013689B0700D4FEE7254B1C6854F0805440
:103EA0001C60244B1C6854F440441C601B4B1C6871
:103EB0001C601C6854F400441C601C6854F4A0543A
:103EC0001C601D4B184C2360136853F08073136003
:103ED00013689B01FCD5174A136853F480331360B1
:103EE000164B1A68D203FBD5124A146854F40034F6
:103EF00014601A689203FCD5084A13689B089B005B
:103F00001360136853F00203136013681B07FCD59A
:103F100010BC704788ED00E00038024008380240CD
:103F2000FFFFF6FE10300024043802400C38024037
:103F300040380240007000401064000904700040E6
:103F400080B54FF4C06000F0A9F8012200213120B3
:103F500000F0A9F801BD80B5FFF7F2FFFFF742FEC0
:103F6000FFF76EFE00F00CF900F024F9FFF760FC9B
:103F700000F098F900F0DCF900F009FAFEF742FDD4
:103F800001BD00002DE9F0412DED068BFFF7E3FFA9
:103F9000FEF7BFFEFEF7ABFF4FF47A769FED378B4F
:103FA0000024B44218DA4720FEF782FF07004820B9
:103FB000FEF77EFF050055EA0725280000B2FDF751
:103FC00089FA53EC182BFDF797FA41EC180B0A20ED
:103FD000FFF71AFE641CE4E73000FDF77BFA0200ED
:103FE0000B0051EC180BFDF7B7FB264AC2E90001A4
:103FF0009FED25AADFED25AA4720FEF759FF050012
:10400000234C4820FEF754FF50EA0520FDF762FAE2
:10401000C4E900011F4FDFF88080D8F80000401E7F
:10402000FDF758FAD7E90023FDF7DAFCD4E90023BD
:10403000FDF762FA04000D00D8F80000FDF74AFA17
:1040400002000B0020002900FDF786FB41EC190B54
:1040500087ED009BD8F80000401CC8F80000422003
:10406000FFF7D2FDD7E90001FDF718FA020012B2FE
:1040700003210020FFF714FDBEE700000000000050
:10408000000000009865002000000000CDCC4C3EF0
:10409000A065002090650020000000203449014305
:1040A000344A116070472DE9F84304000D001600F2
:1040B00000275FF000085FF000092E48016811F446
:1040C000E061B1F5E06F02D10021042229E001682E
:1040D00011F4E061B1F5C06F02D10121032220E0AB
:1040E000016811F4E061B1F5A06F02D10221022252
:1040F00017E0016811F4E061B1F5806F02D103218E
:1041000001220EE0006810F4E060B0F5407F02D1BB
:104110000421002205E04FF4A060FFF7BFFF022159
:1041200002222B00DBB2D1F1040083403000C0B288
:104130005FF00F0CD2F1040E3CFA0EFC1CEA0000FA
:1041400003431B010C48A4465FFA8CFC00F80C30BA
:104150005FF0010C14F01F001CFA00FC0748A64693
:104160005FFA8EFE5FEA6E1E40F82EC0BDE8F18356
:104170000000FA050CED00E000E400E000E100E0E2
:1041800038B500F03BF9FF208DF800006D466870EF
:1041900004242100C9B2684600F066F900208DF8B9
:1041A00000000020687006252900C9B2684600F0AA
:1041B0005BF931BD18B587B040F60440FEF7B2FE9A
:1041C00041F21410FEF7AEFE324C4FF4A04206212D
:1041D0002000FEF7E8FF4FF4A04300220221200058
:1041E000FEF76CFF4FF4A043022200212000FEF7EF
:1041F00098FF002001904FF4827000900020029000
:10420000002005904FF400700390002006900020DD
:104210000490214C6946200000F086F9002120001E
:1042200000F0A5F9200000F09DF900F002F808B0B8
:1042300010BD18B589B040F61640FEF773FE174C56
:1042400004212000FDF7CEFD4020069000200290C2
:1042500000200390002004904FF420400790104865
:104260000090012001905FF4403008906A460421DC
:104270002000FDF732FE04212000FDF7E1FE0222BE
:1042800004212000FDF712FF04212000FDF7FCFEB1
:104290000AB010BD0010024000500140006402400E
:1042A0000C50014010B5514C2000FFF7D3F84FF4EB
:1042B00016512000FFF733F900212000FFF7C6F95F
:1042C00000212000FFF7D2F900212000FFF7AEF90E
:1042D00000212000FFF709FA00212000FFF717FA5C
:1042E00004212000FFF7E8F908212000FFF7D7F9A3
:1042F00080212000FFF71DFA06212000FFF73BFA7E
:1043000040F205312000FFF74AFA4FF441712000D6
:10431000FFF759FA42F205012000FFF754FA032291
:1043200003214720FFF7BFFE2000FFF7AFF910BDC4
:1043300010B52F4C2000FFF78DF85FF4E13120001D
:10434000FFF7EDF800212000FFF780F900212000A1
:10435000FFF78CF900212000FFF768F90021200009
:10436000FFF7C3F900212000FFF7D1F90421200055
:10437000FFF7A2F908212000FFF791F9032203219A
:104380004720FFF790FE2000FFF780F910BD18B519
:1043900089B040F61540FEF7C5FD6846FDF78AFD79
:1043A000144C03212000FDF71DFD40200690002045
:1043B0000390002004904FF4827007900E48009004
:1043C000012001905FF4403008906A4603212000EC
:1043D000FDF783FD03212000FDF732FE04220321B7
:1043E0002000FDF763FE0AB010BD0000001401407C
:1043F00000780040006002400448004010B540F6DC
:104400000540FEF78FFD41F21600FEF78BFDDFF849
:104410000C41032204212000FEF7C5FE03230122E4
:1044200002212000FEF74AFE032302220121200080
:10443000FEF777FEDFF8E8400022DFF8E810200002
:10444000FEF7F6FE4023002200212000FEF785FF44
:104450002000FEF7A5FF4FF480612000FEF78DFFDE
:104460002000FEF7B6FF10BDF8B504000D00DFF820
:10447000B06040F201613000FEF7B4FF0028F6D1D1
:104480003000FEF792FF4FF4A0613000FEF7AAFF64
:104490000028F8D07FF0010240213000FEF774FFC1
:1044A00040F2015739003000FEF79CFF0028F7D09A
:1044B00039003000FEF7A6FF40F207513000FEF74A
:1044C00091FF0128F8D12900C9B23000FEF777FF2B
:1044D00040F2025739003000FEF784FF0028F7D081
:1044E00021783000FEF76BFF39003000FEF77AFFCD
:1044F0000028F9D0641C21783000FEF760FF3900F5
:104500003000FEF76FFF0028F9D03000FEF752FFB1
:10451000034800688005FBD4F1BD00000014024090
:1045200000580040801A060030B40023046814F4D8
:1045300041540A6814434A6814438A681443CA6899
:1045400014430A6914434A6914438A691443046092
:1045500010F11C02126832F4006210F11C052A608E
:1045600030BC7047016851F04001016070470A009B
:10457000D2B2002A06D1021D126852F00202031DB7
:104580001A6005E0021D126852F00102031D1A6054
:10459000704700007047FEE7FEE7FEE7FEE7704762
:1045A0007047704738B5FFF735FB39490868401C3C
:1045B000086014200A680968B1FBF0F100FB1120C3
:1045C000002810D1334C344D280000F077F82060DB
:1045D000206841F28831401A3049088041F2883120
:1045E000280000F067F831BD38B52D4D2D49280061
:1045F000FFF7FDF800280FD005212800FFF7ABF8E2
:10460000002809D02800FFF76BF804002100C9B288
:1046100089B22548FFF75DF831BD38B5224D2149F3
:104620002800FFF7E4F800280FD005212800FFF745
:1046300092F8002809D02800FFF752F80400210062
:10464000C9B289B21648FFF744F831BD80B54FF4BE
:10465000804000F04FF8002815D04FF40051134867
:10466000FEF797FD002807D111480178FF290AD0ED
:104670000178491C017006E00D490878002802D035
:104680000878401E08704FF4804000F03CF801BDEF
:10469000A86500208C65002000080040B865002057
:1046A00000480040050305000014014000040240DA
:1046B000B665002010F1240211607047010000224D
:1046C00011F1240000687047030013F10C00026828
:1046D0000A4013F110000068084203D0002A01D0FC
:1046E000012000E000207047CA4310F110031A6057
:1046F00070470000010006480068084201D0012010
:1047000000E0002070470249086070470000000088
:10471000143C0140F8B53D4E202207213000FDF742
:10472000DBFC00286ED007213000FDF7ADFC012036
:104730003849087001213448FEF776FD364908787B
:1047400000282FD1002004002000C0B2702829DAF0
:10475000002005002800C0B2A02821DA2F4A23003B
:10476000DBB2A02043431A442B00DBB22700FFB288
:1047700077204743702097FBF0F7FFB25FF0BC0C47
:10478000AE465FFA8EFEBB2000FB0EFE9F209EFB16
:10479000F0F00CFB07071E48C05DD0546D1CD9E734
:1047A000641CD1E70878022823D1002004002000EF
:1047B000C0B228281DDA002005002800C0B2BC289D
:1047C00015DABC2016492200D2B2424311442A0015
:1047D000D2B20F4B2700FFB200FB07F050FA85F072
:1047E000184410F5EB50007888546D1CE5E7641C04
:1047F000DDE7202207213000FDF7C3FD072130004F
:10480000FDF730FCF1BD00000004024000640240EE
:1048100000000320BA650020BB650020380100209D
:1048200038470020F8B50D00164611D1012818BFF1
:1048300010F1010F0AD129490A6D3AB100230B6525
:10484000012000F04DF810F1010F41D00020F2BD21
:10485000012803D0BDE8F84000F042B8502E1F4FA9
:1048600013D93A6D42B1002038653946012000F075
:1048700037F810F1010F2BD032462946012000F005
:104880002FF810F1010F26D122E034461CB3396D08
:1048900000207A1850290BD215F8013B0A2B08BFCB
:1048A0000120491C641E02F8013BF3D1396501E087
:1048B00039651CB978B1386D0028E7D03A6D002011
:1048C00038653946012000F00BF810F1010FDDD1F9
:1048D0004FF0FF30F2BD3046F2BD00BF98640020BB
:1048E000F8B506000D001400002D01D1002011E0E4
:1048F000002C0ED0084F297889B23800FEF7E9FE67
:104900006D1C07213800FEF726FF0028F9D0641E31
:10491000EEE72000F2BD00BF0048004080B50D4A20
:104920007A4430320C4B7B442E339A4203D00B49ED
:10493000AFF3008002BD8DF800000122694601201E
:10494000FFF770FF012802D19DF8000002BD4FF073
:10495000FF3002BDACB6FFF7A8B6FFF78800002015
:1049600010B50C4C01212000FFF7AEFE012810D13C
:1049700009480188491C018001880B2905DB0021B9
:10498000018002210548FEF74FFC01212000FFF7BE
:10499000ABFE10BD00140040B465002000040240CE
:1049A00038B50E4D0824286800281CBF017811F086
:1049B000030F03D090F90310002903D52D1D641EA9
:1049C000F1D102E0AFF30080F8E7BDE83840002203
:1049D00000214FF0FF30FFF725BF00BF1801002076
:1049E00030B4002512E050F8042BD30744BF4A44EA
:1049F000521E091F042942F8045BFAD213468C07A1
:104A000044BF15809B1CC90748BF1D7050F8041B8C
:104A10000029E8D130BC704710B5074979441831F6
:104A2000064C7C44163404E00A68081D114488478B
:104A30000146A142F8D110BD2C000000500000003A
:104A40004EF68851CEF20001086840F4700008600C
:104A5000BFF34F8FBFF36F8F4FF00170E1EE100A7D
:104A6000704700007DFFFFFF20580000000003207A
:104A7000846400003801002000000000FFC5FFFF33
:104A800010020000DA0000000000002000F00DF825
:104A9000002801D0FFF7C0FFAFF300800020AFF384
:104AA0000080FFF76FFA00F002F80120704700F075
:104AB00001B800000746FFF773FF3846FDF788F995
:104AC000FBE700000548014603B4684680F3098807
:104AD000AFF30080FFF7B4FFFFF7D8FFA5EDF5FEB9
:104AE0000A4D4D4138343531512064657465637425
:104AF00065640A0D0000000038B504460D462846DE
:104B0000FFF70CFFA84218BF0024204632BD00006A
:104B1000000000000000000001020304060708096D
:104B20000148804701480047DD3D0008C54A0008AC
:104B30000000000001020304000000000102030461
:104B4000FFF7FEBFFFF7FEBFFFF7FEBFFFF7FEBF99
:104B5000FFF7FEBFFFF7FEBFFFF7FEBFFFF7FEBF89
:104B6000FFF7FEBFFFF7FEBFFFF7FEBFFFF7FEBF79
:104B7000FFF7FEBFFFF7FEBFFFF7FEBFFFF7FEBF69
:104B8000FFF7FEBFFFF7FEBFFFF7FEBFFFF7FEBF59
:104B9000FFF7FEBFFFF7FEBFFFF7FEBFFFF7FEBF49
:104BA000FFF7FEBFFFF7FEBFFFF7FEBFFFF7FEBF39
:104BB000FFF7FEBFFFF7FEBFFFF7FEBFFFF7FEBF29
:104BC000FFF7FEBFFFF7FEBFFFF7FEBFFFF7FEBF19
:104BD000FFF7FEBFFFF7FEBFFFF7FEBFFFF7FEBF09
:104BE000FFF7FEBFFFF7FEBFFFF7FEBFFFF7FEBFF9
:104BF000FFF7FEBFFFF7FEBFFFF7FEBFFFF7FEBFE9
:104C0000FFF7FEBFFFF7FEBFFFF7FEBFFFF7FEBFD8
:104C1000FFF7FEBFFFF7FEBFFFF7FEBFFFF7FEBFC8
:104C2000FFF7FEBFFFF7FEBFFFF7FEBFFFF7FEBFB8
:104C3000FFF7FEBFFFF7FEBFFFF7FEBFFFF7FEBFA8
:104C4000FFF7FEBFFFF7FEBFFFF7FEBFFFF7FEBF98
:104C5000FFF7FEBFFFF7FEBFFFF7FEBFFFF7FEBF88
:104C6000FFF7FEBFFFF7FEBFFFF7FEBFFFF7FEBF78
:104C7000FFF7FEBFFFF7FEBFFFF7FEBFFFF7FEBF68
:104C8000FFF7FEBFFFF7FEBFFFF7FEBFFFF7FEBF58
:104C900013010001F00507C2EB0B86110008045256
:104CA000FF01F2000E14100900000104000084004E
:104CB000002085045284042153A10852700CF10B8A
:104CC000011007020401013C6500208C04523C04E1
:104CD0002134610812CC44F213B8484003080202A0
:104CE000EC6440210821042134610813140108F206
:0D4CF00011014812406C128804F206D074C5
:0400000508004AC5E0
:00000001FF
